{
  "abi": [
    {
      "inputs": [
        {
          "internalType": "contract AuthorshipToken",
          "name": "_authorshipToken",
          "type": "address"
        },
        {
          "internalType": "contract FlagRenderer",
          "name": "_flagRenderer",
          "type": "address"
        }
      ],
      "stateMutability": "nonpayable",
      "type": "constructor"
    },
    {
      "inputs": [
        {
          "internalType": "uint256",
          "name": "_tokenId",
          "type": "uint256"
        }
      ],
      "name": "AuthorshipTokenAlreadyUsed",
      "type": "error"
    },
    {
      "inputs": [],
      "name": "IncorrectSolution",
      "type": "error"
    },
    {
      "inputs": [],
      "name": "InsufficientFunds",
      "type": "error"
    },
    {
      "inputs": [
        {
          "internalType": "uint32",
          "name": "_puzzleId",
          "type": "uint32"
        }
      ],
      "name": "PuzzleAlreadyFermat",
      "type": "error"
    },
    {
      "inputs": [
        {
          "internalType": "uint32",
          "name": "_puzzleId",
          "type": "uint32"
        }
      ],
      "name": "PuzzleAlreadySolved",
      "type": "error"
    },
    {
      "inputs": [
        {
          "internalType": "uint32",
          "name": "_puzzleId",
          "type": "uint32"
        }
      ],
      "name": "PuzzleDoesNotExist",
      "type": "error"
    },
    {
      "inputs": [
        {
          "internalType": "uint32",
          "name": "_puzzleId",
          "type": "uint32"
        }
      ],
      "name": "PuzzleNotFermat",
      "type": "error"
    },
    {
      "inputs": [
        {
          "internalType": "uint32",
          "name": "_puzzleId",
          "type": "uint32"
        }
      ],
      "name": "PuzzleNotSolved",
      "type": "error"
    },
    {
      "inputs": [
        {
          "internalType": "uint32",
          "name": "_puzzleId",
          "type": "uint32"
        }
      ],
      "name": "SubmissionClosed",
      "type": "error"
    },
    {
      "inputs": [],
      "name": "Unauthorized",
      "type": "error"
    },
    {
      "anonymous": false,
      "inputs": [
        {
          "indexed": true,
          "internalType": "uint32",
          "name": "id",
          "type": "uint32"
        },
        {
          "indexed": true,
          "internalType": "address",
          "name": "author",
          "type": "address"
        },
        {
          "indexed": false,
          "internalType": "contract IPuzzle",
          "name": "puzzle",
          "type": "address"
        }
      ],
      "name": "AddPuzzle",
      "type": "event"
    },
    {
      "anonymous": false,
      "inputs": [
        {
          "indexed": true,
          "internalType": "address",
          "name": "owner",
          "type": "address"
        },
        {
          "indexed": true,
          "internalType": "address",
          "name": "spender",
          "type": "address"
        },
        {
          "indexed": true,
          "internalType": "uint256",
          "name": "id",
          "type": "uint256"
        }
      ],
      "name": "Approval",
      "type": "event"
    },
    {
      "anonymous": false,
      "inputs": [
        {
          "indexed": true,
          "internalType": "address",
          "name": "owner",
          "type": "address"
        },
        {
          "indexed": true,
          "internalType": "address",
          "name": "operator",
          "type": "address"
        },
        {
          "indexed": false,
          "internalType": "bool",
          "name": "approved",
          "type": "bool"
        }
      ],
      "name": "ApprovalForAll",
      "type": "event"
    },
    {
      "anonymous": false,
      "inputs": [
        {
          "indexed": true,
          "internalType": "address",
          "name": "user",
          "type": "address"
        },
        {
          "indexed": true,
          "internalType": "address",
          "name": "newOwner",
          "type": "address"
        }
      ],
      "name": "OwnershipTransferred",
      "type": "event"
    },
    {
      "anonymous": false,
      "inputs": [
        {
          "indexed": true,
          "internalType": "uint32",
          "name": "id",
          "type": "uint32"
        },
        {
          "indexed": true,
          "internalType": "address",
          "name": "solver",
          "type": "address"
        },
        {
          "indexed": false,
          "internalType": "uint256",
          "name": "solution",
          "type": "uint256"
        },
        {
          "indexed": false,
          "internalType": "uint8",
          "name": "phase",
          "type": "uint8"
        }
      ],
      "name": "SolvePuzzle",
      "type": "event"
    },
    {
      "anonymous": false,
      "inputs": [
        {
          "indexed": true,
          "internalType": "address",
          "name": "from",
          "type": "address"
        },
        {
          "indexed": true,
          "internalType": "address",
          "name": "to",
          "type": "address"
        },
        {
          "indexed": true,
          "internalType": "uint256",
          "name": "id",
          "type": "uint256"
        }
      ],
      "name": "Transfer",
      "type": "event"
    },
    {
      "anonymous": false,
      "inputs": [
        {
          "indexed": true,
          "internalType": "uint32",
          "name": "id",
          "type": "uint32"
        },
        {
          "indexed": false,
          "internalType": "uint256",
          "name": "colors",
          "type": "uint256"
        }
      ],
      "name": "UpdatePuzzleColors",
      "type": "event"
    },
    {
      "inputs": [
        {
          "internalType": "contract IPuzzle",
          "name": "_puzzle",
          "type": "address"
        },
        {
          "internalType": "uint256",
          "name": "_tokenId",
          "type": "uint256"
        }
      ],
      "name": "addPuzzle",
      "outputs": [],
      "stateMutability": "nonpayable",
      "type": "function"
    },
    {
      "inputs": [
        {
          "internalType": "address",
          "name": "_spender",
          "type": "address"
        },
        {
          "internalType": "uint256",
          "name": "_id",
          "type": "uint256"
        }
      ],
      "name": "approve",
      "outputs": [],
      "stateMutability": "nonpayable",
      "type": "function"
    },
    {
      "inputs": [],
      "name": "authorshipToken",
      "outputs": [
        {
          "internalType": "contract AuthorshipToken",
          "name": "",
          "type": "address"
        }
      ],
      "stateMutability": "view",
      "type": "function"
    },
    {
      "inputs": [
        {
          "internalType": "address",
          "name": "_owner",
          "type": "address"
        }
      ],
      "name": "balanceOf",
      "outputs": [
        {
          "internalType": "uint256",
          "name": "",
          "type": "uint256"
        }
      ],
      "stateMutability": "view",
      "type": "function"
    },
    {
      "inputs": [],
      "name": "fermat",
      "outputs": [
        {
          "internalType": "uint32",
          "name": "puzzleId",
          "type": "uint32"
        },
        {
          "internalType": "uint40",
          "name": "timeTaken",
          "type": "uint40"
        }
      ],
      "stateMutability": "view",
      "type": "function"
    },
    {
      "inputs": [],
      "name": "flagRenderer",
      "outputs": [
        {
          "internalType": "contract FlagRenderer",
          "name": "",
          "type": "address"
        }
      ],
      "stateMutability": "view",
      "type": "function"
    },
    {
      "inputs": [
        {
          "internalType": "uint256",
          "name": "",
          "type": "uint256"
        }
      ],
      "name": "getApproved",
      "outputs": [
        {
          "internalType": "address",
          "name": "",
          "type": "address"
        }
      ],
      "stateMutability": "view",
      "type": "function"
    },
    {
      "inputs": [
        {
          "internalType": "uint32",
          "name": "",
          "type": "uint32"
        }
      ],
      "name": "getPuzzle",
      "outputs": [
        {
          "internalType": "contract IPuzzle",
          "name": "puzzle",
          "type": "address"
        },
        {
          "internalType": "uint40",
          "name": "addedTimestamp",
          "type": "uint40"
        },
        {
          "internalType": "uint40",
          "name": "firstSolveTimestamp",
          "type": "uint40"
        }
      ],
      "stateMutability": "view",
      "type": "function"
    },
    {
      "inputs": [
        {
          "internalType": "uint32",
          "name": "",
          "type": "uint32"
        }
      ],
      "name": "getPuzzleAuthor",
      "outputs": [
        {
          "internalType": "address",
          "name": "",
          "type": "address"
        }
      ],
      "stateMutability": "view",
      "type": "function"
    },
    {
      "inputs": [
        {
          "internalType": "uint32",
          "name": "",
          "type": "uint32"
        }
      ],
      "name": "getPuzzleColorsAndSolves",
      "outputs": [
        {
          "internalType": "uint120",
          "name": "colors",
          "type": "uint120"
        },
        {
          "internalType": "uint32",
          "name": "phase0Solves",
          "type": "uint32"
        },
        {
          "internalType": "uint32",
          "name": "phase1Solves",
          "type": "uint32"
        },
        {
          "internalType": "uint32",
          "name": "phase2Solves",
          "type": "uint32"
        },
        {
          "internalType": "uint32",
          "name": "solves",
          "type": "uint32"
        }
      ],
      "stateMutability": "view",
      "type": "function"
    },
    {
      "inputs": [
        {
          "internalType": "uint256",
          "name": "",
          "type": "uint256"
        }
      ],
      "name": "getTokenData",
      "outputs": [
        {
          "internalType": "address",
          "name": "owner",
          "type": "address"
        },
        {
          "internalType": "uint40",
          "name": "solveTimestamp",
          "type": "uint40"
        },
        {
          "internalType": "uint56",
          "name": "solveMetadata",
          "type": "uint56"
        }
      ],
      "stateMutability": "view",
      "type": "function"
    },
    {
      "inputs": [
        {
          "internalType": "address",
          "name": "",
          "type": "address"
        }
      ],
      "name": "getUserBalances",
      "outputs": [
        {
          "internalType": "uint32",
          "name": "phase0Solves",
          "type": "uint32"
        },
        {
          "internalType": "uint32",
          "name": "phase1Solves",
          "type": "uint32"
        },
        {
          "internalType": "uint32",
          "name": "phase2Solves",
          "type": "uint32"
        },
        {
          "internalType": "uint32",
          "name": "solves",
          "type": "uint32"
        },
        {
          "internalType": "uint32",
          "name": "balance",
          "type": "uint32"
        }
      ],
      "stateMutability": "view",
      "type": "function"
    },
    {
      "inputs": [
        {
          "internalType": "address",
          "name": "",
          "type": "address"
        },
        {
          "internalType": "uint32",
          "name": "",
          "type": "uint32"
        }
      ],
      "name": "hasSolvedPuzzle",
      "outputs": [
        {
          "internalType": "bool",
          "name": "",
          "type": "bool"
        }
      ],
      "stateMutability": "view",
      "type": "function"
    },
    {
      "inputs": [
        {
          "internalType": "uint256",
          "name": "",
          "type": "uint256"
        }
      ],
      "name": "hasUsedAuthorshipToken",
      "outputs": [
        {
          "internalType": "bool",
          "name": "",
          "type": "bool"
        }
      ],
      "stateMutability": "view",
      "type": "function"
    },
    {
      "inputs": [
        {
          "internalType": "address",
          "name": "",
          "type": "address"
        },
        {
          "internalType": "address",
          "name": "",
          "type": "address"
        }
      ],
      "name": "isApprovedForAll",
      "outputs": [
        {
          "internalType": "bool",
          "name": "",
          "type": "bool"
        }
      ],
      "stateMutability": "view",
      "type": "function"
    },
    {
      "inputs": [],
      "name": "name",
      "outputs": [
        {
          "internalType": "string",
          "name": "",
          "type": "string"
        }
      ],
      "stateMutability": "view",
      "type": "function"
    },
    {
      "inputs": [],
      "name": "owner",
      "outputs": [
        {
          "internalType": "address",
          "name": "",
          "type": "address"
        }
      ],
      "stateMutability": "view",
      "type": "function"
    },
    {
      "inputs": [
        {
          "internalType": "uint256",
          "name": "_id",
          "type": "uint256"
        }
      ],
      "name": "ownerOf",
      "outputs": [
        {
          "internalType": "address",
          "name": "owner",
          "type": "address"
        }
      ],
      "stateMutability": "view",
      "type": "function"
    },
    {
      "inputs": [],
      "name": "puzzleId",
      "outputs": [
        {
          "internalType": "uint32",
          "name": "",
          "type": "uint32"
        }
      ],
      "stateMutability": "view",
      "type": "function"
    },
    {
      "inputs": [
        {
          "internalType": "address",
          "name": "_from",
          "type": "address"
        },
        {
          "internalType": "address",
          "name": "_to",
          "type": "address"
        },
        {
          "internalType": "uint256",
          "name": "_id",
          "type": "uint256"
        }
      ],
      "name": "safeTransferFrom",
      "outputs": [],
      "stateMutability": "nonpayable",
      "type": "function"
    },
    {
      "inputs": [
        {
          "internalType": "address",
          "name": "_from",
          "type": "address"
        },
        {
          "internalType": "address",
          "name": "_to",
          "type": "address"
        },
        {
          "internalType": "uint256",
          "name": "_id",
          "type": "uint256"
        },
        {
          "internalType": "bytes",
          "name": "_data",
          "type": "bytes"
        }
      ],
      "name": "safeTransferFrom",
      "outputs": [],
      "stateMutability": "nonpayable",
      "type": "function"
    },
    {
      "inputs": [
        {
          "internalType": "address",
          "name": "_operator",
          "type": "address"
        },
        {
          "internalType": "bool",
          "name": "_approved",
          "type": "bool"
        }
      ],
      "name": "setApprovalForAll",
      "outputs": [],
      "stateMutability": "nonpayable",
      "type": "function"
    },
    {
      "inputs": [
        {
          "internalType": "uint32",
          "name": "_puzzleId",
          "type": "uint32"
        }
      ],
      "name": "setFermat",
      "outputs": [],
      "stateMutability": "nonpayable",
      "type": "function"
    },
    {
      "inputs": [
        {
          "internalType": "uint32",
          "name": "_puzzleId",
          "type": "uint32"
        },
        {
          "internalType": "uint120",
          "name": "_colors",
          "type": "uint120"
        }
      ],
      "name": "setPuzzleColors",
      "outputs": [],
      "stateMutability": "nonpayable",
      "type": "function"
    },
    {
      "inputs": [
        {
          "internalType": "uint32",
          "name": "_puzzleId",
          "type": "uint32"
        },
        {
          "internalType": "uint256",
          "name": "_solution",
          "type": "uint256"
        }
      ],
      "name": "solve",
      "outputs": [],
      "stateMutability": "payable",
      "type": "function"
    },
    {
      "inputs": [
        {
          "internalType": "bytes4",
          "name": "_interfaceId",
          "type": "bytes4"
        }
      ],
      "name": "supportsInterface",
      "outputs": [
        {
          "internalType": "bool",
          "name": "",
          "type": "bool"
        }
      ],
      "stateMutability": "pure",
      "type": "function"
    },
    {
      "inputs": [],
      "name": "symbol",
      "outputs": [
        {
          "internalType": "string",
          "name": "",
          "type": "string"
        }
      ],
      "stateMutability": "view",
      "type": "function"
    },
    {
      "inputs": [
        {
          "internalType": "uint256",
          "name": "_tokenId",
          "type": "uint256"
        }
      ],
      "name": "tokenURI",
      "outputs": [
        {
          "internalType": "string",
          "name": "",
          "type": "string"
        }
      ],
      "stateMutability": "view",
      "type": "function"
    },
    {
      "inputs": [
        {
          "internalType": "address",
          "name": "_from",
          "type": "address"
        },
        {
          "internalType": "address",
          "name": "_to",
          "type": "address"
        },
        {
          "internalType": "uint256",
          "name": "_id",
          "type": "uint256"
        }
      ],
      "name": "transferFrom",
      "outputs": [],
      "stateMutability": "nonpayable",
      "type": "function"
    },
    {
      "inputs": [
        {
          "internalType": "address",
          "name": "newOwner",
          "type": "address"
        }
      ],
      "name": "transferOwnership",
      "outputs": [],
      "stateMutability": "nonpayable",
      "type": "function"
    }
  ],
  "bytecode": {
    "object": "0x60c06040526006805463ffffffff60a01b191690553480156200002157600080fd5b5060405162002c4b38038062002c4b83398101604081905262000044916200011f565b3360405180604001604052806005815260200164437572746160d81b8152506040518060400160405280600381526020016221aa2360e91b815250816000908162000090919062000203565b5060016200009f828262000203565b5050600680546001600160a01b0319166001600160a01b0384169081179091556040519091506000907f8be0079c531659141344cd1fd0a4f28419497f9722a3daafe3b4186f6b6457e0908290a3506001600160a01b039182166080521660a052620002cf565b6001600160a01b03811681146200011c57600080fd5b50565b600080604083850312156200013357600080fd5b8251620001408162000106565b6020840151909250620001538162000106565b809150509250929050565b634e487b7160e01b600052604160045260246000fd5b600181811c908216806200018957607f821691505b602082108103620001aa57634e487b7160e01b600052602260045260246000fd5b50919050565b601f821115620001fe57600081815260208120601f850160051c81016020861015620001d95750805b601f850160051c820191505b81811015620001fa57828155600101620001e5565b5050505b505050565b81516001600160401b038111156200021f576200021f6200015e565b620002378162000230845462000174565b84620001b0565b602080601f8311600181146200026f5760008415620002565750858301515b600019600386901b1c1916600185901b178555620001fa565b600085815260208120601f198616915b82811015620002a0578886015182559484019460019091019084016200027f565b5085821015620002bf5787850151600019600388901b60f8161c191681555b5050505050600190811b01905550565b60805160a0516129416200030a600039600081816103350152611c220152600081816101e401528181610fc1015261132101526129416000f3fe6080604052600436106101cd5760003560e01c806376a50464116100f7578063b88d4fde11610095578063e985e9c511610064578063e985e9c5146107cf578063ea620cc71461080a578063f2fde38b1461082a578063f9aa8ff11461084a57600080fd5b8063b88d4fde1461073f578063bb16f8621461075f578063c87b56dd1461077f578063e4ff676d1461079f57600080fd5b806396f6326c116100d157806396f6326c14610535578063a22cb465146105f1578063abd3f61214610611578063b09afec1146106b457600080fd5b806376a50464146104b05780638da5cb5b1461050057806395d89b411461052057600080fd5b8063301cca8f1161016f5780634ddf9d811161013e5780634ddf9d81146103c557806354eed6ac146103e55780636352211e1461046257806370a082311461048257600080fd5b8063301cca8f1461032357806331468f061461035757806340854ed51461036a57806342842e0e146103a557600080fd5b8063081812fc116101ab578063081812fc14610275578063095ea7b3146102ab5780631756aaac146102cd57806323b872dd1461030357600080fd5b8063012583ab146101d257806301ffc9a71461022357806306fdde0314610253575b600080fd5b3480156101de57600080fd5b506102067f000000000000000000000000000000000000000000000000000000000000000081565b6040516001600160a01b0390911681526020015b60405180910390f35b34801561022f57600080fd5b5061024361023e3660046120b0565b610883565b604051901515815260200161021a565b34801561025f57600080fd5b50610268610920565b60405161021a91906120f8565b34801561028157600080fd5b5061020661029036600461212b565b6002602052600090815260409020546001600160a01b031681565b3480156102b757600080fd5b506102cb6102c6366004612159565b6109ae565b005b3480156102d957600080fd5b506102066102e8366004612199565b600a602052600090815260409020546001600160a01b031681565b34801561030f57600080fd5b506102cb61031e3660046121b4565b610a95565b34801561032f57600080fd5b506102067f000000000000000000000000000000000000000000000000000000000000000081565b6102cb6103653660046121f5565b610cb2565b34801561037657600080fd5b50610243610385366004612211565b600b60209081526000928352604080842090915290825290205460ff1681565b3480156103b157600080fd5b506102cb6103c03660046121b4565b6111ed565b3480156103d157600080fd5b506102cb6103e0366004612159565b6112f2565b3480156103f157600080fd5b50610435610400366004612199565b6009602052600090815260409020546001600160a01b0381169064ffffffffff600160a01b8204811691600160c81b90041683565b604080516001600160a01b03909416845264ffffffffff928316602085015291169082015260600161021a565b34801561046e57600080fd5b5061020661047d36600461212b565b611521565b34801561048e57600080fd5b506104a261049d366004612246565b611578565b60405190815260200161021a565b3480156104bc57600080fd5b506007546104de9063ffffffff811690640100000000900464ffffffffff1682565b6040805163ffffffff909316835264ffffffffff90911660208301520161021a565b34801561050c57600080fd5b50600654610206906001600160a01b031681565b34801561052c57600080fd5b506102686115f9565b34801561054157600080fd5b506105ac610550366004612199565b6008602052600090815260409020546effffffffffffffffffffffffffffff81169063ffffffff6f010000000000000000000000000000008204811691600160981b8104821691600160b81b8204811691600160d81b90041685565b604080516effffffffffffffffffffffffffffff909616865263ffffffff9485166020870152928416928501929092528216606084015216608082015260a00161021a565b3480156105fd57600080fd5b506102cb61060c366004612271565b611606565b34801561061d57600080fd5b5061067d61062c366004612246565b60056020526000908152604090205463ffffffff8082169164010000000081048216916801000000000000000082048116916c010000000000000000000000008104821691600160801b9091041685565b6040805163ffffffff968716815294861660208601529285169284019290925283166060830152909116608082015260a00161021a565b3480156106c057600080fd5b5061070b6106cf36600461212b565b6004602052600090815260409020546001600160a01b03811690600160a01b810464ffffffffff1690600160c81b900466ffffffffffffff1683565b604080516001600160a01b03909416845264ffffffffff909216602084015266ffffffffffffff169082015260600161021a565b34801561074b57600080fd5b506102cb61075a3660046122aa565b611672565b34801561076b57600080fd5b506102cb61077a366004612199565b611767565b34801561078b57600080fd5b5061026861079a36600461212b565b611a7f565b3480156107ab57600080fd5b506102436107ba36600461212b565b600c6020526000908152604090205460ff1681565b3480156107db57600080fd5b506102436107ea366004612349565b600360209081526000928352604080842090915290825290205460ff1681565b34801561081657600080fd5b506102cb610825366004612377565b611ce5565b34801561083657600080fd5b506102cb610845366004612246565b611d9b565b34801561085657600080fd5b5060065461086e90600160a01b900463ffffffff1681565b60405163ffffffff909116815260200161021a565b60007f01ffc9a7000000000000000000000000000000000000000000000000000000006001600160e01b0319831614806108e657507f80ac58cd000000000000000000000000000000000000000000000000000000006001600160e01b03198316145b8061091a57507f5b5e139f000000000000000000000000000000000000000000000000000000006001600160e01b03198316145b92915050565b6000805461092d906123b7565b80601f0160208091040260200160405190810160405280929190818152602001828054610959906123b7565b80156109a65780601f1061097b576101008083540402835291602001916109a6565b820191906000526020600020905b81548152906001019060200180831161098957829003601f168201915b505050505081565b6000818152600460205260409020546001600160a01b0316338114806109f757506001600160a01b038116600090815260036020908152604080832033845290915290205460ff165b610a395760405162461bcd60e51b815260206004820152600e60248201526d1393d517d055551213d49256915160921b60448201526064015b60405180910390fd5b60008281526002602052604080822080546001600160a01b0319166001600160a01b0387811691821790925591518593918516917f8c5be1e5ebec7d5bd14f71427d1e84f3dd0314c0f7b2291e5b200ac8c7c3b92591a4505050565b6000818152600460205260409020546001600160a01b03848116911614610afe5760405162461bcd60e51b815260206004820152600a60248201527f57524f4e475f46524f4d000000000000000000000000000000000000000000006044820152606401610a30565b6001600160a01b038216610b545760405162461bcd60e51b815260206004820152601160248201527f494e56414c49445f524543495049454e540000000000000000000000000000006044820152606401610a30565b336001600160a01b0384161480610b8e57506001600160a01b038316600090815260036020908152604080832033845290915290205460ff165b80610baf57506000818152600260205260409020546001600160a01b031633145b610bec5760405162461bcd60e51b815260206004820152600e60248201526d1393d517d055551213d49256915160921b6044820152606401610a30565b6001600160a01b038084166000818152600560209081526040808320805460001963ffffffff600160801b8084048216929092018116820263ffffffff60801b19938416179093559689168086528386208054898104851660010190941690980292909116919091179095558583526004825280832080546001600160a01b031990811687179091556002909252808320805490921690915551849392917fddf252ad1be2c89b69c2b068fc378daa952ba7f163c4a11628f55a4df523b3ef91a4505050565b336000908152600b6020908152604080832063ffffffff8616845290915290205460ff1615610d15576040517f36a1d8d400000000000000000000000000000000000000000000000000000000815263ffffffff83166004820152602401610a30565b63ffffffff8216600090815260096020908152604091829020825160608101845290546001600160a01b03811680835264ffffffffff600160a01b8304811694840194909452600160c81b9091049092169281019290925280610dac576040517f684773c300000000000000000000000000000000000000000000000000000000815263ffffffff85166004820152602401610a30565b604082015142600082151560016202a3008501841162069780860185110101026040517f2fa61cd80000000000000000000000000000000000000000000000000000000081523360048201529091506001600160a01b038516906341161b10908290632fa61cd8906024016020604051808303816000875af1158015610e36573d6000803e3d6000fd5b505050506040513d601f19601f82011682018060405250810190610e5a91906123f1565b886040518363ffffffff1660e01b8152600401610e81929190918252602082015260400190565b6020604051808303816000875af1158015610ea0573d6000803e3d6000fd5b505050506040513d601f19601f82011682018060405250810190610ec4919061240a565b610efa576040517f62cebecf00000000000000000000000000000000000000000000000000000000815260040160405180910390fd5b8264ffffffffff1660000361101e5763ffffffff8781166000908152600960209081526040808320805464ffffffffff60c81b1916600160c81b64ffffffffff8916021790556008909152902080549091600f91610f6c916f010000000000000000000000000000009091041661243d565b825463ffffffff9182166101009390930a92830291909202199091161790556040517f49edb4250000000000000000000000000000000000000000000000000000000081523360048201526001600160a01b037f000000000000000000000000000000000000000000000000000000000000000016906349edb42590602401600060405180830381600087803b15801561100557600080fd5b505af1158015611019573d6000803e3d6000fd5b505050505b336000818152600b6020908152604080832063ffffffff8c811685529083528184208054600160ff1990911681179091556008909352922080547fff00000000ffffffffffffffffffffffffffffffffffffffffffffffffffffff8116600160d81b91829004851693840190941602929092179091556110dd919060808a901b73ffffffff000000000000000000000000000000001617630fffffff8916606883901c72fffffffffffffffffffffffffffffff0000000161784611e41565b8060ff166001036111405763ffffffff878116600090815260086020526040902080547fffffffffffffffffff00000000ffffffffffffffffffffffffffffffffffffff8116600160981b9182900484166001019093160291909117905561119f565b8060ff1660020361119f5763ffffffff878116600090815260086020526040902080547fffffffffff00000000ffffffffffffffffffffffffffffffffffffffffffffff8116600160b81b918290048416600101909316029190911790555b6040805187815260ff83166020820152339163ffffffff8a16917f79550049b42009b11b52956ed9da213919c1417e6980af5e79bf7fffbb28a533910160405180910390a350505050505050565b6111f8838383610a95565b6001600160a01b0382163b15806112a15750604051630a85bd0160e11b8082523360048301526001600160a01b03858116602484015260448301849052608060648401526000608484015290919084169063150b7a029060a4016020604051808303816000875af1158015611271573d6000803e3d6000fd5b505050506040513d601f19601f820116820180604052508101906112959190612460565b6001600160e01b031916145b6112ed5760405162461bcd60e51b815260206004820152601060248201527f554e534146455f524543495049454e54000000000000000000000000000000006044820152606401610a30565b505050565b6040517f6352211e000000000000000000000000000000000000000000000000000000008152600481018290527f00000000000000000000000000000000000000000000000000000000000000006001600160a01b031690636352211e90602401602060405180830381865afa158015611370573d6000803e3d6000fd5b505050506040513d601f19601f82011682018060405250810190611394919061247d565b6001600160a01b0316336001600160a01b0316146113c4576040516282b42960e81b815260040160405180910390fd5b600680547fffffffffffffffff00000000ffffffffffffffffffffffffffffffffffffffff8116600160a01b9182900463ffffffff90811660010190811680840292909217909355604080516060810182526001600160a01b038781168083524264ffffffffff9081166020808601918252600086880181815289825260098352888220975188549451915197167fffffffffffffff00000000000000000000000000000000000000000000000000909416939093179284169099029190911764ffffffffff60c81b1916600160c81b949092169390930217909255600a81528285208054336001600160a01b03199091168117909155600882529483902080546e181e28181e2827303df0f6fc94a3b36effffffffffffffffffffffffffffff1990911617905591519081527ff769adab71d9ec16f2a65a83569ce900dfec45bc5f6d39d364d7059d631c9514910160405180910390a3505050565b6000818152600460205260409020546001600160a01b0316806115735760405162461bcd60e51b815260206004820152600a6024820152691393d517d3525395115160b21b6044820152606401610a30565b919050565b60006001600160a01b0382166115d05760405162461bcd60e51b815260206004820152600c60248201527f5a45524f5f4144445245535300000000000000000000000000000000000000006044820152606401610a30565b506001600160a01b0316600090815260056020526040902054600160801b900463ffffffff1690565b6001805461092d906123b7565b3360008181526003602090815260408083206001600160a01b03871680855290835292819020805460ff191686151590811790915590519081529192917f17307eab39ab6107e8899845ad3d59bd9653f200f220920489ca2b5937696c31910160405180910390a35050565b61167d858585610a95565b6001600160a01b0384163b15806117145750604051630a85bd0160e11b808252906001600160a01b0386169063150b7a02906116c59033908a9089908990899060040161249a565b6020604051808303816000875af11580156116e4573d6000803e3d6000fd5b505050506040513d601f19601f820116820180604052508101906117089190612460565b6001600160e01b031916145b6117605760405162461bcd60e51b815260206004820152601060248201527f554e534146455f524543495049454e54000000000000000000000000000000006044820152606401610a30565b5050505050565b63ffffffff81166000908152600960209081526040808320815160608101835290546001600160a01b038116825264ffffffffff600160a01b8204811694830194909452600160c81b90049092169082018190529091036117fc576040517f71c4611b00000000000000000000000000000000000000000000000000000000815263ffffffff83166004820152602401610a30565b60075463ffffffff808416911603611848576040517ff31ab1ac00000000000000000000000000000000000000000000000000000000815263ffffffff83166004820152602401610a30565b602081015160408201516007549190039064ffffffffff640100000000909104811690821610156118ad576040517f20012d7300000000000000000000000000000000000000000000000000000000815263ffffffff84166004820152602401610a30565b6007805464ffffffffff9092166401000000000268ffffffffffffffffff1990921663ffffffff85169081179290921790556000908152600a60209081526040822054918052600490527f17ef568e3e12ab5b9c7254a8d58478811de00f9e6eb34345acd53bf8fd09d3ec546001600160a01b03918216911680156119d2576001600160a01b0381166000818152600560209081526040808320805460001963ffffffff600160801b808404821692909201160263ffffffff60801b1990911617905582805260029091527fac33ff75c19e70fe83507db0d683fd3465c996598dc972688b7ace676c89077b80546001600160a01b031916905551909182917fddf252ad1be2c89b69c2b068fc378daa952ba7f163c4a11628f55a4df523b3ef908390a45b6001600160a01b03821660008181526005602090815260408083208054600163ffffffff600160801b808404821692909201160263ffffffff60801b1990911617905582805260049091527f17ef568e3e12ab5b9c7254a8d58478811de00f9e6eb34345acd53bf8fd09d3ec80546001600160a01b031916841790555190919082907fddf252ad1be2c89b69c2b068fc378daa952ba7f163c4a11628f55a4df523b3ef908290a450505050565b60008181526004602090815260409182902082516060808201855291546001600160a01b038116808352600160a01b820464ffffffffff1694830194909452600160c81b900466ffffffffffffff16938101939093529190611b105760405162461bcd60e51b815260206004820152600a6024820152691393d517d3525395115160b21b6044820152606401610a30565b82600003611b3b57604051806102e001604052806102bd81526020016126786102bd91399392505050565b608083901c63ffffffff8181166000818152600960209081526040808320815160608101835290546001600160a01b038082168352600160a01b820464ffffffffff90811684870152600160c81b9092048216838501908152968652600a85528386205460088652938620549651948a01519297931695600160d81b8104909316946effffffffffffffffffffffffffffff909316938116911614611c13576202a300856040015164ffffffffff16611bf491906124ee565b876020015164ffffffffff1610611c0c576002611c16565b6001611c16565b60005b90506001600160a01b037f000000000000000000000000000000000000000000000000000000000000000016631fcc81ff86611c538c60016124ee565b8789602001518c60200151611c689190612501565b8c60400151878a8a6040518963ffffffff1660e01b8152600401611c93989796959493929190612526565b600060405180830381865afa158015611cb0573d6000803e3d6000fd5b505050506040513d6000823e601f3d908101601f19168201604052611cd891908101906125ca565b9998505050505050505050565b63ffffffff82166000908152600a60205260409020546001600160a01b03163314611d22576040516282b42960e81b815260040160405180910390fd5b63ffffffff821660008181526008602090815260409182902080546effffffffffffffffffffffffffffff19166effffffffffffffffffffffffffffff861690811790915591519182527f589aaff1c002925ad33e34d092a74d95c823ee866338f474c74a5bd51f511512910160405180910390a25050565b6006546001600160a01b03163314611df55760405162461bcd60e51b815260206004820152600c60248201527f554e415554484f52495a454400000000000000000000000000000000000000006044820152606401610a30565b600680546001600160a01b0319166001600160a01b03831690811790915560405133907f8be0079c531659141344cd1fd0a4f28419497f9722a3daafe3b4186f6b6457e090600090a350565b6001600160a01b038416600090815260056020526040812080546c01000000000000000000000000600163ffffffff600160801b8085048216830182160263ffffffff60801b19851681178490048216909201169091026fffffffff000000000000000000000000199091167fffffffffffffffffffffffff0000000000000000ffffffffffffffffffffffff9092169190911717905560ff82169003611f19576001600160a01b0384166000908152600560205260409020805463ffffffff8082166001011663ffffffff19909116179055611fb6565b8060ff16600103611f6b576001600160a01b03841660009081526005602052604090208054600163ffffffff640100000000808404821692909201160267ffffffff0000000019909116179055611fb6565b6001600160a01b03841660009081526005602052604090208054600163ffffffff6801000000000000000080840482169290920116026bffffffff0000000000000000199091161790555b604080516060810182526001600160a01b0380871680835264ffffffffff428116602080860191825266ffffffffffffff808a1687890190815260008c815260049093528883209751885494519151909216600160c81b0278ffffffffffffffffffffffffffffffffffffffffffffffffff91909516600160a01b027fffffffffffffff00000000000000000000000000000000000000000000000000909416919096161791909117939093161790925591518592907fddf252ad1be2c89b69c2b068fc378daa952ba7f163c4a11628f55a4df523b3ef908290a450505050565b6001600160e01b0319811681146120ad57600080fd5b50565b6000602082840312156120c257600080fd5b81356120cd81612097565b9392505050565b60005b838110156120ef5781810151838201526020016120d7565b50506000910152565b60208152600082518060208401526121178160408501602087016120d4565b601f01601f19169190910160400192915050565b60006020828403121561213d57600080fd5b5035919050565b6001600160a01b03811681146120ad57600080fd5b6000806040838503121561216c57600080fd5b823561217781612144565b946020939093013593505050565b803563ffffffff8116811461157357600080fd5b6000602082840312156121ab57600080fd5b6120cd82612185565b6000806000606084860312156121c957600080fd5b83356121d481612144565b925060208401356121e481612144565b929592945050506040919091013590565b6000806040838503121561220857600080fd5b61217783612185565b6000806040838503121561222457600080fd5b823561222f81612144565b915061223d60208401612185565b90509250929050565b60006020828403121561225857600080fd5b81356120cd81612144565b80151581146120ad57600080fd5b6000806040838503121561228457600080fd5b823561228f81612144565b9150602083013561229f81612263565b809150509250929050565b6000806000806000608086880312156122c257600080fd5b85356122cd81612144565b945060208601356122dd81612144565b935060408601359250606086013567ffffffffffffffff8082111561230157600080fd5b818801915088601f83011261231557600080fd5b81358181111561232457600080fd5b89602082850101111561233657600080fd5b9699959850939650602001949392505050565b6000806040838503121561235c57600080fd5b823561236781612144565b9150602083013561229f81612144565b6000806040838503121561238a57600080fd5b61239383612185565b915060208301356effffffffffffffffffffffffffffff8116811461229f57600080fd5b600181811c908216806123cb57607f821691505b6020821081036123eb57634e487b7160e01b600052602260045260246000fd5b50919050565b60006020828403121561240357600080fd5b5051919050565b60006020828403121561241c57600080fd5b81516120cd81612263565b634e487b7160e01b600052601160045260246000fd5b600063ffffffff80831681810361245657612456612427565b6001019392505050565b60006020828403121561247257600080fd5b81516120cd81612097565b60006020828403121561248f57600080fd5b81516120cd81612144565b60006001600160a01b03808816835280871660208401525084604083015260806060830152826080830152828460a0840137600060a0848401015260a0601f19601f85011683010190509695505050505050565b8082018082111561091a5761091a612427565b64ffffffffff82811682821603908082111561251f5761251f612427565b5092915050565b88516001600160a01b0390811682526020808b015164ffffffffff908116918401919091526040808c0151821690840152606083018a90529088166080830152861660a082015266ffffffffffffff851660c082015260ff841660e082015263ffffffff831661010082015261014081016effffffffffffffffffffffffffffff8316610120830152611cd8565b634e487b7160e01b600052604160045260246000fd5b6000602082840312156125dc57600080fd5b815167ffffffffffffffff808211156125f457600080fd5b818401915084601f83011261260857600080fd5b81518181111561261a5761261a6125b4565b604051601f8201601f19908116603f01168101908382118183101715612642576126426125b4565b8160405282815287602084870101111561265b57600080fd5b61266c8360208301602088016120d4565b97965050505050505056fe646174613a6170706c69636174696f6e2f6a736f6e3b6261736536342c65794a755957316c496a6f69526d567962574630496977695a47567a59334a7063485270623234694f694a4d6232356e5a584e304948567563323973646d566b49484231656e70735a5334694c434a706257466e5a56396b59585268496a6f695a474630595470706257466e5a53397a646d6372654731734f324a68633255324e43785153453479576e6c434d324658556a426852444270546c525664306c70516d396156327875595568524f556c715654464e51306c6e5a47317362475177536e5a6c5244427054554e4264306c455654464e51304578546c524261556c48576e42695233633553573031646d4a7456576c4a53476830596b6331656c4254536d396b53464a3354326b34646d517a5a444e4d626d4e3654473035655670354f486c4e5245463354444e4f4d6c70355353745153454a6f5a45646e5a31707462484e6952444270535870464e45315656586c5051306c6e576b5177615652555157644e5232637a546c52434d6b3536565864545245493253576b344b314249536d785a4d31466e5a555177615531555558704a6155493155464e4a4d6b39545357646b4d6d78725a45646e4f556c7153544a4f51306c6e5955645763466f796144425155306b775456524a61556c49536a525155306b3053576c436257465865484e5155306c715457706a656b3145546b564a615467725545684b62466b7a5557646c52444270545652524d306c70516a565155306b7a54586c4a5a324d7a556e6c694d6e527355464e4a616b31555158684e656b5a4553576c434d324658556a426852444270545770564d6b6c70516d396156327875595568524f556c715558644f51306c6e5932356e4f556c7155576c4a52317077596b64334f556c7054586461524556335456526a615578364e44684d4d303479576e6f3050534a39a164736f6c6343000815000a",
    "linkReferences": {}
  },
  "methodIdentifiers": {
    "addPuzzle(address,uint256)": "4ddf9d81",
    "approve(address,uint256)": "095ea7b3",
    "authorshipToken()": "012583ab",
    "balanceOf(address)": "70a08231",
    "fermat()": "76a50464",
    "flagRenderer()": "301cca8f",
    "getApproved(uint256)": "081812fc",
    "getPuzzle(uint32)": "54eed6ac",
    "getPuzzleAuthor(uint32)": "1756aaac",
    "getPuzzleColorsAndSolves(uint32)": "96f6326c",
    "getTokenData(uint256)": "b09afec1",
    "getUserBalances(address)": "abd3f612",
    "hasSolvedPuzzle(address,uint32)": "40854ed5",
    "hasUsedAuthorshipToken(uint256)": "e4ff676d",
    "isApprovedForAll(address,address)": "e985e9c5",
    "name()": "06fdde03",
    "owner()": "8da5cb5b",
    "ownerOf(uint256)": "6352211e",
    "puzzleId()": "f9aa8ff1",
    "safeTransferFrom(address,address,uint256)": "42842e0e",
    "safeTransferFrom(address,address,uint256,bytes)": "b88d4fde",
    "setApprovalForAll(address,bool)": "a22cb465",
    "setFermat(uint32)": "bb16f862",
    "setPuzzleColors(uint32,uint120)": "ea620cc7",
    "solve(uint32,uint256)": "31468f06",
    "supportsInterface(bytes4)": "01ffc9a7",
    "symbol()": "95d89b41",
    "tokenURI(uint256)": "c87b56dd",
    "transferFrom(address,address,uint256)": "23b872dd",
    "transferOwnership(address)": "f2fde38b"
  },
  "id": 59
}