{
  "abi": [
    {
      "inputs": [],
      "name": "PRIMES",
      "outputs": [
        {
          "internalType": "uint256",
          "name": "",
          "type": "uint256"
        }
      ],
      "stateMutability": "view",
      "type": "function"
    },
    {
      "inputs": [
        {
          "internalType": "address",
          "name": "_seed",
          "type": "address"
        }
      ],
      "name": "generate",
      "outputs": [
        {
          "internalType": "uint256",
          "name": "",
          "type": "uint256"
        }
      ],
      "stateMutability": "pure",
      "type": "function"
    },
    {
      "inputs": [],
      "name": "name",
      "outputs": [
        {
          "internalType": "string",
          "name": "",
          "type": "string"
        }
      ],
      "stateMutability": "pure",
      "type": "function"
    },
    {
      "inputs": [],
      "name": "numPrimes",
      "outputs": [
        {
          "internalType": "uint256",
          "name": "",
          "type": "uint256"
        }
      ],
      "stateMutability": "view",
      "type": "function"
    },
    {
      "inputs": [
        {
          "internalType": "uint256",
          "name": "_start",
          "type": "uint256"
        },
        {
          "internalType": "uint256",
          "name": "_solution",
          "type": "uint256"
        }
      ],
      "name": "verify",
      "outputs": [
        {
          "internalType": "bool",
          "name": "",
          "type": "bool"
        }
      ],
      "stateMutability": "pure",
      "type": "function"
    }
  ],
  "bytecode": {
    "object": "0x608060405234801561001057600080fd5b5061059b806100206000396000f3fe608060405234801561001057600080fd5b50600436106100675760003560e01c806341161b101161005057806341161b10146100d5578063a35a4e9d146100f8578063ed53c5fe1461010057600080fd5b806306fdde031461006c5780632fa61cd8146100b4575b600080fd5b604080518082018252601181527f7768617420617265206275636b6574733f000000000000000000000000000000602082015290516100ab9190610437565b60405180910390f35b6100c76100c2366004610485565b610118565b6040519081526020016100ab565b6100e86100e33660046104c2565b61029b565b60405190151581526020016100ab565b6100c7601181565b6100c770020305070b0d1113171d1f25292b2f353b81565b6040516bffffffffffffffffffffffff19606083901b166020820152600090819060340160408051601f1981840301815291905280516020909101209050806000610165600160116104fa565b61017090601161050d565b90505b8115610290576000610185828461053a565b9050610191828461054e565b925060006101a060118361053a565b905060006101af60118461054e565b90508181106101c6576101c3600182610562565b90505b60ff70020305070b0d1113171d1f25292b2f353b600384811b82901c8316929084901b9190911c16806101fa836001610562565b610204919061053a565b1580610223575081610217826001610562565b610221919061053a565b155b806102415750806102356001846104fa565b61023f919061053a565b155b8061025f5750816102536001836104fa565b61025d919061053a565b155b1561026e575050505050610173565b610282601082901b601884901b17896102e4565b9a9950505050505050505050565b506001949350505050565b60006102d483846040516020016102b491815260200190565b6040516020818303038152906040528051906020012060001c84186102e4565b61ffff1660011490505b92915050565b6000805b605581101561031f5761030b8461030083600361050d565b85901c600716610327565b93508061031781610575565b9150506102e8565b509192915050565b6000603f600283901c168103610388576002808316900361034a57600883901b92505b64ffffff00ff831692508160011660ff1660010361037057601083901c61ff0016831792505b6002808316900361038357600883901c92505b610430565b6005821660040361043057600280831690036103b75760088362ff00ff16901b60088463ff00ff0016901c1792505b60ff600884901c8116906000906103d79080871690601088901c166104fa565b905060008183116103e857826103ea565b815b90506103fa600882901b876104fa565b95506104068187610562565b95506002808616900361042c5760088662ff00ff16901b60088763ff00ff0016901c1795505b5050505b5090919050565b600060208083528351808285015260005b8181101561046457858101830151858201604001528201610448565b506000604082860101526040601f19601f8301168501019250505092915050565b60006020828403121561049757600080fd5b813573ffffffffffffffffffffffffffffffffffffffff811681146104bb57600080fd5b9392505050565b600080604083850312156104d557600080fd5b50508035926020909101359150565b634e487b7160e01b600052601160045260246000fd5b818103818111156102de576102de6104e4565b80820281158282048414176102de576102de6104e4565b634e487b7160e01b600052601260045260246000fd5b60008261054957610549610524565b500690565b60008261055d5761055d610524565b500490565b808201808211156102de576102de6104e4565b600060018201610587576105876104e4565b506001019056fea164736f6c6343000815000a",
    "linkReferences": {}
  },
  "methodIdentifiers": {
    "PRIMES()": "ed53c5fe",
    "generate(address)": "2fa61cd8",
    "name()": "06fdde03",
    "numPrimes()": "a35a4e9d",
    "verify(uint256,uint256)": "41161b10"
  },
  "id": 72
}