{
  "abi": [
    {
      "inputs": [
        {
          "internalType": "address",
          "name": "_curta",
          "type": "address"
        },
        {
          "internalType": "uint256",
          "name": "_issueLength",
          "type": "uint256"
        },
        {
          "internalType": "address[]",
          "name": "_authors",
          "type": "address[]"
        }
      ],
      "stateMutability": "nonpayable",
      "type": "constructor"
    },
    {
      "inputs": [],
      "name": "NoTokensAvailable",
      "type": "error"
    },
    {
      "inputs": [],
      "name": "Unauthorized",
      "type": "error"
    },
    {
      "anonymous": false,
      "inputs": [
        {
          "indexed": true,
          "internalType": "address",
          "name": "owner",
          "type": "address"
        },
        {
          "indexed": true,
          "internalType": "address",
          "name": "spender",
          "type": "address"
        },
        {
          "indexed": true,
          "internalType": "uint256",
          "name": "id",
          "type": "uint256"
        }
      ],
      "name": "Approval",
      "type": "event"
    },
    {
      "anonymous": false,
      "inputs": [
        {
          "indexed": true,
          "internalType": "address",
          "name": "owner",
          "type": "address"
        },
        {
          "indexed": true,
          "internalType": "address",
          "name": "operator",
          "type": "address"
        },
        {
          "indexed": false,
          "internalType": "bool",
          "name": "approved",
          "type": "bool"
        }
      ],
      "name": "ApprovalForAll",
      "type": "event"
    },
    {
      "anonymous": false,
      "inputs": [
        {
          "indexed": true,
          "internalType": "address",
          "name": "user",
          "type": "address"
        },
        {
          "indexed": true,
          "internalType": "address",
          "name": "newOwner",
          "type": "address"
        }
      ],
      "name": "OwnershipTransferred",
      "type": "event"
    },
    {
      "anonymous": false,
      "inputs": [
        {
          "indexed": true,
          "internalType": "address",
          "name": "from",
          "type": "address"
        },
        {
          "indexed": true,
          "internalType": "address",
          "name": "to",
          "type": "address"
        },
        {
          "indexed": true,
          "internalType": "uint256",
          "name": "id",
          "type": "uint256"
        }
      ],
      "name": "Transfer",
      "type": "event"
    },
    {
      "inputs": [
        {
          "internalType": "address",
          "name": "spender",
          "type": "address"
        },
        {
          "internalType": "uint256",
          "name": "id",
          "type": "uint256"
        }
      ],
      "name": "approve",
      "outputs": [],
      "stateMutability": "nonpayable",
      "type": "function"
    },
    {
      "inputs": [
        {
          "internalType": "address",
          "name": "owner",
          "type": "address"
        }
      ],
      "name": "balanceOf",
      "outputs": [
        {
          "internalType": "uint256",
          "name": "",
          "type": "uint256"
        }
      ],
      "stateMutability": "view",
      "type": "function"
    },
    {
      "inputs": [],
      "name": "curta",
      "outputs": [
        {
          "internalType": "address",
          "name": "",
          "type": "address"
        }
      ],
      "stateMutability": "view",
      "type": "function"
    },
    {
      "inputs": [
        {
          "internalType": "address",
          "name": "_to",
          "type": "address"
        }
      ],
      "name": "curtaMint",
      "outputs": [],
      "stateMutability": "nonpayable",
      "type": "function"
    },
    {
      "inputs": [],
      "name": "deployTimestamp",
      "outputs": [
        {
          "internalType": "uint256",
          "name": "",
          "type": "uint256"
        }
      ],
      "stateMutability": "view",
      "type": "function"
    },
    {
      "inputs": [
        {
          "internalType": "uint256",
          "name": "",
          "type": "uint256"
        }
      ],
      "name": "getApproved",
      "outputs": [
        {
          "internalType": "address",
          "name": "",
          "type": "address"
        }
      ],
      "stateMutability": "view",
      "type": "function"
    },
    {
      "inputs": [
        {
          "internalType": "address",
          "name": "",
          "type": "address"
        },
        {
          "internalType": "address",
          "name": "",
          "type": "address"
        }
      ],
      "name": "isApprovedForAll",
      "outputs": [
        {
          "internalType": "bool",
          "name": "",
          "type": "bool"
        }
      ],
      "stateMutability": "view",
      "type": "function"
    },
    {
      "inputs": [],
      "name": "issueLength",
      "outputs": [
        {
          "internalType": "uint256",
          "name": "",
          "type": "uint256"
        }
      ],
      "stateMutability": "view",
      "type": "function"
    },
    {
      "inputs": [],
      "name": "name",
      "outputs": [
        {
          "internalType": "string",
          "name": "",
          "type": "string"
        }
      ],
      "stateMutability": "view",
      "type": "function"
    },
    {
      "inputs": [],
      "name": "numClaimedByOwner",
      "outputs": [
        {
          "internalType": "uint256",
          "name": "",
          "type": "uint256"
        }
      ],
      "stateMutability": "view",
      "type": "function"
    },
    {
      "inputs": [],
      "name": "owner",
      "outputs": [
        {
          "internalType": "address",
          "name": "",
          "type": "address"
        }
      ],
      "stateMutability": "view",
      "type": "function"
    },
    {
      "inputs": [
        {
          "internalType": "address",
          "name": "_to",
          "type": "address"
        }
      ],
      "name": "ownerMint",
      "outputs": [],
      "stateMutability": "nonpayable",
      "type": "function"
    },
    {
      "inputs": [
        {
          "internalType": "uint256",
          "name": "id",
          "type": "uint256"
        }
      ],
      "name": "ownerOf",
      "outputs": [
        {
          "internalType": "address",
          "name": "owner",
          "type": "address"
        }
      ],
      "stateMutability": "view",
      "type": "function"
    },
    {
      "inputs": [
        {
          "internalType": "address",
          "name": "from",
          "type": "address"
        },
        {
          "internalType": "address",
          "name": "to",
          "type": "address"
        },
        {
          "internalType": "uint256",
          "name": "id",
          "type": "uint256"
        }
      ],
      "name": "safeTransferFrom",
      "outputs": [],
      "stateMutability": "nonpayable",
      "type": "function"
    },
    {
      "inputs": [
        {
          "internalType": "address",
          "name": "from",
          "type": "address"
        },
        {
          "internalType": "address",
          "name": "to",
          "type": "address"
        },
        {
          "internalType": "uint256",
          "name": "id",
          "type": "uint256"
        },
        {
          "internalType": "bytes",
          "name": "data",
          "type": "bytes"
        }
      ],
      "name": "safeTransferFrom",
      "outputs": [],
      "stateMutability": "nonpayable",
      "type": "function"
    },
    {
      "inputs": [
        {
          "internalType": "address",
          "name": "operator",
          "type": "address"
        },
        {
          "internalType": "bool",
          "name": "approved",
          "type": "bool"
        }
      ],
      "name": "setApprovalForAll",
      "outputs": [],
      "stateMutability": "nonpayable",
      "type": "function"
    },
    {
      "inputs": [
        {
          "internalType": "bytes4",
          "name": "interfaceId",
          "type": "bytes4"
        }
      ],
      "name": "supportsInterface",
      "outputs": [
        {
          "internalType": "bool",
          "name": "",
          "type": "bool"
        }
      ],
      "stateMutability": "view",
      "type": "function"
    },
    {
      "inputs": [],
      "name": "symbol",
      "outputs": [
        {
          "internalType": "string",
          "name": "",
          "type": "string"
        }
      ],
      "stateMutability": "view",
      "type": "function"
    },
    {
      "inputs": [
        {
          "internalType": "uint256",
          "name": "_tokenId",
          "type": "uint256"
        }
      ],
      "name": "tokenURI",
      "outputs": [
        {
          "internalType": "string",
          "name": "",
          "type": "string"
        }
      ],
      "stateMutability": "view",
      "type": "function"
    },
    {
      "inputs": [],
      "name": "totalSupply",
      "outputs": [
        {
          "internalType": "uint256",
          "name": "",
          "type": "uint256"
        }
      ],
      "stateMutability": "view",
      "type": "function"
    },
    {
      "inputs": [
        {
          "internalType": "address",
          "name": "from",
          "type": "address"
        },
        {
          "internalType": "address",
          "name": "to",
          "type": "address"
        },
        {
          "internalType": "uint256",
          "name": "id",
          "type": "uint256"
        }
      ],
      "name": "transferFrom",
      "outputs": [],
      "stateMutability": "nonpayable",
      "type": "function"
    },
    {
      "inputs": [
        {
          "internalType": "address",
          "name": "newOwner",
          "type": "address"
        }
      ],
      "name": "transferOwnership",
      "outputs": [],
      "stateMutability": "nonpayable",
      "type": "function"
    }
  ],
  "bytecode": {
    "object": "0x60e06040523480156200001157600080fd5b5060405162006529380380620065298339810160408190526200003491620002a1565b336040518060400160405280601081526020016f20baba3437b939b434b8102a37b5b2b760811b81525060405180604001604052806004815260200163082aaa8960e31b81525081600090816200008c919062000422565b5060016200009b828262000422565b5050600680546001600160a01b0319166001600160a01b0384169081179091556040519091506000907f8be0079c531659141344cd1fd0a4f28419497f9722a3daafe3b4186f6b6457e0908290a3506001600160a01b03831660805260a08290524260c052805160005b818110156200014d5762000144838281518110620001275762000127620004ee565b60200260200101518260016200013e919062000504565b6200015b565b60010162000105565b50600855506200052c915050565b6001600160a01b038216620001ab5760405162461bcd60e51b81526020600482015260116024820152701253959053125117d49150d25412515395607a1b60448201526064015b60405180910390fd5b6000818152600260205260409020546001600160a01b031615620002035760405162461bcd60e51b815260206004820152600e60248201526d1053149150511657d3525395115160921b6044820152606401620001a2565b6001600160a01b038216600081815260036020908152604080832080546001019055848352600290915280822080546001600160a01b0319168417905551839291907fddf252ad1be2c89b69c2b068fc378daa952ba7f163c4a11628f55a4df523b3ef908290a45050565b80516001600160a01b03811681146200028657600080fd5b919050565b634e487b7160e01b600052604160045260246000fd5b600080600060608486031215620002b757600080fd5b620002c2846200026e565b60208581015160408701519295509350906001600160401b0380821115620002e957600080fd5b818701915087601f830112620002fe57600080fd5b8151818111156200031357620003136200028b565b8060051b604051601f19603f830116810181811085821117156200033b576200033b6200028b565b60405291825284820192508381018501918a8311156200035a57600080fd5b938501935b82851015620003835762000373856200026e565b845293850193928501926200035f565b8096505050505050509250925092565b600181811c90821680620003a857607f821691505b602082108103620003c957634e487b7160e01b600052602260045260246000fd5b50919050565b601f8211156200041d57600081815260208120601f850160051c81016020861015620003f85750805b601f850160051c820191505b81811015620004195782815560010162000404565b5050505b505050565b81516001600160401b038111156200043e576200043e6200028b565b62000456816200044f845462000393565b84620003cf565b602080601f8311600181146200048e5760008415620004755750858301515b600019600386901b1c1916600185901b17855562000419565b600085815260208120601f198616915b82811015620004bf578886015182559484019460019091019084016200049e565b5085821015620004de5787850151600019600388901b60f8161c191681555b5050505050600190811b01905550565b634e487b7160e01b600052603260045260246000fd5b808201808211156200052657634e487b7160e01b600052601160045260246000fd5b92915050565b60805160a05160c051615fb16200057860003960008181610282015261064301526000818161032d01526106220152600081816102cf015281816109dc0152610fc70152615fb16000f3fe608060405234801561001057600080fd5b50600436106101825760003560e01c806370a08231116100d8578063a22cb4651161008c578063c87b56dd11610066578063c87b56dd14610362578063e985e9c514610375578063f2fde38b146103a357600080fd5b8063a22cb46514610315578063a7f98a3a14610328578063b88d4fde1461034f57600080fd5b80638da5cb5b116100bd5780638da5cb5b146102f157806395d89b41146103045780639762d8131461030c57600080fd5b806370a08231146102b75780637cc6bf98146102ca57600080fd5b80631e3bcc8e1161013a57806349edb4251161011457806349edb4251461026a578063607ad0d71461027d5780636352211e146102a457600080fd5b80631e3bcc8e1461023157806323b872dd1461024457806342842e0e1461025757600080fd5b8063081812fc1161016b578063081812fc146101c4578063095ea7b31461020557806318160ddd1461021a57600080fd5b806301ffc9a71461018757806306fdde03146101af575b600080fd5b61019a610195366004611544565b6103b6565b60405190151581526020015b60405180910390f35b6101b7610453565b6040516101a6919061158c565b6101ed6101d23660046115bf565b6004602052600090815260409020546001600160a01b031681565b6040516001600160a01b0390911681526020016101a6565b6102186102133660046115ef565b6104e1565b005b61022360085481565b6040519081526020016101a6565b61021861023f366004611619565b6105d5565b610218610252366004611634565b6106d9565b610218610265366004611634565b6108cc565b610218610278366004611619565b6109d1565b6102237f000000000000000000000000000000000000000000000000000000000000000081565b6101ed6102b23660046115bf565b610a4c565b6102236102c5366004611619565b610aa3565b6101ed7f000000000000000000000000000000000000000000000000000000000000000081565b6006546101ed906001600160a01b031681565b6101b7610b17565b61022360075481565b61021861032336600461167e565b610b24565b6102237f000000000000000000000000000000000000000000000000000000000000000081565b61021861035d3660046116b5565b610b90565b6101b76103703660046115bf565b610c85565b61019a610383366004611750565b600560209081526000928352604080842090915290825290205460ff1681565b6102186103b1366004611619565b6110ea565b60007f01ffc9a7000000000000000000000000000000000000000000000000000000006001600160e01b03198316148061041957507f80ac58cd000000000000000000000000000000000000000000000000000000006001600160e01b03198316145b8061044d57507f5b5e139f000000000000000000000000000000000000000000000000000000006001600160e01b03198316145b92915050565b6000805461046090611783565b80601f016020809104026020016040519081016040528092919081815260200182805461048c90611783565b80156104d95780601f106104ae576101008083540402835291602001916104d9565b820191906000526020600020905b8154815290600101906020018083116104bc57829003601f168201915b505050505081565b6000818152600260205260409020546001600160a01b03163381148061052a57506001600160a01b038116600090815260056020908152604080832033845290915290205460ff165b61056c5760405162461bcd60e51b815260206004820152600e60248201526d1393d517d055551213d49256915160921b60448201526064015b60405180910390fd5b600082815260046020526040808220805473ffffffffffffffffffffffffffffffffffffffff19166001600160a01b0387811691821790925591518593918516917f8c5be1e5ebec7d5bd14f71427d1e84f3dd0314c0f7b2291e5b200ac8c7c3b92591a4505050565b6006546001600160a01b0316331461061e5760405162461bcd60e51b815260206004820152600c60248201526b15539055551213d49256915160a21b6044820152606401610563565b60007f00000000000000000000000000000000000000000000000000000000000000007f0000000000000000000000000000000000000000000000000000000000000000420381610671576106716117bd565b60078054600181019091559190049150810360008190036106be576040517fc4dc60e000000000000000000000000000000000000000000000000000000000815260040160405180910390fd5b60088054600101908190556106d3848261118c565b50505050565b6000818152600260205260409020546001600160a01b038481169116146107425760405162461bcd60e51b815260206004820152600a60248201527f57524f4e475f46524f4d000000000000000000000000000000000000000000006044820152606401610563565b6001600160a01b0382166107985760405162461bcd60e51b815260206004820152601160248201527f494e56414c49445f524543495049454e540000000000000000000000000000006044820152606401610563565b336001600160a01b03841614806107d257506001600160a01b038316600090815260056020908152604080832033845290915290205460ff165b806107f357506000818152600460205260409020546001600160a01b031633145b6108305760405162461bcd60e51b815260206004820152600e60248201526d1393d517d055551213d49256915160921b6044820152606401610563565b6001600160a01b03808416600081815260036020908152604080832080546000190190559386168083528483208054600101905585835260028252848320805473ffffffffffffffffffffffffffffffffffffffff199081168317909155600490925284832080549092169091559251849392917fddf252ad1be2c89b69c2b068fc378daa952ba7f163c4a11628f55a4df523b3ef91a4505050565b6108d78383836106d9565b6001600160a01b0382163b15806109805750604051630a85bd0160e11b8082523360048301526001600160a01b03858116602484015260448301849052608060648401526000608484015290919084169063150b7a029060a4016020604051808303816000875af1158015610950573d6000803e3d6000fd5b505050506040513d601f19601f8201168201806040525081019061097491906117d3565b6001600160e01b031916145b6109cc5760405162461bcd60e51b815260206004820152601060248201527f554e534146455f524543495049454e54000000000000000000000000000000006044820152606401610563565b505050565b336001600160a01b037f00000000000000000000000000000000000000000000000000000000000000001614610a33576040517f82b4290000000000000000000000000000000000000000000000000000000000815260040160405180910390fd5b6008805460010190819055610a48828261118c565b5050565b6000818152600260205260409020546001600160a01b031680610a9e5760405162461bcd60e51b815260206004820152600a6024820152691393d517d3525395115160b21b6044820152606401610563565b919050565b60006001600160a01b038216610afb5760405162461bcd60e51b815260206004820152600c60248201527f5a45524f5f4144445245535300000000000000000000000000000000000000006044820152606401610563565b506001600160a01b031660009081526003602052604090205490565b6001805461046090611783565b3360008181526005602090815260408083206001600160a01b03871680855290835292819020805460ff191686151590811790915590519081529192917f17307eab39ab6107e8899845ad3d59bd9653f200f220920489ca2b5937696c31910160405180910390a35050565b610b9b8585856106d9565b6001600160a01b0384163b1580610c325750604051630a85bd0160e11b808252906001600160a01b0386169063150b7a0290610be39033908a908990899089906004016117f0565b6020604051808303816000875af1158015610c02573d6000803e3d6000fd5b505050506040513d601f19601f82011682018060405250810190610c2691906117d3565b6001600160e01b031916145b610c7e5760405162461bcd60e51b815260206004820152601060248201527f554e534146455f524543495049454e54000000000000000000000000000000006044820152606401610563565b5050505050565b6000818152600260205260409020546060906001600160a01b0316610cd95760405162461bcd60e51b815260206004820152600a6024820152691393d517d3525395115160b21b6044820152606401610563565b6000827f43757274612e417574686f7273686970546f6b656e0000000000000000000000604051602001610d17929190918252602082015260400190565b60408051601f19818403018152919052805160209091012090507f6351ceff00ffb300ff6b00b5000a007fff78503c323232fe7fff6c28a2ff007a6000600b830660180290508082901c62ffffff16818362ffffff16901b8262ffffff901b6000191862ffffff18841617179150600483901c9250600a8381610d9c57610d9c6117bd565b06601802905060188183901c62ffffff16901b81601884901c62ffffff16901b8262ffffff901b6000191865ffffff00000018841617179150600483901c925060098381610dec57610dec6117bd565b06601802905060308183901c62ffffff16901b81603084901c62ffffff16901b8262ffffff901b6000191868ffffff00000000000018841617179150600483901c925082600716601802905060488183901c62ffffff16901b81604884901c62ffffff16901b8262ffffff901b600019186bffffff00000000000000000018841617179150600383901c9250506110c2610e85856112bf565b610f9873740cbbf0116a82f64e83e1ae68c92544870b0c0f63b63e7046610eae61012c88611844565b6040805160808101825262ffffff808a16825260188a901c8116602083015260308a901c811692820192909252604889901c9091166060820152610ef7607860098b901c611844565b610f06600560118c901c611844565b6040518563ffffffff1660e01b8152600401610f259493929190611858565b600060405180830381865afa158015610f42573d6000803e3d6000fd5b505050506040513d6000823e601f3d908101601f19168201604052610f6a91908101906118c4565b610f7388611303565b604051602001610f8492919061198d565b6040516020818303038152906040526113cb565b6040517fe4ff676d000000000000000000000000000000000000000000000000000000008152600481018890527f00000000000000000000000000000000000000000000000000000000000000006001600160a01b03169063e4ff676d90602401602060405180830381865afa158015611016573d6000803e3d6000fd5b505050506040513d601f19601f8201168201806040525081019061103a9190615bc3565b611079576040518060400160405280600581526020017f66616c73650000000000000000000000000000000000000000000000000000008152506110b0565b6040518060400160405280600481526020017f74727565000000000000000000000000000000000000000000000000000000008152505b604051602001610f8493929190615be0565b6040516020016110d29190615d83565b60405160208183030381529060405292505050919050565b6006546001600160a01b031633146111335760405162461bcd60e51b815260206004820152600c60248201526b15539055551213d49256915160a21b6044820152606401610563565b6006805473ffffffffffffffffffffffffffffffffffffffff19166001600160a01b03831690811790915560405133907f8be0079c531659141344cd1fd0a4f28419497f9722a3daafe3b4186f6b6457e090600090a350565b6001600160a01b0382166111e25760405162461bcd60e51b815260206004820152601160248201527f494e56414c49445f524543495049454e540000000000000000000000000000006044820152606401610563565b6000818152600260205260409020546001600160a01b0316156112475760405162461bcd60e51b815260206004820152600e60248201527f414c52454144595f4d494e5445440000000000000000000000000000000000006044820152606401610563565b6001600160a01b0382166000818152600360209081526040808320805460010190558483526002909152808220805473ffffffffffffffffffffffffffffffffffffffff19168417905551839291907fddf252ad1be2c89b69c2b068fc378daa952ba7f163c4a11628f55a4df523b3ef908290a45050565b606060a06040510180604052602081039150506000815280825b600183039250600a81066030018353600a9004806112d95750819003601f19909101908152919050565b60606000611310836112bf565b9050600a831015611343578060405160200161132c9190615dc8565b604051602081830303815290604052915050919050565b606483101561135d578060405160200161132c9190615e0d565b6103e8831015611378578060405160200161132c9190615e52565b612710831015611393578060405160200161132c9190615e97565b620186a08310156113af578060405160200161132c9190615edc565b620f424083101561044d578060405160200161132c9190615f06565b606081516000036113ea57505060408051602081019091526000815290565b6000604051806060016040528060408152602001615f656040913990506000600260038551600261141b9190615f2f565b6114259190615f50565b901b90506000611436826020615f2f565b67ffffffffffffffff81111561144e5761144e6118ae565b6040519080825280601f01601f191660200182016040528015611478576020820181803683370190505b509050818152600183018586518101602084015b818310156114e65760039283018051603f601282901c811687015160f890811b8552600c83901c8216880151811b6001860152600683901c8216880151811b60028601529116860151901b9382019390935260040161148c565b60038951066001811461150057600281146115115761151d565b613d3d60f01b60011983015261151d565b603d60f81b6000198301525b509398975050505050505050565b6001600160e01b03198116811461154157600080fd5b50565b60006020828403121561155657600080fd5b81356115618161152b565b9392505050565b60005b8381101561158357818101518382015260200161156b565b50506000910152565b60208152600082518060208401526115ab816040850160208701611568565b601f01601f19169190910160400192915050565b6000602082840312156115d157600080fd5b5035919050565b80356001600160a01b0381168114610a9e57600080fd5b6000806040838503121561160257600080fd5b61160b836115d8565b946020939093013593505050565b60006020828403121561162b57600080fd5b611561826115d8565b60008060006060848603121561164957600080fd5b611652846115d8565b9250611660602085016115d8565b9150604084013590509250925092565b801515811461154157600080fd5b6000806040838503121561169157600080fd5b61169a836115d8565b915060208301356116aa81611670565b809150509250929050565b6000806000806000608086880312156116cd57600080fd5b6116d6866115d8565b94506116e4602087016115d8565b935060408601359250606086013567ffffffffffffffff8082111561170857600080fd5b818801915088601f83011261171c57600080fd5b81358181111561172b57600080fd5b89602082850101111561173d57600080fd5b9699959850939650602001949392505050565b6000806040838503121561176357600080fd5b61176c836115d8565b915061177a602084016115d8565b90509250929050565b600181811c9082168061179757607f821691505b6020821081036117b757634e487b7160e01b600052602260045260246000fd5b50919050565b634e487b7160e01b600052601260045260246000fd5b6000602082840312156117e557600080fd5b81516115618161152b565b60006001600160a01b03808816835280871660208401525084604083015260806060830152826080830152828460a0840137600060a0848401015260a0601f19601f85011683010190509695505050505050565b600082611853576118536117bd565b500690565b61ffff858116825260e082019060208084018760005b600481101561189057815162ffffff168352918301919083019060010161186e565b5050505080851660a084015280841660c08401525095945050505050565b634e487b7160e01b600052604160045260246000fd5b6000602082840312156118d657600080fd5b815167ffffffffffffffff808211156118ee57600080fd5b818401915084601f83011261190257600080fd5b815181811115611914576119146118ae565b604051601f8201601f19908116603f0116810190838211818310171561193c5761193c6118ae565b8160405282815287602084870101111561195557600080fd5b611966836020830160208801611568565b979650505050505050565b60008151611983818560208601611568565b9290920192915050565b7f3c7376672077696474683d2237353022206865696768743d223735302220786d81527f6c6e733d22687474703a2f2f7777772e77332e6f72672f323030302f7376672260208201527f2066696c6c3d226e6f6e65222076696577426f783d223020302037353020373560408201527f30223e3c7374796c653e2e617b66696c7465723a75726c2823632964726f702d60608201527f736861646f7728302030203270782023303037666666293b66696c6c3a23666660808201527f663b77696474683a3470787d2e627b66696c7465723a64726f702d736861646f60a08201527f7728302030202e3570782023303037666666293b66696c6c3a233030303b776960c08201527f6474683a3370787d2e637b6865696768743a313370787d2e647b68656967687460e08201527f3a3670787d2e657b6865696768743a3470787d2e667b6865696768743a3132706101008201527f787d2e677b6865696768743a3570787d2e687b6865696768743a3370787d2e696101208201527f7b77696474683a33323070783b6865696768743a36323070787d2e6a7b63783a6101408201527f33373570783b723a323070787d2e6b7b7374726f6b653a233237333033647d2e6101608201527f6c7b66696c6c3a233030307d2e6e7b66696c6c3a233064313031377d2e6f7b736101808201527f74726f6b652d77696474683a3270787d40666f6e742d666163657b666f6e742d6101a08201527f66616d696c793a2241223b7372633a75726c28646174613a666f6e742f776f666101c08201527f66323b636861727365743d7574662d383b6261736536342c643039474d6741426101e08201527f41414141414246494141384141414141496b77414142447641414541414141416102008201527f41414141414141414141414141414141414141414141414148494659426d41416102208201527f5041694243676d5859684549437039416d33634c516741424e67496b413049456102408201527f494157445441636744494578477a63664532344d505777634449797056386e2b6102608201527f367750625748705976775566444458704a4a4642736c547555476977555253666102808201527f6568582f652b62764e366d77756c4e45796348383772463050534849465136666102a08201527f72687368795377382f39536366392f4d4a49535a454e52435456464a316345726102c08201527f6e6c4b5633664356696a6c32326c42545733583366666b3773463174444f46706102e08201527f7a33756c536c664161624b6d6e463050346f4f326671323953523773666141536103008201527f4b3353565a6375537273537173326261306e6f49414369676b522b30525233616103208201527f755434493973503053564d472f6839743336776f77645063384d422f427247566103408201527f77664a74786641457a6177564e5555395858557975503834563732664a6b31546103608201527f7a6742515a685978433967656b554e687a35683161747a5a44536a2f2f3965736103808201527f3748302f6c5147754754346536586955616c52426f5036764144596b505177316103a08201527f61654c30414c4d6b6e575151464b4d69567273737a4c703163713366355841326103c08201527f4d62785448375a6c6d47397141683552474c5469332f6275583473414f746d596103e08201527f4b44313744797a474e5833632f4a6b6b6f414659466971676f4c6c636f4b774e6104008201527f2b38535a733262514a70792f3033396630495430376d59756d444758334f6b656104208201527f514b6874616c7a414a694846716d44485265706738356a3248744d6859586f496104408201527f516a612b61634d63486b4669575259633634646842484537345269796f4639596104608201527f5579624b476d79674c46504b675145336d5755307164496546477a2b6d7566536104808201527f79493065546f2f65626a645861456d4f4e766248644e444753725562575138676104a08201527f66796f5841446355704a444b77785a54516c6d6a48646c6a676b4939327249416104c08201527f6b48797357642b74697769494435586f72306c546d6a50496e32426c32786c4c6104e08201527f64632f3678414c7967787a6c49484947537035615249566c7a54637978734a616105008201527f4535514c736b4d74704d79374a707675506a556f324d57466977414354326d616105208201527f7065312f57426d326a6676774b624633794f79746e4b722f6b6d44652f6666536105408201527f484f4d6a4f335465677a64416d77775157474b41514b2b63426868304c4637686105608201527f2b644d776b77564f6a366134546649346e7439385674646733765866786675446105808201527f354c485a69534e3732744662567355633352307a657a744c536f6874695330736105a08201527f764d3669552f557633516d666c342f6f7451762f6a6833673441306f4f5763486105c08201527f5263344762744e4a7a6745486d6772753362455150456749693767576e66635a6105e08201527f4b67454f382b5a31584d556f4b744f3039546a70326c554f764a6a524f4550766106008201527f65546855332f74664c306264366a6f387630376c7748567663724c73733742766106208201527f4578544f4c496473565a515851504c4f67425a496341324a31323443466a76596106408201527f3642516151775578444568497a5451426a2f37784e424b676d4332354f31776d6106608201527f7a756b3844484978635270766539696861693644782b6551533247756b3847396106808201527f614e6f5071343668437545517a706e304472454135634e7836796273467963676106a08201527f445449714943543145477247504b5168574767337954767a2b625950524b69736106c08201527f316643336d77526951455569354a6172376c4d735a71495333564f55474567676106e08201527f30756c343750724830376766566d495739543946624e45434b62626670636f6e6107008201527f6b33795661476f2f41687262723950323234616738385a57374c4b41697455656107208201527f3734316b4b51585653424c5a6d436e4d59773054696f70424f795963723057646107408201527f75455334782f35464967734e7655483177655036774e524a7a32624e684a77546107608201527f6765716f5a5a37714d6e766e7255686e624149525841776b6b6a3776496859716107808201527f72563776456f6c4654516b73346875385242576f2f6b375846744d4b4e37482f6107a08201527f5751737a77623837376b6f4f6c464378655364674e4c7378596f344a383879776107c08201527f7742794c4c4c44454573757359495531574757644554746768454765456264736107e08201527f7630756d4276726148657348466833314b394c76774b622b52506f37706a74596108008201527f49434447526c3153367046536e3551477044516b705245706a556c70516b70546108208201527f557071526a6c314337527246796c704969385a324e38667a4f49594b793233366108408201527f74396b4171324131444778436d6d73427831693359732b4764653856627554596108608201527f636b62487078303268315849396a5464793862357430464a336a5632423371736108808201527f4b39394e5759553041754a51434537614e6759377634442b5070506e746c4a336108a08201527f5a507432594139714e6463314235422b515946394e426661774d4777414f52556108c08201527f593473666f724b306330324e69674537454a4d322b356535446266614b5230366108e08201527f6e79474c7734484939746e6267534f4148626a4476547331696e644f2b6732546109008201527f327637494e39427852413339474c68466a4a6a342b547852334c354f50396e706109208201527f38716c627075546c677879664f36643656442f457a4c465a6f595679443472796109408201527f2f4f563471556a425749344e68393078716264673534516f7a313231346c39566109608201527f5a78493832367862635962484763785858634971697a78684e6a656e4b4c41666109808201527f584869483442694435394759726f4336654136654861764a4d584972547362666109a08201527f6b7952457a724632356339323267656552556b7a545a4332554f4b73545666656109c08201527f43656270384a67617465596472474539496159373650706a67633058636363736109e08201527f4a6432387a6b5552746f62462b556b4832706b7039555a37356452337a654f55610a008201527f4335676177464c4f3369533175616b62736e586e722f376c4941634c735a6a4a610a208201527f2b7739394e65496f474d3536506549342b74354857796d72366f39634335774e610a408201527f4733482b6d3832463746352f6f307974794c76433674692b4856577634334564610a608201527f2f69666d473039545858747532622b31466565584f75717a66754a75496c786a610a808201527f5a2f6452622f354b624d56636576427337387a5167434e6f6e4845313242734f610aa08201527f7a654f6b7031474633494c7369394850497735585a4b66437a745455614e5950610ac08201527f4b305368664c51576732536e3563316f7941726f71576777457778704a4e4251610ae08201527f4a68676d517938617a67516a47676c557a41516c4d6e536a5569596f61795251610b008201527f4f524e55794e43444b706d677170464149356c676c417939615451546a476b6b610b208201527f3046676d474364446478725042424d61435453527963524a6e5879355579776d610b408201527f507772364372584e5330575945694c434a672b712f586d596d43726c595a7155610b608201527f5a30353379494d5a2f7677434d3656387a4a4c794d56764b78357a36425a6772610b808201527f4657436556494435556b4768425a324f2b32764b6d79366a653133594d636d6e610ba08201527f746871362b50556b5132634573537743515933634e5041777552576f546f4d6a610bc08201527f44526d4b346a4c3259454246417139696335555771625173796b4a6e6373484f610be08201527f67413664444674712b346951354341586e696c4f63376d637a685a7577355955610c008201527f3577784b4f42573437717161313862796c32432b304a65396b704c6c72305671610c208201527f586c323770792b37632b55466d43394475477863464c6877746b735462487135610c408201527f4c6c57475a754355575a4e534e756235367a3676687a6338646b6c5658502b4b610c608201527f31397a4d703247772b415765706b724b78436b42464e4d6d6e6b68532b6d4969610c808201527f426d627a7862735975332f35754e42373071635a696f474f4c6b347077564431610ca08201527f4b6a55414a3862326f2b667645374958306a502b55766d76432f397a54745456610cc08201527f68586c7258756e4c376c7a77675848304e5435655656644e6c41743055756d44610ce08201527f64545553786751777361374a69484c6264782b4e3959707a6e4b414d4e636376610d008201527f6e323872683834644f6359416a31574a68796644394457646163584273786562610d208201527f6a664b55776d666f51673869526c585a36664579347841613070763047656a5a610d408201527f676939484e6c2b56505a2b683561514a6f714e506a63566f624e41596e566361610d608201527f693964386f6939376c6d59387a356a386c4f4c6c6a5751306649725667566c66610d808201527f57744e6f5274566a3174574a44563752692f5579756762694c5351316c374e4f610da08201527f6278396d367163534a2b7433596c354a33344b786156496d53312b3838455859610dc08201527f3638436a586a5157356a516d756c4c4244436738527651786a76724d71356935610de08201527f707870326b64653078792f6245445a4e7967686a63324f2f5532453856483964610e008201527f58504f4e4d536a65734755686973655769653564647171685166504c536c3346610e208201527f343645577336345642792f43384c6f545858687274504f58505869387245614a610e408201527f767148753562304769793577685565434d3274655932334e78766e7a70386d31610e608201527f4f316255724e3276594f324b2f35344f477a7262757959356448447434336171610e808201527f793755694a336d4e397a506a43704d46624266372f49776f6c4251484e59414d610ea08201527f4d456932654f61783541662b53594b6b354674747934754e5870516853764253610ec08201527f6b2b4e77774b4836567169536e4e6e4a5769654b43447842455a6b4b52354250610ee08201527f7569637555516d6e46745a564d334944664a4868665032627a4b624845364578610f008201527f79566347794464577159786a445777526938413653644950747a423774695173610f208201527f574f7845634363694833586e716c513064464d544834536b524476435a4c7633610f408201527f7636704b7268726948424c5a464d4f432f68794439456c784464755369333542610f608201527f6b372b734669477067706e754e42524742643667534c6d665672626b76397759610f808201527f31306e5079457050554a345a5141325641454655544c534170706e6b702b3537610fa08201527f35483159536e4b4d6550694b616c6b5a314e74724e434e702f4e56754a773446610fc08201527f536c326851563552594b4258464f71514f72482f5432572b7347433343455664610fe08201527f764276695650545a5a756d797254344a4a4f6b3563356c59504c322b565567566110008201527f65632f764f545a6d393556653872314473706e3864436c632b36446f4f332b746110208201527f6334785153544335754a65456b5370493672472b486761563948354b356b464b6110408201527f51666a365644594b6a476e7339596e68536f6848666a726144513137626656496110608201527f495a557738704b4c612b7151454f6d4d736f42676430515569484a4842414f4c6110808201527f4d79717963305a495568674b734d5467304e44455941796753574578383034626110a08201527f3061424b6e7162535a6251613033693733426d736d4d5164477577566d3078546110c08201527f38644167695176375935463658364d39496778446d366a393875312b636264746110e08201527f4d365a4b784e4d4f6e38303361336c7361584776716c367876577069613670516111008201527f50577155636d4a305666324e394a333554322f443041713958392f4c694e6e306111208201527f4a5a4d5963794a4b36484d69475876573639376a5830775545596a74696352326111408201527f4c6f49516c5a362b314932575a524c3071766751632b383034707569482b52686111608201527f5850336e3137386d5576784d78756f59474966566c52677a75653041525972396111808201527f4e4c6347414432566c356a4741524f52336356777655443651364570306946746111a08201527f436a4a4f5a49794b5a4177505978366d62456a5950574758456c48692f5673336111c08201527f715074766b44344836432b7a46313541686730464858547943317144412b66316111e08201527f48376b42426a69474d2b66464d34704a684e654d63483870374b4854664851356112008201527f53426a49556c785447595a303142567171335146476d324b4f6965494e6971536112208201527f4d537238366a6e31757233376744642f53692b367377316e586d44516e6562716112408201527f6e665a4e69536b627733494f75434953534c64726e78496b66647533373973796112608201527f345a4e6d54796368776e5767583965776b4b736f452f707a364e36516b4c32686112808201527f7a74627035666844707438666c564439634d4c2f4f7a6437674e316c443751486112a08201527f3259507449665a516578674c763070514c65355a474c6378687165576c66756f6112c08201527f34414754747a41476d50716b653777422b435077377250357068442f344a702f6112e08201527f682b75302f372f334635354e4f4549656e786a4449354134774b58455238674e6113008201527f79705068376d77307146586962744964443653634d33594677554372414b56466113208201527f4e4a2b3549544e7655562f674f63434a2f6b5158744a5a79305667446f314e656113408201527f49653052592b755a6f44746149496f63614d2b386458464475334c42324175486113608201527f46463367425a7152486855705446652b413653466e4d2b7777535730345a436d6113808201527f374d696964586b2b314556504c6c454c592f6847516b6851596f35524a5330756113a08201527f305144556543776f55567a336435314b755779794e654f3733554930325552576113c08201527f704d4d6d314c78444f754576596f796c6f38576c56366c76384c7a703258414f6113e08201527f6231426b355a4f73656e616d483159445574687550797a505237712f4e6c2b756114008201527f4748766e4d5343454b69785a4b4c7773436c552b415736683955777863357a586114208201527f744767505a4b544e4c7859586d44467250782b55427a363470326f484d6c47386114408201527f514654385a484b42386c704536736835593239484c6350417a586e68305746796114608201527f2b385147487948584d306b4a6a33594362764a75646a755a634e626276726c366114808201527f6335793564626c3955613967557a61556e444832446d5a4a6c756f78424155716114a08201527f4430585270344c54317a4f41775856533953466d61395a334f77344d5a48304a6114c08201527f4e4c77376d4f4f494d666b63642b55657253714b574a706b766e51626f63524e6114e08201527f545476747a4d4c6679664b5362567a6f2b6f66746750394a6f6a43614e4750716115008201527f7464386d396d75306f577962725136326b696441427967697a65616f31366d556115208201527f346d62535a464435737a5878752b3273654e2b664e2f432b4f4e4452337a30516115408201527f53587531786163347a304250693057715854485169533233697952364c59747a6115608201527f4b4f4f2f434e47386332547237742f74416f594d2f5a30737942383052742f2f6115808201527f3462447430784e4f6a57597951637a734d5a545658346c6e69626e612f7539666115a08201527f773438664e674649704e4f794f4372706761654f494c6b4152435635446958656115c08201527f384558505751344f64456349474f3732306b616832534c6a7151764a44492f386115e08201527f517843702b49536b4746653352336e4842626a70745a714f686c724c736c784c6116008201527f42706d5a796b45344b32784978416741712b3147364a2b4b546c6e656a674e616116208201527f4a72576d37536d614e4675504a674f6c466f78744b62534c5741344f614578716116408201527f3139646c42777347506b485272585473304f305139726f753973332b654e695a6116608201527f642b64706a4656704b7a576a5a474f476861436a716b4b67427a3956557a454b6116808201527f5068686a586577537a61686e2f742f705339754855705a557153314d6258364e6116a08201527f434342305833476f2f4f755977507a2f6d6c6a314f38447a365239654162784d6116c08201527f4a6264472b3346666d613131422f785241424434346175454d68484e2b6a657a6116e08201527f73526245785a6b6538736e445178457064462f6b7668525a65334f50707a77596117008201527f3548733845682f7335505748493443624b64695a677732464c685379434767776117208201527f7671456967422b56642b5531663241304548595577686a6455634846334934716117408201527f325a67644e56707870714f4e2b58784962366546444b554873356a4e6b714c4a6117608201527f3158695a456b72764a70566b55736a4554522f465a376e6b36557a717568387a6117808201527f6d55415833753144302f33444b6378354a5435706d7a794a7553785566474a536117a08201527f3467686d4d34344a6c4c6d446d455669466f61617a686367483566455537695a6117c08201527f4c4b746b4869554d6f497a42683576474853796b7335326336384c636f566d716117e08201527f523377653158304c75755773503551524e55726a552b7234664362672b5265476118008201527f3853356b68346b7a474d63304a76587a79513772644b6f5a547970517875524d6118208201527f306b6850584e4a4d72634d71614669746b365143776f6b486e4f484f38504a6d6118408201527f6b56555650766d4b4d7650735a7679366e775261614852344f4b6c4837796d5a6118608201527f397661326349666d715054586930493157556d306e38336f666a4859453342466118808201527f4e32306d4776345367514d414a69616531436f396d31744a376242796e3665326118a08201527f764d5645316d61576377345430617259684f4c79626c3752583646483730574f6118c08201527f725a4d5736644363486336493961745057396d737547632f6270746f703264506118e08201527f4141413d297d3c2f7374796c653e3c646566733e3c72616469616c47726164696119008201527f656e742069643d2262223e3c73746f702073746f702d636f6c6f723d222330306119208201527f37464646222f3e3c73746f70206f66667365743d2231303025222073746f702d6119408201527f6f7061636974793d2230222f3e3c2f72616469616c4772616469656e743e3c666119608201527f696c7465722069643d2263223e3c6665476175737369616e426c7572207374646119808201527f446576696174696f6e3d22382220696e3d22536f7572636547726170686963226119a08201527f20726573756c743d226f66667365742d626c7572222f3e3c6665436f6d706f736119c08201527f697465206f70657261746f723d226f75742220696e3d22536f757263654772616119e08201527f706869632220696e323d226f66667365742d626c75722220726573756c743d22611a008201527f696e7665727365222f3e3c6665466c6f6f6420666c6f6f642d636f6c6f723d22611a208201527f233030374646462220666c6f6f642d6f7061636974793d222e39352220726573611a408201527f756c743d22636f6c6f72222f3e3c6665436f6d706f73697465206f7065726174611a608201527f6f723d22696e2220696e3d22636f6c6f722220696e323d22696e766572736522611a808201527f20726573756c743d22736861646f77222f3e3c6665436f6d706f736974652069611aa08201527f6e3d22736861646f772220696e323d22536f7572636547726170686963222f3e611ac08201527f3c6665436f6d706f73697465206f70657261746f723d2261746f702220696e3d611ae08201527f22736861646f772220696e323d22536f7572636547726170686963222f3e3c2f611b008201527f66696c7465723e3c6d61736b2069643d2261223e3c706174682066696c6c3d22611b208201527f233030302220643d224d302030683735307637353048307a222f3e3c72656374611b408201527f20636c6173733d22692220783d223231352220793d223635222072783d223230611b608201527f222066696c6c3d2223464646222f3e3c636972636c6520636c6173733d226a20611b808201527f6c222063793d223635222f3e3c636972636c6520636c6173733d226a206c2220611ba08201527f63793d22363835222f3e3c2f6d61736b3e3c2f646566733e3c70617468206669611bc08201527f6c6c3d22233130313331432220643d224d302030683735307637353048307a22611be08201527f2f3e3c7265637420636c6173733d2269206e2220783d223231352220793d2236611c008201527f3522206d61736b3d2275726c28236129222072783d223230222f3e3c63697263611c208201527f6c65206d61736b3d2275726c28236129222066696c6c3d2275726c2823622922611c408201527f2063783d22333735222063793d223338312220723d22313830222f3e3c636972611c608201527f636c6520636c6173733d226a206b206e222063793d22313235222f3e3c672074611c808201527f72616e73666f726d3d227472616e736c617465283335392031313029223e3c63611ca08201527f6972636c6520636c6173733d226e222063793d223136222063783d2231362220611cc08201527f723d223136222f3e3c7265637420636c6173733d226120632220783d22382220611ce08201527f793d2237222072783d2232222f3e3c7265637420636c6173733d226220662220611d008201527f783d22382e352220793d22372e35222072783d22312e35222f3e3c7265637420611d208201527f636c6173733d226120652220783d22382220793d223231222072783d2232222f611d408201527f3e3c7265637420636c6173733d226220682220783d22382e352220793d223231611d608201527f2e35222072783d22312e35222f3e3c7265637420636c6173733d226120642220611d808201527f783d2231342220793d2237222072783d2232222f3e3c7265637420636c617373611da08201527f3d226220672220783d2231342e352220793d22372e35222072783d22312e3522611dc08201527f2f3e3c7265637420636c6173733d226120652220783d2231342220793d223134611de08201527f222072783d2232222f3e3c7265637420636c6173733d226220682220783d2231611e008201527f342e352220793d2231342e35222072783d22312e35222f3e3c7265637420636c611e208201527f6173733d226120642220783d2231342220793d223139222072783d2232222f3e611e408201527f3c7265637420636c6173733d226220672220783d2231342e352220793d223139611e608201527f2e35222072783d22312e35222f3e3c7265637420636c6173733d226120632220611e808201527f783d2232302220793d223132222072783d2232222f3e3c7265637420636c6173611ea08201527f733d226220662220783d2232302e352220793d2231322e35222072783d22312e611ec08201527f35222f3e3c7265637420636c6173733d226120652220783d2232302220793d22611ee08201527f37222072783d2232222f3e3c7265637420636c6173733d226220682220783d22611f008201527f32302e352220793d22372e35222072783d22312e35222f3e3c2f673e3c706174611f208201527f6820643d224d3333382e383134203136382e383536632d2e33373320302d2e37611f408201527f31382d2e3036332d312e3033372d2e31393161322e38323920322e3832392030611f608201527f203020312d2e3837382d2e36303620322e38323820322e383238203020302031611f808201527f2d2e3630362d2e38373820322e37363720322e3736372030203020312d2e3139611fa08201527f332d312e303337762d2e33333663302d2e3337322e3036342d2e3732332e3139611fc08201527f322d312e3035332e3133382d2e3331392e33342d2e3631312e3630362d2e3837611fe08201527f3761322e353920322e3539203020302031202e3837382d2e353920322e3538206120008201527f322e353820302030203120312e3033382d2e32303868342e3236632e323435206120208201527f30202e34382e3033322e3730332e3039362e3231322e3035332e3432352e31346120408201527f332e3633382e32372e3232332e3131382e3431352e3235362e3537342e3431366120608201527f2e31362e31362e3330342e3334352e3433312e3535382e3034332e3036342e306120808201527f372e3133332e30382e323038612e3330312e3330312030203020312d2e3031366120a08201527f2e3039352e3334362e3334362030203020312d2e3137352e3235362e34322e346120c08201527f322030203020312d2e33322e3033322e3333332e3333332030203020312d2e326120e08201527f33392d2e31393220332e30313620332e3031362030203020302d2e3330332d2e6121008201527f33393920322e36313420322e3631342030203020302d2e3431352d2e333033206121208201527f312e39333520312e3933352030203020302d2e3436332d2e31393120312e35336121408201527f3620312e3533362030203020302d2e3439352d2e303438632d2e37313220302d6121608201527f312e34322d2e3030362d322e3132322d2e3031362d2e37313320302d312e34326121808201527f352e3030352d322e3133382e3031362d2e32363620302d2e35312e3034322d2e6121a08201527f3733342e3132372d2e3233342e3039362d2e3434322e32342d2e3632332e34336121c08201527f3161312e39383820312e3938382030203020302d2e34332e36323320312e39366121e08201527f3120312e3936312030203020302d2e3134342e3735762e33333561312e3834346122008201527f20312e383434203020302030202e35373420312e33353620312e38343420312e6122208201527f38343420302030203020312e3335362e35373468342e323631632e31372030206122408201527f2e33332d2e3031352e34382d2e30343761322e303220322e30322030203020306122608201527f202e3434362d2e313932632e3134392d2e3037342e3238322d2e3136352e33396122808201527f392d2e3237312e3130362d2e3130372e3230372d2e3232392e3330332d2e33366122a08201527f37612e3433382e343338203020302031202e3235352d2e313434632e3039362d6122c08201527f2e30312e3138372e30312e3237322e303634612e33352e3335203020302031206122e08201527f2e31362e32342e3330362e3330362030203020312d2e3033332e323720322e366123008201527f353320322e3635332030203020312d2e34332e353237632d2e31362e3133392d6123208201527f2e3334362e3236362d2e3535392e3338332d2e3231332e3131372d2e34322e316123408201527f39372d2e3632322e32342d2e3231332e3035332d2e3433362e30382d2e36372e6123608201527f3038682d342e3236325a6d31372e3535332030632d2e37313320302d312e33326123808201527f342d2e3236362d312e3833352d2e37393761322e363920322e363920302030206123a08201527f312d2e3736362d312e393331762d322e36363563302d2e3131372e3033372d2e6123c08201527f3231332e3131322d2e323837612e33372e3337203020302031202e32372d2e316123e08201527f3132632e3131382030202e3231342e3033372e3238382e313132612e33392e336124008201527f39203020302031202e3131322e32383776322e3636346330202e3533332e31386124208201527f2e39392e35343220312e33373361312e373120312e373120302030203020312e6124408201527f3239332e35353968332e383738632e35312030202e3934312d2e31383720312e6124608201527f3239322d2e35353961312e393320312e3933203020302030202e3534332d312e6124808201527f333732762d322e363635612e33392e3339203020302031202e3131312d2e32386124a08201527f372e3338392e333839203020302031202e3238382d2e3131322e33372e3337206124c08201527f3020302031202e3237312e3131322e33392e3339203020302031202e3131322e6124e08201527f32383776322e3636346330202e3735362d2e32353620312e342d2e37363620316125008201527f2e3933322d2e35312e3533312d312e3132382e3739372d312e3835312e3739376125208201527f682d332e3839345a6d32332e3832342d2e373138612e3435362e3435362030206125408201527f302031202e31362e313932632e30312e3034322e3031362e30392e3031362e316125608201527f3433612e34372e34372030203020312d2e3031362e3131322e3335352e3335356125808201527f2030203020312d2e3134332e3230382e3432332e3432332030203020312d2e326125a08201527f342e303633682d2e303438612e3134312e3134312030203020312d2e3036342d6125c08201527f2e303136632d2e303220302d2e3033372d2e3030352d2e3034372d2e303136616125e08201527f3130342e3836203130342e38362030203020312d312e31382d2e3833632d2e336126008201527f37342d2e3236352d2e3734362d2e3533312d312e3131382d2e3739372d2e30316126208201527f3120302d2e3031362d2e3030362d2e3031362d2e3031362d2e303120302d2e306126408201527f31362d2e3030352d2e3031362d2e3031362d2e303120302d2e3031362d2e30306126608201527f352d2e3031362d2e303136682d352e35353376312e333234612e33392e3339206126808201527f30203020312d2e3131322e3238382e3432352e3432352030203020312d2e32386126a08201527f372e3131312e33372e33372030203020312d2e3237322d2e3131312e3338392e6126c08201527f3338392030203020312d2e3131312d2e323838762d342e39343663302d2e30356126e08201527f342e3030352d2e3130372e3031362d2e3136612e3530322e35303220302030206127008201527f31202e3039352d2e3132382e3337342e333734203020302031202e3132382d2e6127208201527f30382e3331362e333136203020302031202e3134342d2e30333168362e3839336127408201527f632e3235362030202e34392e3034382e3730322e3134332e3232342e3038352e6127608201527f34322e3231382e35392e342e3138322e31382e33322e3337372e3431362e35396127808201527f2e3038352e3232332e3132372e3435372e3132372e373032762e3333356330206127a08201527f2e3232332d2e3033322e34332d2e3039352e36323261322e31303720322e31306127c08201527f372030203020312d2e33322e353237632d2e3133382e31382d2e3239322e33316127e08201527f392d2e3436322e3431352d2e31372e3130362d2e3336322e3138362d2e3537356128008201527f2e32346c2e3730322e3531632e3233342e31372e3436392e3334352e3730332e6128208201527f3532365a6d2d382e3238312d342e32323876322e34323568362e343934612e396128408201527f35342e393534203020302030202e342d2e30382e3737362e37373620302030206128608201527f30202e3333342d2e323233632e3130372d2e3130362e3138362d2e3231382e326128808201527f342d2e3333352e3035332d2e3132382e30382d2e3236362e30382d2e343135766128a08201527f2d2e3332612e3935342e3935342030203020302d2e30382d2e33393820312e326128c08201527f333220312e3233322030203020302d2e3232342d2e33353120312e32323820316128e08201527f2e3232382030203020302d2e33352d2e3232342e3935342e39353420302030206129008201527f302d2e342d2e3038682d362e3439345a6d32342e36372d2e373832632e3130366129208201527f2030202e3230322e3033372e3238372e313131612e33372e33372030203020316129408201527f202e3131322e3237322e33392e33392030203020312d2e3131322e3238372e346129608201527f32352e3432352030203020312d2e3238372e313132682d332e363476342e35376129808201527f39612e33372e33372030203020312d2e3131312e3237322e3334382e333438206129a08201527f30203020312d2e3237312e3132372e3339372e3339372030203020312d2e32386129c08201527f382d2e3132372e33372e33372030203020312d2e3131312d2e323732762d342e6129e08201527f353739682d332e363339612e33372e33372030203020312d2e3237312d2e3131612a008201527f312e33392e33392030203020312d2e3131322d2e3238372e33372e3337203020612a208201527f302031202e3131322d2e3237322e33372e3337203020302031202e3237312d2e612a408201527f31313168382e3035385a6d31352e3738322d2e303438632e373233203020312e612a608201527f33342e32363620312e38352e3739382e3531312e3533322e37363720312e3137612a808201527f2e37363720312e39313576322e3638612e33372e33372030203020312d2e3131612aa08201527f322e3237322e3339372e3339372030203020312d2e3238372e3132372e333438612ac08201527f2e3334382030203020312d2e3237322d2e3132372e3334382e33343820302030612ae08201527f20312d2e3132372d2e323732762d312e313936682d372e35333276312e313936612b008201527f612e3334382e3334382030203020312d2e3132382e3237322e3334382e333438612b208201527f2030203020312d2e3237312e3132372e3334382e3334382030203020312d2e32612b408201527f37312d2e3132372e3334382e3334382030203020312d2e3132382d2e32373276612b608201527f2d322e363863302d2e3734352e3235352d312e3338332e3736362d312e393135612b808201527f2e35312d2e35333220312e3132382d2e37393820312e3835312d2e3739386833612ba08201527f2e3839345a6d2d352e36393720332e34313568372e353438762d2e3730326330612bc08201527f2d2e3533322d2e3137362d2e3938342d2e3532372d312e3335372d2e3336322d612be08201527f2e3338332d2e3739322d2e3537342d312e3239322d2e353734483430382e3563612c008201527f2d2e353120302d2e3934322e3139312d312e3239332e35373461312e38373520612c208201527f312e3837352030203020302d2e35343220312e333537762e3730325a4d323937612c408201527f2e383938203230342e3568342e31366c312e3739322d352e31353268392e3430612c608201527f386c312e38323420352e31353268342e3434386c2d382e3730342d32332e3268612c808201527f2d342e3238386c2d382e36342032332e325a6d31302e3632342d31382e343936612ca08201527f20332e353220392e393532682d372e3030386c332e3438382d392e3935325a6d612cc08201527f32322e38312031382e34393668332e383037762d31372e323136682d332e3830612ce08201527f3876392e313834633020332e3130342d312e30323420352e3334342d332e3837612d008201527f3220352e333434732d332e3136382d322e3237322d332e3136382d342e363038612d208201527f762d392e3932682d332e3830387631302e383438633020342e30393620312e36612d408201527f363420362e37383420352e373620362e37383420322e333336203020342e3039612d608201527f362d2e39393220352e3038382d322e37383476322e3336385a6d372e3637382d612d808201527f31372e323136682d322e353676322e37353268322e353676392e393532633020612da08201527f332e35322e37333620342e35313220342e34313620342e35313268322e383136612dc08201527f762d322e393132682d312e333736632d312e36333220302d322e3034382d2e34612de08201527f31362d322e3034382d322e313736762d392e33373668332e343536762d322e37612e008201527f3532682d332e343536762d342e353434682d332e38303876342e3534345a6d31612e208201527f332e3137392d352e393834682d332e3830397632332e3268332e383038762d39612e408201527f2e31353263302d332e31303420312e3038382d352e33343420342d352e333434612e608201527f73332e32363420322e32373220332e32363420342e36303876392e3838386833612e808201527f2e383038762d31302e38313663302d342e3039362d312e3639362d362e373834612ea08201527f2d352e3835362d362e3738342d322e3420302d342e3232342e3939322d352e32612ec08201527f313620322e373834563138312e335a6d31362e38362031342e36323463302d33612ee08201527f2e39363820322e3134342d352e393220342e3534342d352e393220322e342030612f008201527f20342e35343420312e39353220342e35343420352e3932732d322e3134342035612f208201527f2e3838382d342e35343420352e383838632d322e3420302d342e3534342d312e612f408201527f39322d342e3534342d352e3838385a6d342e3534342d392e303234632d342e31612f608201527f393220302d382e343820322e3831362d382e343820392e303234203020362e32612f808201527f303820342e32383820382e39393220382e343820382e39393273382e34382d32612fa08201527f2e37383420382e34382d382e39393263302d362e3230382d342e3238382d392e612fc08201527f3032342d382e34382d392e3032345a6d32302e3035372e3431366131302e3332612fe08201527f2031302e33322030203020302d2e3939322d2e303634632d322e30382e3033326130008201527f2d332e37343420312e3138342d342e36373220332e313034762d332e303732686130208201527f2d332e373434563230342e3568332e383038762d392e30323463302d332e34356130408201527f3620312e3337362d342e34313620332e3737362d342e3431362e3537362030206130608201527f312e3138342e30333220312e3832342e303936762d332e38345a6d31342e36366130808201527f3520342e363732632d2e3730342d332e3435362d332e3737362d352e3038382d6130a08201527f372e3133362d352e3038382d332e37343420302d372e30303820312e3935322d6130c08201527f372e30303820342e393932203020332e31333620322e32373220342e343438206130e08201527f352e31383420352e3032346c322e3539322e35313263312e3639362e333220326131008201527f2e3937362e393620322e39373620322e333638732d312e34373220322e32342d6131208201527f332e34353620322e3234632d322e323420302d332e35322d312e3032342d332e6131408201527f3837322d322e373834682d332e373132632e34313620332e32363420332e32336131608201527f3220352e36363420372e34353620352e36363420332e393034203020372e32396131808201527f362d312e39383420372e3239362d352e35363820302d332e33362d322e3635366131a08201527f2d342e3434382d362e3134342d352e31326c2d322e3433322d2e3438632d312e6131c08201527f3437322d2e3238382d322e3330342d2e3839362d322e3330342d322e303438206131e08201527f302d312e31353220312e3533362d312e38383820332e322d312e38383820312e6132008201527f3932203020332e33362e36303820332e37373620322e31373668332e3538345a6132208201527f6d362e3238342d31302e363838682d332e3830387632332e3268332e383038766132408201527f2d392e31353263302d332e31303420312e3038382d352e33343420342d352e336132608201527f343473332e32363420322e32373220332e32363420342e36303876392e3838386132808201527f68332e383038762d31302e38313663302d342e3039362d312e3639362d362e376132a08201527f38342d352e3835362d362e3738342d322e3420302d342e3232342e3939322d356132c08201527f2e32313620322e373834563138312e335a6d31342e303736203076332e3834686132e08201527f332e383038762d332e3834682d332e3830385a6d3020352e393834563230342e6133008201527f3568332e383038762d31372e323136682d332e3830385a6d31302e37383120386133208201527f2e36303863302d332e39363820312e3935322d352e38383820342e3434382d356133408201527f2e38383820322e363536203020342e32353620322e32373220342e32353620356133608201527f2e383838203020332e3634382d312e3620352e39322d342e32353620352e39326133808201527f2d322e34393620302d342e3434382d312e3935322d342e3434382d352e39325a6133a08201527f6d2d332e3634382d382e363038563231302e3168332e383038762d372e3837326133c08201527f63312e30323420312e36393620322e38313620322e36383820352e313220322e6133e08201527f36383820342e313932203020372e3339322d332e34383820372e3339322d392e6134008201527f30323420302d352e3530342d332e322d382e3939322d372e3339322d382e39396134208201527f322d322e33303420302d342e3039362e3939322d352e313220322e363838762d6134408201527f322e333034682d332e3830385a222066696c6c3d2223463046364643222f3e3c6134608201527f7061746820636c6173733d226b22207374726f6b652d646173686f66667365746134808201527f3d223522207374726f6b652d6461736861727261793d2231302220643d224d326134a08201527f31352035343568333230222f3e3c67207472616e73666f726d3d227472616e736134c08201527f6c617465283233312032333729207363616c6528302e33383429223e000000006134e08201526000615bbb615ad4615ace615a336134fc860188611971565b7f3c2f673e3c7465787420666f6e742d66616d696c793d22412220783d2235302581527f2220793d22363035222066696c6c3d22234630463646432220666f6e742d736960208201527f7a653d2234302220646f6d696e616e742d626173656c696e653d2263656e747260408201527f616c2220746578742d616e63686f723d226d6964646c65223e230000000000006060820152607a0190565b85611971565b7f3c2f746578743e3c7265637420636c6173733d2269206b206f2220783d22323181527f352220793d22363522206d61736b3d2275726c28236129222072783d2232302260208201527f2f3e3c636972636c6520636c6173733d226a206b206f222063793d223635222060408201527f6d61736b3d2275726c28236129222f3e3c636972636c6520636c6173733d226a60608201527f206b206f222063793d2236383522206d61736b3d2275726c28236129222f3e3c60808201527f2f7376673e00000000000000000000000000000000000000000000000000000060a082015260a50190565b949350505050565b600060208284031215615bd557600080fd5b815161156181611670565b7f7b226e616d65223a22417574686f727368697020546f6b656e20230000000000815260008451615c1881601b850160208901611568565b7f222c226465736372697074696f6e223a225468697320746f6b656e20616c6c6f601b918401918201527f777320312070757a7a6c6520746f20626520616464656420746f204375727461603b8201527f2e204f6e636520697420686173206265656e20757365642c2069742063616e20605b8201527f6e65766572206265207573656420616761696e2e222c22696d6167655f646174607b8201527f61223a22646174613a696d6167652f7376672b786d6c3b6261736536342c0000609b8201528451615ced8160b9840160208901611568565b7f222c2261747472696275746573223a5b7b2274726169745f74797065223a225560b992909101918201527f736564222c2276616c7565223a0000000000000000000000000000000000000060d98201528351615d518160e6840160208801611568565b61196660e6828401017f7d5d7d0000000000000000000000000000000000000000000000000000000000815260030190565b7f646174613a6170706c69636174696f6e2f6a736f6e3b6261736536342c000000815260008251615dbb81601d850160208701611568565b91909101601d0192915050565b7f3030303030300000000000000000000000000000000000000000000000000000815260008251615e00816006850160208701611568565b9190910160060192915050565b7f3030303030000000000000000000000000000000000000000000000000000000815260008251615e45816005850160208701611568565b9190910160050192915050565b7f3030303000000000000000000000000000000000000000000000000000000000815260008251615e8a816004850160208701611568565b9190910160040192915050565b7f3030300000000000000000000000000000000000000000000000000000000000815260008251615ecf816003850160208701611568565b9190910160030192915050565b61030360f41b815260008251615ef9816002850160208701611568565b9190910160020192915050565b600360fc1b815260008251615f22816001850160208701611568565b9190910160010192915050565b8082018082111561044d57634e487b7160e01b600052601160045260246000fd5b600082615f5f57615f5f6117bd565b50049056fe4142434445464748494a4b4c4d4e4f505152535455565758595a6162636465666768696a6b6c6d6e6f707172737475767778797a303132333435363738392b2fa164736f6c6343000815000a",
    "linkReferences": {}
  },
  "methodIdentifiers": {
    "approve(address,uint256)": "095ea7b3",
    "balanceOf(address)": "70a08231",
    "curta()": "7cc6bf98",
    "curtaMint(address)": "49edb425",
    "deployTimestamp()": "607ad0d7",
    "getApproved(uint256)": "081812fc",
    "isApprovedForAll(address,address)": "e985e9c5",
    "issueLength()": "a7f98a3a",
    "name()": "06fdde03",
    "numClaimedByOwner()": "9762d813",
    "owner()": "8da5cb5b",
    "ownerMint(address)": "1e3bcc8e",
    "ownerOf(uint256)": "6352211e",
    "safeTransferFrom(address,address,uint256)": "42842e0e",
    "safeTransferFrom(address,address,uint256,bytes)": "b88d4fde",
    "setApprovalForAll(address,bool)": "a22cb465",
    "supportsInterface(bytes4)": "01ffc9a7",
    "symbol()": "95d89b41",
    "tokenURI(uint256)": "c87b56dd",
    "totalSupply()": "18160ddd",
    "transferFrom(address,address,uint256)": "23b872dd",
    "transferOwnership(address)": "f2fde38b"
  },
  "id": 58
}