{
  "abi": [
    {
      "inputs": [
        {
          "internalType": "address",
          "name": "deployer",
          "type": "address"
        },
        {
          "internalType": "uint256",
          "name": "nonce",
          "type": "uint256"
        }
      ],
      "name": "computeAddress",
      "outputs": [
        {
          "internalType": "address",
          "name": "",
          "type": "address"
        }
      ],
      "stateMutability": "pure",
      "type": "function"
    }
  ],
  "bytecode": {
    "object": "0x61039061003a600b82828239805160001a60731461002d57634e487b7160e01b600052600060045260246000fd5b30600052607381538281f3fe73000000000000000000000000000000000000000030146080604052600436106100355760003560e01c806336b5aa2d1461003a575b600080fd5b61004d61004836600461033e565b610076565b60405173ffffffffffffffffffffffffffffffffffffffff909116815260200160405180910390f35b6000816000036100e257604051606b60f91b6020820152602560fa1b60218201526bffffffffffffffffffffffff19606085901b166022820152600160ff1b60368201526100db906037015b6040516020818303038152906040528051906020012090565b9050610338565b607f821161015257604051606b60f91b6020820152602560fa1b60218201526bffffffffffffffffffffffff19606085901b16602282015260f883901b7fff000000000000000000000000000000000000000000000000000000000000001660368201526100db906037016100c2565b60ff82116101cc5760405160d760f81b6020820152602560fa1b60218201526bffffffffffffffffffffffff19606085901b166022820152608160f81b603682015260f883901b7fff000000000000000000000000000000000000000000000000000000000000001660378201526100db906038016100c2565b61ffff821161024757604051601b60fb1b6020820152602560fa1b60218201526bffffffffffffffffffffffff19606085901b166022820152604160f91b60368201527fffff00000000000000000000000000000000000000000000000000000000000060f084901b1660378201526100db906039016100c2565b62ffffff82116102c35760405160d960f81b6020820152602560fa1b60218201526bffffffffffffffffffffffff19606085901b166022820152608360f81b60368201527fffffff000000000000000000000000000000000000000000000000000000000060e884901b1660378201526100db90603a016100c2565b604051606d60f91b6020820152602560fa1b60218201526bffffffffffffffffffffffff19606085901b166022820152602160fa1b60368201527fffffffff0000000000000000000000000000000000000000000000000000000060e084901b16603782015261033590603b016100c2565b90505b92915050565b6000806040838503121561035157600080fd5b823573ffffffffffffffffffffffffffffffffffffffff8116811461037557600080fd5b94602093909301359350505056fea164736f6c6343000815000a",
    "linkReferences": {}
  },
  "methodIdentifiers": {
    "computeAddress(address,uint256)": "36b5aa2d"
  },
  "id": 82
}