{
  "abi": [
    {
      "inputs": [
        {
          "components": [
            {
              "internalType": "contract IPuzzle",
              "name": "puzzle",
              "type": "address"
            },
            {
              "internalType": "uint40",
              "name": "addedTimestamp",
              "type": "uint40"
            },
            {
              "internalType": "uint40",
              "name": "firstSolveTimestamp",
              "type": "uint40"
            }
          ],
          "internalType": "struct ICurta.PuzzleData",
          "name": "_puzzleData",
          "type": "tuple"
        },
        {
          "internalType": "uint256",
          "name": "_tokenId",
          "type": "uint256"
        },
        {
          "internalType": "address",
          "name": "_author",
          "type": "address"
        },
        {
          "internalType": "uint40",
          "name": "_solveTime",
          "type": "uint40"
        },
        {
          "internalType": "uint56",
          "name": "_solveMetadata",
          "type": "uint56"
        },
        {
          "internalType": "uint8",
          "name": "_phase",
          "type": "uint8"
        },
        {
          "internalType": "uint32",
          "name": "_solves",
          "type": "uint32"
        },
        {
          "internalType": "uint120",
          "name": "_colors",
          "type": "uint120"
        }
      ],
      "name": "render",
      "outputs": [
        {
          "internalType": "string",
          "name": "",
          "type": "string"
        }
      ],
      "stateMutability": "view",
      "type": "function"
    }
  ],
  "bytecode": {
    "object": "0x608060405234801561001057600080fd5b5061583480620000216000396000f3fe608060405234801561001057600080fd5b506004361061002b5760003560e01c80631fcc81ff14610030575b600080fd5b61004361003e366004611240565b610059565b6040516100509190611352565b60405180910390f35b60608089600001516001600160a01b03166306fdde036040518163ffffffff1660e01b8152600401600060405180830381865afa15801561009e573d6000803e3d6000fd5b505050506040513d6000823e601f3d908101601f191682016040526100c69190810190611385565b6100d360808b901c6104e0565b6100e58a6001600160a01b0316610524565b6100f18860ff166104e0565b610100630fffffff8b166105cd565b6101108c64ffffffffff166104e0565b61012b8f6fffffffffffffffffffffffffffffffff166104e0565b604051602001610141979695949392919061144e565b60408051601f198184030181529190529050606061016962ffffff604886901c166003610696565b61017d62ffffff601887901c166003610696565b61018d62ffffff87166003610696565b61019d62ffffff88166003610696565b6040516020016101b09493929190611677565b60408051601f198184030181529190529050806101d762ffffff606087901c166003610696565b6101eb62ffffff603088901c166003610696565b6101f48961071e565b6040516020016102079493929190614415565b60405160208183030381529060405290508061022660808c901c6104e0565b6040516020016102379291906145ca565b60408051601f198184030181529190529050600060ff604886901c81169061026c90605088901c811690605889901c166146d5565b61027691906146d5565b6effffffffffffffffffffffffffffff1690508161029d630fffffff60848d901c166105cd565b61017e83106102e1576040518060400160405280600581526020017f302c302c30000000000000000000000000000000000000000000000000000000815250610318565b6040518060400160405280600b81526020017f3235352c3235352c3235350000000000000000000000000000000000000000008152505b6103228b8f610819565b610335630fffffff601c8e901c166105cd565b610344630fffffff8e166105cd565b604051602001610359969594939291906146fd565b604051602081830303815290604052915050806103878b6fffffffffffffffffffffffffffffffff166104e0565b6103968763ffffffff166104e0565b61039f8b610dc9565b6040516020016103b29493929190614e42565b60405160208183030381529060405290506104b18b600001516001600160a01b03166306fdde036040518163ffffffff1660e01b8152600401600060405180830381865afa158015610408573d6000803e3d6000fd5b505050506040513d6000823e601f3d908101601f191682016040526104309190810190611385565b61044b8c6fffffffffffffffffffffffffffffffff166104e0565b6104668d6fffffffffffffffffffffffffffffffff166104e0565b61047360808f901c6104e0565b61049b86604051602001610487919061501d565b604051602081830303815290604052610f04565b8760405160200161048796959493929190615039565b6040516020016104c19190615204565b6040516020818303038152906040529250505098975050505050505050565b60606080604051019050602081016040526000815280600019835b928101926030600a8206018453600a9004806104fb575050819003601f19909101908152919050565b606061052f82611064565b6028602282019081209192507f4040404040404040404040404040404040404040404040404040404040404040917f888888888888888888888888888888888888888888888888888888888888888016601160f31b60005b82811a82028180015260018101906012190161058757505050818151166000511660011c8151188152602081019050818151166020511660011c81511881525050919050565b60607f3031323334353637383941424344454600000000000000000000000000000000601883901c600f166020811061060857610608615249565b1a60f81b60405160200161064491907fff0000000000000000000000000000000000000000000000000000000000000091909116815260010190565b60408051601f1981840301815291905261066f600161066962ffffff86166003610696565b90611088565b60405160200161068092919061525f565b6040516020818303038152906040529050919050565b6060601f1960428360011b01166040510190506020810160405260008152806f30313233343536373839616263646566600f528283018203600119855b600f811651948201946001860153600f8160041c1651855360081c8483036106d357801561070957632194895a6000526004601cfd5b505050819003601f1990910190815292915050565b606060f06004838103901b1661073861017f8290036104e0565b610741826104e0565b60028560ff16106107615760405180602001604052806000815250610798565b6040518060400160405280601981526020017f3c75736520687265663d2223732220783d222d313622202f3e000000000000008152505b60018660ff16106107b857604051806020016040528060008152506107ef565b6040518060400160405280601981526020017f3c75736520687265663d2223732220783d222d333222202f3e000000000000008152505b604051602001610802949392919061528e565b604051602081830303815290604052915050919050565b60606000828460405160200161085e92919091825260c81b7fffffffffffffff0000000000000000000000000000000000000000000000000016602082015260270190565b60408051601f198184030181528282528051602091820120610240840183527ffd29b65966772202ffdb08f653439b30c849f91409915665d99dbfa5e5dab93884527f850ce48e7291439b1e41d21fc3f75dddd97580a4ff94aa9ebdd2bcbd423ea1e8918401919091527f4f5e8ea8862eff315c110b682ee070b459ba8983a7575c9a9c4c25007039109d918301919091527ff2e92189cb6903b98d854cd74ece6c3fafdb2d3472828a950633fdaa52e0503260608301527fa33e6c7c5627ecabfd54c4d85f9bf04815fe89a91379fcf56ccd8177e086db2160808301527faa84b30df806b46f859a413cb036bc91466307aec5903fc4635c00a421f25d5c60a08301527f864a6ee98b9b21ac0291523750d637250405c24a6575e1f75cfbd7209a810ce660c08301527ffd60cd3811f002814944a7d36167b7c9436187a389f2ee476dc883e37dc76bd260e08301527fa8309447f8bd3b5e5e88a0abc05080b7682e4456c388b8636d45f5abb2ad25876101008301527f3be719b0c342797212c4cb33fde865ed9cbe486eb67176265bc0869b54dee9256101208301527fca0da6b6309ed2117508207d68a59a18ccaf54ba9aa329f4f60a77481fcf20276101408301527f5ccb29670bb9de0e3911d8e47bde627b0e3640e49c3d6a88d51ff699160dfbe16101608301527f3de8f27f386dab3dbab473f3cc16870a717fe5692b4f6a45003d175c559dfcba6101808301527f026736ef8439ebcf8e7b8006bf8cb7482ced84d71b900407a9ed63e1b7bfe2346101a08301527fc1806ea961848ac00c1f20aa0611529da522a7bd125a3036fe4641b07ee5c61c6101c08301527f87970b686eb726750ec792d49da173387a567764d691294d764e53439359c4366101e08301527faa6277ab923279cf59d78b9b5b7fb5089c90802c353489571fca3c138056fb1b6102008301527fdc1cecffc00e2f3196daaf53c27e53e6052a86dc875adb91607824d62469b2bf6102208301529150600090610b446012846154ba565b60128110610b5457610b54615249565b602002015160408051610190808252613220820190925291925060d291600191600091908160200160208202803683370190505090506001818481518110610b9e57610b9e615249565b602002602001019060ff16908160ff16815250505b8415610c6c576014808406908404600187811c168015610bdc5760148215150290950394610be9565b6013821415601402860195505b50600187168015610c005781151590950394610c0a565b6013831415860195505b5083838681518110610c1e57610c1e615249565b60200260200101805160010160ff16908160ff1681525060ff161115610c5e57828581518110610c5057610c50615249565b602002602001015160ff1693505b600287901c96505050610bb3565b60006040518060600160405280603d81526020016157ab603d9139905060005b610190811015610d995781610ca3601483066104e0565b610caf601484046104e0565b6f12883d1da628e31c0fe52e35dcf95d506001600160a01b031663730236ca8a89898881518110610ce257610ce2615249565b602002602001015160ff1660ff0281610cfd57610cfd6154a4565b046040518363ffffffff1660e01b8152600401610d2792919091825260ff16602082015260400190565b600060405180830381865afa158015610d44573d6000803e3d6000fd5b505050506040513d6000823e601f3d908101601f19168201604052610d6c9190810190611385565b604051602001610d7f94939291906154ce565b60408051601f198184030181529190529150600101610c8c565b5080604051602001610dab91906155b4565b60405160208183030381529060405296505050505050505b92915050565b6060620546008264ffffffffff161015610e73576000610deb610e10846155f5565b64ffffffffff1690506000603c610e04610e1086615619565b610e0e91906155f5565b64ffffffffff1690506000610e24603c86615619565b64ffffffffff169050610e36836110f6565b610e3f836110f6565b610e48836110f6565b604051602001610e5a9392919061563d565b6040516020818303038152906040529350505050919050565b62360d808264ffffffffff161015610eb057610ea0610e94610e10846155f5565b64ffffffffff166104e0565b6040516020016106809190615697565b6303c267008264ffffffffff161015610ee357610ed3610e9462015180846155f5565b60405160200161068091906156d8565b610ef4610e946301e13380846155f5565b6040516020016106809190615719565b60608151600003610f2357505060408051602081019091526000815290565b60006040518060600160405280604081526020016157e860409139905060006002600385516002610f54919061575a565b610f5e919061576d565b901b90506000610f6f82602061575a565b67ffffffffffffffff811115610f8757610f87611192565b6040519080825280601f01601f191660200182016040528015610fb1576020820181803683370190505b509050818152600183018586518101602084015b8183101561101f5760039283018051603f601282901c811687015160f890811b8552600c83901c8216880151811b6001860152600683901c8216880151811b60028601529116860151901b93820193909352600401610fc5565b600389510660018114611039576002811461104a57611056565b613d3d60f01b600119830152611056565b603d60f81b6000198301525b509398975050505050505050565b606061106f82611123565b8051613078825260020160011990910190815292915050565b6060825180156110ef5760206040510191506001840193506303ffffff8360051b6046011b600019825b81018681015160ff1683811c60201681188683015350806110b257505050604051915080825280602083010160008152601f19601f820116604052505b5092915050565b6060600a82101561111a5761110a826104e0565b6040516020016106809190615781565b610dc3826104e0565b60606040519050608081016040526f30313233343536373839616263646566600f526002810190506028815260208101600060288201528260601b925060005b808101820184821a600f81165160018301538060041c5182535050600181019060121901611163575050919050565b634e487b7160e01b600052604160045260246000fd5b6001600160a01b03811681146111bd57600080fd5b50565b803564ffffffffff811681146111d557600080fd5b919050565b80356111d5816111a8565b803566ffffffffffffff811681146111d557600080fd5b803560ff811681146111d557600080fd5b803563ffffffff811681146111d557600080fd5b80356effffffffffffffffffffffffffffff811681146111d557600080fd5b600080600080600080600080888a0361014081121561125e57600080fd5b606081121561126c57600080fd5b506040516060810181811067ffffffffffffffff8211171561129057611290611192565b604052893561129e816111a8565b81526112ac60208b016111c0565b60208201526112bd60408b016111c0565b60408201529750606089013596506112d760808a016111da565b95506112e560a08a016111c0565b94506112f360c08a016111e5565b935061130160e08a016111fc565b92506113106101008a0161120d565b915061131f6101208a01611221565b90509295985092959890939650565b60005b83811015611349578181015183820152602001611331565b50506000910152565b602081526000825180602084015261137181604085016020870161132e565b601f01601f19169190910160400192915050565b60006020828403121561139757600080fd5b815167ffffffffffffffff808211156113af57600080fd5b818401915084601f8301126113c357600080fd5b8151818111156113d5576113d5611192565b604051601f8201601f19908116603f011681019083821181831017156113fd576113fd611192565b8160405282815287602084870101111561141657600080fd5b61142783602083016020880161132e565b979650505050505050565b6000815161144481856020860161132e565b9290920192915050565b7f5b7b2274726169745f74797065223a2250757a7a6c65222c2276616c7565223a8152601160f91b602082015260008851611490816021850160208d0161132e565b7f227d2c7b2274726169745f74797065223a2250757a7a6c65204944222c2276616021918401918201527f6c7565223a000000000000000000000000000000000000000000000000000000604182015288516114f3816046840160208d0161132e565b7f7d2c7b2274726169745f74797065223a22417574686f72222c2276616c75652260469290910191820152611d1160f11b606682015261162c6116266115d76115d161158261157c611548606888018f611432565b7f227d2c7b2274726169745f74797065223a225068617365222c2276616c7565228152611d1160f11b602082015260220190565b8c611432565b7f227d2c7b2274726169745f74797065223a22536f6c766572222c2276616c756581527f223a220000000000000000000000000000000000000000000000000000000000602082015260230190565b89611432565b7f227d2c7b2274726169745f74797065223a22536f6c76652074696d65222c227681527f616c7565223a0000000000000000000000000000000000000000000000000000602082015260260190565b86611432565b7f7d2c7b2274726169745f74797065223a2252616e6b222c2276616c7565223a008152905061165e601f820185611432565b617d5d60f01b81526002019a9950505050505050505050565b7f3c73766720786d6c6e733d22687474703a2f2f7777772e77332e6f72672f323081527f30302f737667222077696474683d2235353022206865696768743d223535302260208201527f2076696577426f783d223020302035353020353530223e3c7374796c653e406660408201527f6f6e742d666163657b666f6e742d66616d696c793a413b7372633a75726c286460608201527f6174613a666f6e742f776f6666323b636861727365742d7574662d383b626173608082018190527f6536342c643039474d674142414141414142496f41424141414141414b4c414160a08301527f4142484a4141454141414141414141414141414141414141414141414141414160c08301527f41414141476a6f626b453463693241475944395456454655524143424842454960e08301527f437163636f42454c67525941415459434a414f434b41516742594e754279414d6101008301527f4278743349364f696d7655565a482b56774a4f6431796846307a6745355445786101208301527f43457159474a69697862626e775034645a336f6a4c494f6f396e75735a2f66526101408301527f4a38415167414943465a6d4b49705370714a52506a76557073736361304e45376101608301527f674731324b43706973634c49514a765868516c744e476c4d774172732f426d646101808301527f4b3566566832746c4a6a6d634a496679716567496a4b6146416b4c32786d7a756101a08301527f334735662b4c4b75634b305267536367714e62496e743035654137496479484c6101c08301527f516c4a35494c4b6b4149324c736d525559695468354438736742764e55696b676101e08301527f657054687676392f375674396c393237346f4e595772466f6f63314752454f6a6102008301527f6c486c6e357475384e52764d5a3157454a4e364934685a4651794761567574456102208301527f51766d683069714a534d69453167674e5834666d3630473456424b2b685653366102408301527f79505a5a4e4845544f7659662f36774938414d417853616952454b43714b6b526102608301527f5054316961456a4d4e5a64597a683243414b2b364b62582f6f43384e5a4f39636102808301527f544f61444c4150672f674e41626c394e35414d4b4342414778614634497848436102a08301527f62415a494f695a4f707266797641327376784859434e387846584967424f324a6102c08301527f674a426b4349714979637172614f75616259363535706c76675955575757794a6102e08301527f4658627768464373756b51353963674759385561616838386b6a4c35667835516103008301527f6c5a646b78554e626b4448494d512b2b71533744316e6e7946557168486c4e4d6103208301527f7653755a4b3166587152685568617036396152686e55794b7978544d774277736103408301527f77424b73774270737750626b45624a314845716c6e744b70523353724b3731366103608301527f523939344e3144567165654d446f37517272756b70537153485a67446d41767a6103808301527f764d2b76325a7a41516c67456932454a575a734e30617672524770466f3555636103a08301527f4a6949477837656947725a44776e77305968536b484c766948722b765778306a6103c08301527f6f4366434b534f79413448375030632b7230475862414e667a344772724d79796103e08301527f716d503377445757342b79376c345337363258315a63776a51426f4f494e58766104008301527f4d30314f4166376e7673525167302f72452b4130394f573846514a342b55754a6104208301527f7179717a6e6a6947756e5771696176302b4251636567496a523265356a32566f6104408301527f62777776636965356a393579466350436478584733626e6945436d516c592b476104608301527f306f6e4c716e453544533676376232675a346d6974513757684f4a48545978506104808301527f674d45574679624149554478384e4f386771495330694b53414449696f6742696104a08301527f4143414c63674479414649732b4258694979696b4b463459424a784e6765784d6104c08301527f30627763486a3579436f6b4a78304d51344b49433653454f456d7131384d76796104e08301527f793839486750385069646e707567514e53646d6a6146792b474a634d536c66346105008301527f4168356f5845746b7345447658676f76456477424967744542766942597241346105208301527f7650794377714c696b6b436b56617873744262647237614341463277423236546105408301527f76355a64437a776848747165356e47696b4e6a5553656368324236554f42414f6105608301527f3162445377736976514a736f466a4a5769636d6e33364d694a614676765768466105808301527f6571793537485567455570684556736a4d474a444746585245574f78456f666a6105a08301527f50436c695852524233575330482b41566c63583347547943306e3066775747586105c08301527f357673454e724e6b33776577574358355873466b4650653967444661315063496105e08301527f656b546e65774c564b2f6e71614257396273576a4c49476734747444316a456b6106008301527f446759537553616765314f5045416e6e3246377a6d576f56306441344d5350696106208301527f733250356b4345434a6b31386e6e67434d542b427653592b5836494a793264676106408301527f4a346b767344594b624b2f41686f676e7445302f51626b476c6b64386b6656396106608301527f514e4a6d734544696936332f48725136324a4259346b56776d573064714e6f726106808301527f66746564544c4e492f394a777138453853456e57727067466474657159444a396106a08301527f584732654a554e6354423673752b4a58314c66515a7148696c476b7a596431566106c08301527f62346b53427942434667413046634232694142493058342f786274442b4a31556106e08301527f454e2b5a6f50464f2b594a49434e4979387a346a2b724c4d3277674e7a4c6b6c6107008301527f57697774657a322b4148492b396747456379334d4b37654a42425a4b5746444f6107208301527f454d57384f4a364578646a646b485a375a6b5659696c2f4d744267735330356c6107408301527f6970356e6f7954627470575652517247784a354a6954475a745542697348654d6107608301527f625943766f35502b5a4c302f6b324a32414d5541416878772b32452f4b717a546107808301527f646d7478354638676744394d47774879426f44466f59487a6b39514f426549676107a08301527f39523364767836646a4a41444c742f6831796b776841487041566c766759587a6107c08301527f726b49653448356c694a69577a394d6b336c3744485542526d425a554d7a4c506107e08301527f664b75524d48424569794f514a45566d2f63504759477979444e6d515344492b6108008301527f462f586275337055543271396c673062314b39486c773774576b4934436e43526108208301527f2b716476736834656e666b615947364763786a7742654162414942616c2b364c6108408301527f5458637278654b4569756e4369387a532b3175584f6a59486f53793445584e756108608301527f586b54724c556c4a6f785632624a4448364d736a4d527332473874766c7361736108808301527f6f6a54326f63563174327949516c50774d744943436670574b39575a4f3447746108a08301527f773075367339685453373147353854686a6c616b437a56424d2b596a53634d366108c08301527f6e70567743664d3837487748482b746159437567456f3436696d42534b61327a6108e08301527f5664634b4b32645864716b78762b6641545070313138544d2b367a4c6a6c38646109008301527f3971692f6e46552b375a333375723758775a3439564a4b49447872446f4c746e6109208301527f72566e4a716a437479427a554f525376716c437775576d51345a467a566b6a756109408301527f522b334c656e45354f67727750397a3179644877433066447552444e536c34536109608301527f753273774d304d394c5a7536715047766246574c4a7451587a74536d585756736109808301527f424d4d774943654f726b6d7373757851533546757959527968457034454e61326109a08301527f666767566973535338684b7a362b5646706e7a655566376e4b706131364f36506109c08301527f775353705933725042366c6b59646d44326569466c356664443555483763766c6109e08301527f5546735853714144567255476264307146656d664a5a643234595a587a504f4a610a008301527f4c695270342b416b455054456d426c44446875786273576e53797a7371574c36610a208301527f716875766562763455447952346b745547715365776771734a41387a7a4d2b30610a408301527f333453514c45364a516e464832574d534657582f566a6d335363726575534649610a608301527f636a52737a4e2b4b6e4851683131585a41793765707a45663343794964735053610a808301527f46324844326f335a5975656c4b71696b67364b7a534879563634394a6e643466610aa08301527f63326943675342756371664c6732494f35524c667574704b7573676d44786170610ac08301527f713548537044352b6c6138324b7768567974357335757753362f31724e6f4274610ae08301527f674f43497a54386b62535933364b714a4b63676f756c664e4c46546259506f4e610b008301527f62764b676267393650623271506a4837303735382b6d53313374624859695631610b208301527f472b2f4341396d5238435432684b4956694f394b77595671396f46596b4f6e76610b408301527f623557566943436c59516577594148634148483659585034496a6b2b5a483132610b608301527f4e2f4b6d3741694a3146484259396d645075736c38703949647350364d4d4373610b808301527f4d77782f7a42386c3435427571587431383436536f4164445a74366e6f546c63610ba08301527f6c3777414f6c337268724b534e3959615476584c524e2f657569574a62335970610bc08301527f4230765a3474626e5734716c534272616e49616a4174535456687841712f6864610be08301527f6d4e2b464b6c4d464f476c71414656616471455954617144765a45396e415155610c008301527f594f37715654533861386d4f6d4f6e6c7365513378346b6454382b3931644864610c208301527f2b7475322f74554a323971546332325a4955454e6737536b56696c425a4f7632610c408301527f77494c67744b4857675454497450564c6c517568312b53792b717a4368784644610c608301527f3966686e7278727730446355326d4f524678465969516c4b51577975722f6833610c808301527f37364278334c4c733849395031377839766c794e64314a365844666979636f75610ca08301527f4e4f517441516f4f57793539666e584344662f36314a34766d586a4c71366f64610cc08301527f74666176587458614b6253646434615467414971486e4148544951346f666b4a610ce08301527f584d4f4341716b6d546167344b6e66337077327638644d44566f654f44467036610d008301527f544c333559336d71596a71434e737a6a30515a6e51697470494834536b745161610d208301527f6e6b65586e476b7569426764354a7933455569567941786a6653317378424f4b610d408301527f73334b4b32354b554347527a2f63726c505a4c6876594a62316f75702f464f74610d608301527f794e424c306e4b702f446c3352556c657437392f4c5831526869545032734351610d808301527f73534768637932394172657a367a6e7753576c52645857513851644749745558610da08301527f5a6b736e677a6b3579334a2f6477494b32422b78797a48437951413167365265610dc08301527f496656655979506c566b3947536b5a764e766c4f6252336c666c386532476d6f610de08301527f50534f737a7a4d2f76466e67626a742b752b5a33384d473941703254676c6566610e008301527f367941716f4b386a4c466f7748427336416477724a597839302b78555971354a610e208301527f574941386e717972586a78336445736361486b5546635543437068694732337a610e408301527f487a624e394c77704c6b437358597874612b2b61714931736f74446151637354610e608301527f4141577867414b777a564e373448566b6766583237514c4879412f7567554e59610e808301527f423736726d646c66516e70555655313633462b616d5431516975447171765276610ea08301527f7259455357414e786941434d59644870756949316232535258785254326f7a56610ec08301527f515174715a4a5a43514647736c2f61467251464a747253454667623467547562610ee08301527f6d71776b6872746864766b5544454464304733397248576c674e63616c794931610f008301527f3561506159374c7a4f324949376d78364446624d37726270705a7377444e5564610f208301527f35785553563254746e6f446e785a4c4d574243486941305936377a582f5a504e610f408301527f543076795256597578725931644938586b427239497475677a63316269435651610f608301527f46516e594c4553347434612f476b5872716b59655671634d673755707939644c610f808301527f5854504b714a3436485170445479304c48386a384e566e395a713539586b6261610fa08301527f4242786e394c2f642f626e6e4a68454965363547667676366c6646747a7a5543610fc08301527f61632f4e79423966376466765a695a38357669736a75547576354d4a50506a4d610fe08301527f396c7364416264304142516b6758697a3946314c32752f7473435239644958446110008301527f4c653332614b517a41697061665a69635a67716c4f595a7861466264767650556110208301527f57567a72684e524555734364327a4a48393064795a59563234454253755537346110408301527f2f344345324551366b734c4b48505349346f2f365270524445495179716c65496110608301527f42597471697a743776454a4b4942443843586b314f794c44757a3059516845366110808301527f5233523848394b743464675a73355a425241644d6e48347871493235707670556110a08301527f42505a50484a536c74554a646c72346450657a72514a504f2f393259765a5a526110c08301527f57566446433046734b427851414c6a374b7365646d6c596b7845616a4a624f506110e08301527f64465879526c6d4d575569414a4e62384a4463684247613332525073784263306111008301527f42757753484e576b3764335042517258744b65474c592b63576e5032586742486111208301527f76456f44794c50765053345567714b456f503243696b486a7967476a356d58786111408301527f4c514d38355a534a717149726a785041586459696f4433373846622b677472346111608301527f73416b6367424f72654a2f6c7579613838526a5750416941467a6b374773556a6111808301527f5637704578546e5741416c694766506a4f7746686c37704839704e64674157346111a08301527f32484550676631396c5875426a5165524d4168354364634f317156746b7533556111c08301527f4f7667624271467a397074747a62456a4e6a567a333771474476397530354a4e6111e08301527f323752656c336774662b675130722f786a6d72534b43477346734b41775777616112008301527f6f2f50343433526d457a41674c4b786d6a436a684d52686535304d74685541496112208301527f4942665665305977476a784a52524141675a5353426c2f415856647041437a376112408301527f337350434c415751694f2b366f4b72667548725171486c5a59764d6f547a6c6a6112608301527f6f71626f79704d457235574e7a446e7363534a447872422b664d58565a2b57756112808301527f616478454e484f4f443345376b35456452504d647134455177357764713952396112a08301527f57314367454c4c345747484d354a6c35344262514c324c61453747487235734b6112c08301527f79415a757a794d4e7658613532423141793561512f46774967614436414347426112e08301527f42626b514a4f334d596a714b4c6e683263586b5144486b6b44365430546b7a326113008301527f4253566930765066647653662f444e7849786b305376664a3037416a74427a4b6113208301527f344d6d466e634b5a78636e775039444f324a797036666e734f596a3252456d4d6113408301527f766c46612b496948704a584655494a62454e4e6c4b392b585449326c2b4877616113608301527f2f487a77774f486e522b76385841754b38364b393567725258382b4473567a466113808301527f65662b55526768485968506461634770586f354f475634784b58745341754a336113a08301527f4f4f416950536c2b43567578337941387466346f4a54746e4c7957324d69416b6113c08301527f4e353072677936577153706852325130584b49416166456b374a2f617950586f6113e08301527f6b376878746e62786b326a7778336434304a484c50304a506142534a2b4f47546114008301527f754d4d6e4f4a586852306a6e684e7445476377394e6e4c6139767138677671666114208301527f6c6e4b426e52392f4f6f5454477931496d6a7a444141653530436c63705a42386114408301527f746e6d5045486d2f74486e2b7a64364e3558382f4d58456536666e6a445769446114608301527f48534e45426d38386d4e584e6a552b614f4d75714f42615578665831546d63486114808301527f4f5961624f7669704933616b3861424a2f52495854543466656b6e394551394d6114a08301527f355371756b6a4b72676a6a4e6a51493546416554564f5a50457851643842566d6114c08301527f7266767969326a2b4b5756734443707877363547566c424731575653325736336114e08301527f45473072764f462f71665141783342646e496570617a777834725966323876526115008301527f67655644494558364f446779764f4947726153646e634a565a7050504e7530576115208301527f49752b2f626c35357357396a32643950444e79326a4e794a656b6d6a512f31456115408301527f4e6e38386d4e6e4e54556959504d736f502b59595959346a576e736d633050776115608301527f4564613252416e453967643832487343426638456f6f446b63336a57426c6e726115808301527f772f766e59344331447238766644664a4b38715754587943437636666a466a466115a08301527f47746178675531735952733732435556537750577349457437474358636933316115c08301527f3234417173495a316247415457396a477a6f6875546743452f6f3958666543646115e08301527f2f7876547376324277502b546a6450655943436b33306a5634502b644b5149396116008301527f47534670337165505155682f61775549316c46634641484c4c5875585441486c6116208301527f474f674730447666325a2b6e35557a43534e4166497947504e33624f65462f396116408301527f5056496352555068534f6836744b5663474d6d4b736265764e38344d4573752b6116608301527f4c6868316635394a6b616a66426b397050674d6e782f65334d39412b523348556116808301527f5a737374657866624467566a467742393977546f764c4e392f437335517337356116a08301527f573064354351432b2b627837485942766a354b756672762f573667534b7732416116c08301527f525145512f43386c75504234784f4c7a357834413458697936356343593876306116e08301527f46625a4e546a36667a54795a7673504a63547151684a4270637a7835697354786117008301527f6e617978575071347a317137613232636b5a356830516b4e31385a5a4c2f37776117208301527f6f356b3330383661426d2b743431566a6b3346364d6c54313478665950576c366117408301527f504b5a496d5a5139764e2f3169326d5457686f5a64437366685a504f597253756117608301527f623239614f5a6a42676a4d644f64334677447535762b576551536962686435466117808301527f2f6e72776a49727a6769444165727449753043696847646f4575427a6c79684a6117a08301527f53594237414f736d387536354b5546763362537044366f613432366d325835326117c08301527f746552444b78314344767a68436a634d623368586b6339336d51686c346144786117e08301527f49424176513649595561496c307a4131446b725a7a685a7773712f446c34776a6118008301527f3065357571305143735468595447575a6c4d69692f364d566d3052444f344e676118208301527f6478387669614f526b654e69526e656667736e4d59514938356c42346b6842306118408301527f4d6e4e3177316d5548546a6d323437685469414f477756486c42527847424a5a6118608301527f477871626d47654237616a3855446c4a2b55324a767a6a6a746d4d4938476d516118808301527f704f3954626d72734946735459374d645a6546514e684b674b356c4d315354796118a08301527f536d53456954724f3658384c6e306e354c7634566a36774741413d3d297d40666118c08301527f6f6e742d666163657b666f6e742d66616d696c793a423b7372633a75726c28646118e08301526119008201527f6536342c643039474d67414241414141414168514142414141414141443467416119208201527f41416632414145414141414141414141414141414141414141414141414141416119408201527f414141414768596268436f6355415a6750314e555156524941485152434171506119608201527f5149783043793441415459434a414e59424341466731594849417748472f594d6119808201527f555a52523068686b50784e4d6c6245626f5567712b6642493070456b564d77746119a08201527f527363386b547150766f622f4758364e6f483773742f652b61484c4d457958536119c08201527f61486a49357455376f56454a526177306d6b326e42486a2f50323736393455496119e08201527f4a46436f48647135306f6b3670614a5552454c566d64474f5554576d78745444611a008201527f58506e397a50786f6d34676c4d7645724d4a5734616c70527537395a58773655611a208201527f744652482f7750347776362f74565a33303133634159396e4354776b48684643611a408201527f496c504b6e7850374a33506f444b704a784c74474f71474979476e4473695a49611a608201527f42554968744d68546d7156684a74794d476564553945302b5251424e41424945611a808201527f735959676f4736414d6243464265737a6f3235375938366f634d427678624174611aa08201527f5038675a426242454f4579446f5131446f59774571335a456a4d646257325373611ac08201527f6f51774c4c3955684e704757426377636c35445064533148726e475239567263611ae08201527f52446250727547614156344a5741626d457165565371375a4d485842316e6578611b008201527f306862513751494d476f494252535268352b3059444958417738636e49704953611b208201527f4848495467796a6f45447938422f4a6b676b52564d6a507a54306e653362674d611b408201527f544754357044775559384d57677545547769756a6b426f424b6e4f6b46766851611b608201527f6d734b6e6d746561454157595744355a342b48437065584e69616c6835564e76611b808201527f2b62746a7a68476d466842336744492b59494951436c6b4f4f6b71614f656773611ba08201527f49455257444843306e524e4b55697530456543416b434931534f2b4145346970611bc08201527f49504956594f70416b434769614a7758536a37706673353159764e4553754470611be08201527f6b775641633252787059524176394e745636394f74537156644c51686d436d67611c008201527f6e4250446e6a7039487067416152475977674e3469304c456a6d364d43412f79611c208201527f496d356c2f644763485435756b4b56555572554d786f55556a765a424e377073611c408201527f7363477470507854712f443462466e3646687845467a36356732586566636f55611c608201527f33555a46775841585036474c6e39336a5a64312f4c697036616a517972506779611c808201527f3843366b33336c435779447843422f4b304f677354474b54684d6d734c757734611ca08201527f704275527a4a63626a524b6f4a7a3637355368794d384961523864627a346a64611cc08201527f663835626e68726c5959565432426e4430474d5a51686e47766e574f6a774b6d611ce08201527f61444f49704247396e654d6339546971344c42774847653945384d794f4c4e4e611d008201527f59496c6b634f477457364e6f3845792f36304f36373779336162755456506a73611d208201527f6e68397171594e784a454d7753584f355933792f41385a50474e507a4c6f4156611d408201527f73737a496730354e4b584f466e4d4e4f444d736b4a526647536b644235304175611d608201527f7849564a454d585369597342346e684645707445732f32467745534f386b7637611d808201527f53347850437a4971426e4a4c70335a3262704f777537423255613357474b775a611da08201527f5452716a3031316a386f787a4970504868613861434a706758554343584a6d6b611dc08201527f5174724f5375554e6e426c484c4c57766f336b30783967394e436b6b307a5074611de08201527f7a7962537961496b686732613845454b497939554b435a636c4d6a684f6c6241611e008201527f384d7476596e4661344d734f4479534b3843732b4a2f32376258426f72546238611e208201527f3045542f67794d4f62512b6a36534d514f2b6a506f656c66614a317430506675611e408201527f756f3366376e64496e4c655335662f653370343344774159755255412f723862611e608201527f76304a446764336d73585562752b2f5a73314871554e556c657a4b6b345a796e611e808201527f7933615764643133337264704e31414452707973364a31563061633372774c6b611ea08201527f7557425a2f712f355950344652655157355a6f567365797950466e7031596b72611ec08201527f625534743370306164317264314d4573715451396d46577939772f5444494b59611ee08201527f664d324e52636d6c543932796d694c396f39494f72417a702b5776682f2f4f6b611f008201527f2f363532484952707061664f6a4333652f516e587774622b472f344c4c377168611f208201527f7951356f3648532f4d5370595647537074316f31636a4a2f5530313966657578611f408201527f6a595057506c343574656963726d744737424a44763930684358663366545a64611f608201527f45305a46524231593658327a3242436d375053363839533352365a4e73735536611f808201527f56365a716e466567433774584264387059507073552b366d306973314a775966611fa08201527f622f54352b4c6e52642b414a7736596453732f554c54314d76483936502f374a611fc08201527f546157627a756838365959364a58366d51714d2b71666242774d4851787a414b611fe08201527f52724c50487a5641362b4954477233535456567538396b4566486868367248466120008201527f734757484d755a6d36514c57544e38784673597a745159412b7455312b4e4a6e6120208201527f6444422b397330657a5472566f54535a4f67496e584c69572b48626c735a31526120408201527f41322f37316c7a616e756c2f3858426365736d6c7772434861666e3652504e746120608201527f565a6d375a6c7859634d2b567a3266326a326e562f2f43434f304343435569676120808201527f46734a38706675634f5572332b5251433742724e36792b726268397738615a4e6120a08201527f72354d6a67412b706e4b6234316c772f3871514f6569794375736e386e5636596120c08201527f6255596e472f4d31465266794a79564c7073532f4c323638516f41594e2b46746120e08201527f4239616e3175303473666d4e755564576130327557355733563065554158724d6121008201527f31656c4d5769387950765a2b715637334e6a5544546c307a47665963757441516121208201527f746433623778434d532b397a62644a7076552b58576539487a6d7350376d66756121408201527f346b41585862315a646248576d394a7176515558363675716a6b4430596165616121608201527f4f7757335a774a2f316f76505064364344646d4d67506d7a7071597358766d4e6121808201527f5a476a552f5a4c436273755267336e6e4f75486f534c3262623133674a5a69346121a08201527f414d37314f50633677675445667438705372632b34776262505274394d3146756121c08201527f4e636633714679314c526557594c48462b53676d584a4c30655a31652f5467316121e08201527f37664b57773263334f753131566830414e784c3635344c35714946753265636b6122008201527f2f6b44457a476e75566e5a547238707473786a2f7747477877784d475648792f6122208201527f683578354d6a772b5139653246506a5a4d49756252575a664772746f6f55796d6122408201527f2b466a5a517672715978664f413976636c685a75317158742f50364f396236686122608201527f7570506e39527933505453523966464a54796347454543682b5042337337625a6122808201527f557a7a74697a4c4d414f4437343646684148376b7133372f4a373956493745516122a08201527f6744494d494d412f4d527339422f586e7a35502f712f6e6671357439563841396122c08201527f7859667663684671794847674a6a6e4e6b5a49395541334164467149332b36516122e08201527f636b656756704f5245716d6f7964302b33453631416d7955665a746c6663424c6123008201527f2f624234346c324d684338676f4763544345575351324b4a33316158696f654b6123208201527f4167433341413844516c4d624d4261304268365a46674f756d7a7347776751666123408201527f396152754d535146456f4d773568676b514d634b6c4c6f4c6461354336514e456123608201527f416946456a434537696a37574e57527634474935354145517134433850655a786123808201527f68474b32423746515577414b4f4d53425143555443364f7273674452494a57306123a08201527f326a70383575575a726c426b4b486944484d2f58672f7a4649302f67495755426123c08201527f513650494f4a6873716a564f4e6b3657734568375072347a4f344a5874526b566123e08201527f4b655349553075536f6b306d456d4d4f74494d542b4f6c52436c4a39343731756124008201527f7a6c50544a43726b5958372f5051626f2f497a2b3361785941673d3d297d74656124208201527f78742c747370616e7b646f6d696e616e742d626173656c696e653a63656e74726124408201527f616c7d2e617b666f6e742d66616d696c793a413b6c65747465722d73706163696124608201527f6e673a2d2e3035656d7d2e627b666f6e742d66616d696c793a427d2e637b666f6124808201527f6e742d73697a653a313670787d2e647b666f6e742d73697a653a313270787d2e6124a08201527f667b66696c6c3a230000000000000000000000000000000000000000000000006124c0820152600061434e6124c8830187611432565b7f7d2e687b66696c6c3a2300000000000000000000000000000000000000000000815261437e600a820187611432565b7f7d2e697b66696c6c3a23000000000000000000000000000000000000000000008152905061142761440f6143b6600a840188611432565b7f7d2e6a7b66696c6c3a6e6f6e653b7374726f6b652d6c696e656a6f696e3a726f81527f756e643b7374726f6b652d6c696e656361703a726f756e643b7374726f6b653a6020820152602360f81b604082015260410190565b85611432565b60008551614427818460208a0161132e565b80830190507f7d2e787b77696474683a3170783b6865696768743a3170787d3c2f7374796c6581527f3e3c6d61736b2069643d226d223e3c726563742077696474683d22323022206860208201527f65696768743d223230222072783d22302e333730333730222066696c6c3d222360408201527f464646222f3e3c2f6d61736b3e3c7061746820643d224d30203068353530763560608201527f353048307a22207374796c653d2266696c6c3a23000000000000000000000000608082015285516144fa816094840160208a0161132e565b7f222f3e3c7265637420783d223134332220793d223639222077696474683d2232609492909101918201527f363422206865696768743d22343132222072783d2238222066696c6c3d22230060b4820152845161455e8160d384016020890161132e565b7f222f3e3c7265637420636c6173733d22662220783d223134372220793d22373360d392909101918201527f222077696474683d2232353622206865696768743d22343034222072783d223460f38201526211179f60e91b610113820152611427610116820185611432565b600083516145dc81846020880161132e565b80830190507f3c7465787420636c6173733d226120682220783d223136332220793d2231303181527f2220666f6e742d73697a653d223230223e50757a7a6c652023000000000000006020820152835161463d81603984016020880161132e565b7f3c2f746578743e3c7465787420783d223136332220793d22313231223e3c7473603992909101918201527f70616e20636c6173733d226220642069223e43726561746564206279203c2f7460598201527f7370616e3e3c747370616e20636c6173733d226120642068223e0000000000006079820152609301949350505050565b634e487b7160e01b600052601160045260246000fd5b6effffffffffffffffffffffffffffff8181168382160190808211156110ef576110ef6146bf565b6000875161470f818460208c0161132e565b875190830190614723818360208c0161132e565b8082019150507f3c2f747370616e3e3c2f746578743e3c7265637420783d223136332220793d2281527f313337222077696474683d2232323422206865696768743d223232342220666960208201527f6c6c3d2272676261280000000000000000000000000000000000000000000000604082015286516147ab816049840160208b0161132e565b7f2c302e3229222072783d2238222f3e00000000000000000000000000000000006049929091019182015285516147e9816058840160208a0161132e565b7f3c7061746820636c6173733d226a2220643d224d3137362e393838203338372e605892909101918201527f34383341342e39393220342e39393220302030203020313733203338352e356160788201527f342e39393220342e3939322030203020302d332e39383820312e3938336d372e60988201527f3937352030613620362030203120302d372e39373520306d372e39373520304160b88201527f352e39373720352e393737203020302031203137332033383961352e3937372060d88201527f352e3937372030203020312d332e3938382d312e3531374d313735203338312e60f88201527f35613220322030203120312d34203020322032203020302031203420307a222f6101188201527f3e3c7465787420636c6173733d2261206320682220783d223138372220793d226101388201527f333833223e000000000000000000000000000000000000000000000000000000610158820152614e35614a9161162661495e61015d850189611432565b7f3c2f746578743e3c7465787420636c6173733d2262206420692220783d22313881527f372220793d22343033223e43617074757265642062793c2f746578743e3c706160208201527f746820636c6173733d226a2220643d226d3238352e3520333830203220312e3560408201527f2d3220312e356d33203068326d2d3620352e35683961312e3520312e3520302060608201527f30203020312e352d312e35762d3861312e3520312e352030203020302d312e3560808201527f2d312e35682d3961312e3520312e352030203020302d312e3520312e3576386160a08201527f312e3520312e3520302030203020312e3520312e357a222f3e3c74657874206360c08201527f6c6173733d2261206320682220783d223330332220793d22333833223e00000060e082015260fd0190565b7f3c2f746578743e3c7465787420636c6173733d2262206420692220783d22333081527f332220793d22343033223e536f6c7574696f6e3c2f746578743e3c706174682060208201527f636c6173733d226a2220643d224d313736203433372e35682d366d362030613260408201527f203220302030203120322032682d31306132203220302030203120322d326d3660608201527f2030762d322e3235612e37352e37352030203020302d2e37352d2e3735682d2e60808201527f35386d2d342e36372033762d322e3235612e37352e3735203020302031202e3760a08201527f352d2e3735682e3538316d332e3333382030682d332e3333386d332e3333382060c08201527f3061342e393720342e39372030203020312d2e3635342d322e3131356d2d322e60e08201527f36383420322e31313561342e393720342e3937203020302030202e3635342d326101008201527f2e3131356d2d332e3438352d342e353631632d2e3635352e3039352d312e33306101208201527f332e3231312d312e3934342e33343761342e30303220342e30303220302030206101408201527f3020332e35393720332e3331346d2d312e3635332d332e3636315634323861346101608201527f2e343920342e343920302030203020312e36353320332e3438356d2d312e36356101808201527f332d332e363631762d312e30316133322e3232362033322e32323620302030206101a08201527f3120342e352d2e33313463312e353237203020332e30332e31303720342e352e6101c08201527f33313376312e3031316d2d372e33343720332e36363161342e34383420342e346101e08201527f383420302030203020312e3833322e396d352e3531352d342e353631563432386102008201527f61342e343920342e34392030203020312d312e36353320332e3438356d312e366102208201527f35332d332e3636316133302e38382033302e383820302030203120312e3934346102408201527f2e33343720342e30303220342e3030322030203020312d332e35393720332e336102608201527f31346d30203061342e34383420342e3438342030203020312d312e3833322e396102808201527f6d30203061342e35313520342e3531352030203020312d322e30332030222f3e6102a08201527f3c746578743e3c747370616e20636c6173733d2261206320682220783d2231386102c08201527f372220793d22343333223e0000000000000000000000000000000000000000006102e08201526102eb0190565b9998505050505050505050565b60008551614e54818460208a0161132e565b855190830190614e68818360208a0161132e565b8082019150507f203c2f747370616e3e3c747370616e20636c6173733d2261206420692220793d81527f22343335223e2f2000000000000000000000000000000000000000000000000060208201528451614eca81602884016020890161132e565b7f3c2f747370616e3e3c2f746578743e3c7465787420636c6173733d2262206420602892909101918201527f692220783d223138372220793d22343533223e52616e6b3c2f746578743e3c7060488201527f61746820636c6173733d226a2220643d224d32383920343239763468336d332060688201527f30613620362030203120312d313220302036203620302030203120313220307a60888201527f222f3e3c7465787420636c6173733d2261206320682220783d2233303322207960a88201527f3d22343333223e0000000000000000000000000000000000000000000000000060c8820152611427614fc360cf830186611432565b7f3c2f746578743e3c7465787420636c6173733d2262206420692220783d22333081527f332220793d22343533223e536f6c76652074696d653c2f746578743e3c2f7376602082015261339f60f11b604082015260420190565b6000825161502f81846020870161132e565b9190910192915050565b7f7b226e616d65223a220000000000000000000000000000000000000000000000815260008751615071816009850160208c0161132e565b7f3a20466c6167202300000000000000000000000000000000000000000000000060099184019182015287516150ae816011840160208c0161132e565b7f222c226465736372697074696f6e223a225468697320746f6b656e2072657072601192909101918201527f6573656e747320736f6c766520230000000000000000000000000000000000006031820152865161511281603f840160208b0161132e565b7f20696e2070757a7a6c6520230000000000000000000000000000000000000000603f9290910191820152855161515081604b840160208a0161132e565b6151f66151e96151e36151ba6151b4604b868801017f2e222c22696d6167655f64617461223a2022646174613a696d6167652f73766781527f2b786d6c3b6261736536342c00000000000000000000000000000000000000006020820152602c0190565b8a611432565b7f222c2261747472696275746573223a00000000000000000000000000000000008152600f0190565b87611432565b607d60f81b815260010190565b9a9950505050505050505050565b7f646174613a6170706c69636174696f6e2f6a736f6e3b6261736536342c00000081526000825161523c81601d85016020870161132e565b91909101601d0192915050565b634e487b7160e01b600052603260045260246000fd5b6000835161527181846020880161132e565b83519083019061528581836020880161132e565b01949350505050565b7f3c7265637420636c6173733d22682220783d22000000000000000000000000008152600085516152c6816013850160208a0161132e565b7f2220793d223937222077696474683d22000000000000000000000000000000006013918401918201528551615303816023840160208a0161132e565b7f22206865696768743d223234222072783d223132222f3e3c706174682069643d602392909101918201527f22732220643d224d3336362e313932203130332e3134632e3239392d2e37313860438201527f20312e3331372d2e37313820312e36313620306c312e33383820332e3333382060638201527f332e3630332e323839632e3737362e30363220312e303920312e30332e34393960838201527f20312e3533366c2d322e37343520322e3335322e38333820332e353135632e3160a38201527f38312e3735372d2e36343220312e3335352d312e3330362e39354c333637203160c38201527f31332e3233366c2d332e30383520312e383834632d2e3636342e3430352d312e60e38201527f3438372d2e3139332d312e3330362d2e39356c2e3833382d332e3531352d322e6101038201527f3734352d322e333532632d2e3539312d2e3530362d2e3237372d312e3437342e6101238201527f352d312e3533366c332e3630322d2e32383920312e3338382d332e3333377a2261014382015261179f60f11b61016382015261142761440f610165830187611432565b634e487b7160e01b600052601260045260246000fd5b6000826154c9576154c96154a4565b500690565b600085516154e0818460208a0161132e565b7f3c7265637420636c6173733d22782220783d2200000000000000000000000000908301908152855161551a816013840160208a0161132e565b7f2220793d2200000000000000000000000000000000000000000000000000000060139290910191820152845161555881601884016020890161132e565b7f222066696c6c3d2223000000000000000000000000000000000000000000000060189290910191820152835161559681602184016020880161132e565b6211179f60e91b602192909101918201526024019695505050505050565b600082516155c681846020870161132e565b7f3c2f673e00000000000000000000000000000000000000000000000000000000920191825250600401919050565b600064ffffffffff8084168061560d5761560d6154a4565b92169190910492915050565b600064ffffffffff80841680615631576156316154a4565b92169190910692915050565b6000845161564f81846020890161132e565b8083019050601d60f91b808252855161566f816001850160208a0161132e565b6001920191820152835161568a81600284016020880161132e565b0160020195945050505050565b600082516156a981846020870161132e565b7f20686f7572730000000000000000000000000000000000000000000000000000920191825250600601919050565b600082516156ea81846020870161132e565b7f2064617973000000000000000000000000000000000000000000000000000000920191825250600501919050565b6000825161572b81846020870161132e565b7f2079656172730000000000000000000000000000000000000000000000000000920191825250600601919050565b80820180821115610dc357610dc36146bf565b60008261577c5761577c6154a4565b500490565b600360fc1b81526000825161579d81600185016020870161132e565b919091016001019291505056fe3c67207472616e73666f726d3d227472616e736c617465283136372031343129207363616c652831302e382922206d61736b3d2275726c28236d29223e4142434445464748494a4b4c4d4e4f505152535455565758595a6162636465666768696a6b6c6d6e6f707172737475767778797a303132333435363738392b2fa164736f6c6343000815000a",
    "linkReferences": {}
  },
  "methodIdentifiers": {
    "render((address,uint40,uint40),uint256,address,uint40,uint56,uint8,uint32,uint120)": "1fcc81ff"
  },
  "id": 60
}