{
  "abi": [
    {
      "inputs": [
        {
          "internalType": "uint256",
          "name": "salt",
          "type": "uint256"
        }
      ],
      "name": "get_config_with_create_2",
      "outputs": [
        {
          "internalType": "address",
          "name": "",
          "type": "address"
        }
      ],
      "stateMutability": "view",
      "type": "function"
    }
  ],
  "bytecode": {
    "object": "0x612b6c61003a600b82828239805160001a60731461002d57634e487b7160e01b600052600060045260246000fd5b30600052607381538281f3fe730000000000000000000000000000000000000000301460806040526004361061004b5760003560e01c806301f9ad9c1461005057806325d1b8031461009957806379502c55146100ac575b600080fd5b81801561005c57600080fd5b5061007061006b366004610207565b6100c1565b60405173ffffffffffffffffffffffffffffffffffffffff909116815260200160405180910390f35b6100706100a7366004610207565b6100fa565b8180156100b857600080fd5b506100706101ca565b60008160001b6040516100d3906101fa565b8190604051809103906000f59050801580156100f3573d6000803e3d6000fd5b5092915050565b6040516000907fff000000000000000000000000000000000000000000000000000000000000009030908490610132602082016101fa565b6020820181038252601f19601f82011660405250805190602001206040516020016101ac94939291907fff0000000000000000000000000000000000000000000000000000000000000094909416845260609290921b6bffffffffffffffffffffffff191660018401526015830152603582015260550190565b60408051601f19818403018152919052805160209091012092915050565b60006040516101d8906101fa565b604051809103906000f0801580156101f4573d6000803e3d6000fd5b50905090565b61293f8061022183390190565b60006020828403121561021957600080fd5b503591905056fe6080604052600380546001600160a01b0319163017905534801561002257600080fd5b5061290d806100326000396000f3fe60806040526004361061018b5760003560e01c80636b07af10116100d6578063c76023161161007f578063df9f3dee11610059578063df9f3dee14610455578063e5df30761461031d578063e9e68e1d146104ab57600080fd5b8063c76023161461040d578063d5f3948814610420578063dd1ec8241461044057600080fd5b80638093a1b9116100b05780638093a1b91461037f57806392bb10d71461039f578063c5effd02146103f657600080fd5b80636b07af101461031d5780636fcef9d51461033d5780637dc2225f1461035d57600080fd5b806328764d14116101385780633fa4f245116101125780633fa4f245146102cf5780634e9b75b6146102f357806368f192f21461030857600080fd5b806328764d141461026757806339614e4f146102875780633a768463146102a757600080fd5b8063220481ef11610169578063220481ef1461021f5780632232d9081461023257806324c12bf61461025257600080fd5b80630c7d1681146101905780630cc76616146101c75780631a8f1a1c146101e7575b600080fd5b34801561019c57600080fd5b506101b06101ab366004611eb0565b6104dc565b6040516101be929190611f19565b60405180910390f35b6101da6101d5366004612014565b610620565b6040516101be9190612049565b3480156101f357600080fd5b50610207610202366004612014565b610657565b6040516001600160a01b0390911681526020016101be565b6101da61022d366004612014565b61066d565b34801561023e57600080fd5b5061020761024d366004612014565b6112a5565b34801561025e57600080fd5b506101da6112b2565b34801561027357600080fd5b5061020761028236600461205c565b611340565b34801561029357600080fd5b506101da6102a236600461205c565b61134e565b3480156102b357600080fd5b50610207737109709ecfa91a80626ff3989d68f67f5b1dd12d81565b3480156102db57600080fd5b506102e560025481565b6040519081526020016101be565b3480156102ff57600080fd5b506101da611574565b34801561031457600080fd5b506101da611581565b34801561032957600080fd5b506102076103383660046120a5565b61158e565b34801561034957600080fd5b50610207610358366004612106565b611618565b34801561036957600080fd5b50610207610378366004611eb0565b6002553090565b34801561038b57600080fd5b5061020761039a366004612154565b611659565b3480156103ab57600080fd5b506102076103ba3660046121b8565b600380547fffffffffffffffffffffffff0000000000000000000000000000000000000000166001600160a01b03929092169190911790553090565b34801561040257600080fd5b5061040b6116b5565b005b61020761041b366004612014565b61186e565b34801561042c57600080fd5b50600354610207906001600160a01b031681565b34801561044c57600080fd5b506101da6119a1565b34801561046157600080fd5b506102076104703660046121d3565b60038054911515600160a01b027fffffffffffffffffffffff00ffffffffffffffffffffffffffffffffffffffff9092169190911790553090565b3480156104b757600080fd5b506003546104cc90600160a01b900460ff1681565b60405190151581526020016101be565b600581815481106104ec57600080fd5b906000526020600020906002020160009150905080600001805461050f906121f5565b80601f016020809104026020016040519081016040528092919081815260200182805461053b906121f5565b80156105885780601f1061055d57610100808354040283529160200191610588565b820191906000526020600020905b81548152906001019060200180831161056b57829003601f168201915b50505050509080600101805461059d906121f5565b80601f01602080910402602001604051908101604052809291908181526020018280546105c9906121f5565b80156106165780601f106105eb57610100808354040283529160200191610616565b820191906000526020600020905b8154815290600101906020018083116105f957829003601f168201915b5050505050905082565b606061062b8261066d565b90508060016040516020016106419291906122a2565b6040516020818303038152906040529050919050565b60006004610665838261230f565b503092915050565b60606106776116b5565b60006106aa8360408051808201825260008082526020918201528151808301909252825182529182019181019190915290565b60408051808201825260018152602f60f81b6020808301918252835180850185526000808252908201819052845180860190955292518452830152919250906106f38383611aa0565b6106fe9060016123e5565b67ffffffffffffffff81111561071657610716611f47565b60405190808252806020026020018201604052801561074957816020015b60608152602001906001900390816107345790505b50905060005b815181101561079a5761076a6107658585611b41565b611b60565b82828151811061077c5761077c6123f8565b602002602001018190525080806107929061240e565b91505061074f565b50604080516001808252818301909252600091816020015b60608152602001906001900390816107b25790505090506040518060600160405280602881526020016128d960289139816000815181106107f5576107f56123f8565b6020908102919091010152604051638916046760e01b8152600090737109709ecfa91a80626ff3989d68f67f5b1dd12d9063891604679061083a908590600401612427565b6000604051808303816000875af1158015610859573d6000803e3d6000fd5b505050506040513d6000823e601f3d908101601f191682016040526108819190810190612489565b905060006108be610891836124f7565b6040516020016108a391815260200190565b60405160208183030381529060405280519060200120611bc9565b90506000846000815181106108d5576108d56123f8565b6020026020010151905060018551116109115781816040516020016108fb92919061251b565b60405160208183030381529060405290506109c7565b60015b600186516109229190612561565b811015610979578186828151811061093c5761093c6123f8565b6020026020010151604051602001610955929190612574565b604051602081830303815290604052915080806109719061240e565b915050610914565b508082866001885161098b9190612561565b8151811061099b5761099b6123f8565b60200260200101516040516020016109b5939291906125b0565b60405160208183030381529060405290505b60408051600380825260808201909252600091816020015b60608152602001906001900390816109df5790505090506040518060600160405280602981526020016128836029913981600081518110610a2257610a226123f8565b602002602001018190525081604051602001610a3e9190612614565b60405160208183030381529060405281600181518110610a6057610a606123f8565b60200260200101819052506000604051602001610a7d9190612680565b60405160208183030381529060405281600281518110610a9f57610a9f6123f8565b6020908102919091010152604051638916046760e01b8152737109709ecfa91a80626ff3989d68f67f5b1dd12d90638916046790610ae1908490600401612427565b6000604051808303816000875af1158015610b00573d6000803e3d6000fd5b505050506040513d6000823e601f3d908101601f19168201604052610b289190810190612489565b5060408051600380825260808201909252600091816020015b6060815260200190600190039081610b415790505090506040518060600160405280602d81526020016128ac602d913981600081518110610b8457610b846123f8565b602002602001018190525082604051602001610ba09190612614565b60405160208183030381529060405281600181518110610bc257610bc26123f8565b60200260200101819052508a604051602001610bde9190612614565b60405160208183030381529060405281600281518110610c0057610c006123f8565b6020908102919091010152604051638916046760e01b8152737109709ecfa91a80626ff3989d68f67f5b1dd12d90638916046790610c42908490600401612427565b6000604051808303816000875af1158015610c61573d6000803e3d6000fd5b505050506040513d6000823e601f3d908101601f19168201604052610c899190810190612489565b5060408051600580825260c08201909252600091816020015b6060815260200190600190039081610ca257505060055490915015610f3a57600554610ccf9060066123e5565b67ffffffffffffffff811115610ce757610ce7611f47565b604051908082528060200260200182016040528015610d1a57816020015b6060815260200190600190039081610d055790505b509050604051806040016040528060028152602001612d6360f01b81525081600581518110610d4b57610d4b6123f8565b6020026020010181905250610d73604051806040016040528060608152602001606081525090565b60005b600554811015610f375760058181548110610d9357610d936123f8565b9060005260206000209060020201604051806040016040529081600082018054610dbc906121f5565b80601f0160208091040260200160405190810160405280929190818152602001828054610de8906121f5565b8015610e355780601f10610e0a57610100808354040283529160200191610e35565b820191906000526020600020905b815481529060010190602001808311610e1857829003601f168201915b50505050508152602001600182018054610e4e906121f5565b80601f0160208091040260200160405190810160405280929190818152602001828054610e7a906121f5565b8015610ec75780601f10610e9c57610100808354040283529160200191610ec7565b820191906000526020600020905b815481529060010190602001808311610eaa57829003601f168201915b505050505081525050915081600001518260200151604051602001610eed92919061269d565b60408051601f1981840301815291905283610f098360066123e5565b81518110610f1957610f196123f8565b60200260200101819052508080610f2f9061240e565b915050610d76565b50505b6040518060400160405280600581526020017f687566666300000000000000000000000000000000000000000000000000000081525081600081518110610f8357610f836123f8565b602002602001018190525083604051602001610f9f9190612614565b60405160208183030381529060405281600181518110610fc157610fc16123f8565b60200260200101819052506040518060400160405280600281526020016116b160f11b81525081600281518110610ffa57610ffa6123f8565b6020026020010181905250604051806040016040528060028152602001612d6560f01b81525081600381518110611033576110336123f8565b60200260200101819052506110466119a1565b81600481518110611059576110596123f8565b6020908102919091010152604051638916046760e01b8152737109709ecfa91a80626ff3989d68f67f5b1dd12d9063891604679061109b908490600401612427565b6000604051808303816000875af11580156110ba573d6000803e3d6000fd5b505050506040513d6000823e601f3d908101601f191682016040526110e29190810190612489565b60408051600280825260608201909252919c5060009190816020015b60608152602001906001900390816110fe57905050905060405180604001604052806002815260200161726d60f01b81525081600081518110611143576111436123f8565b60200260200101819052508460405160200161115f9190612614565b60405160208183030381529060405281600181518110611181576111816123f8565b60209081029190910101526003546040517fca669fa70000000000000000000000000000000000000000000000000000000081526001600160a01b039091166004820152737109709ecfa91a80626ff3989d68f67f5b1dd12d9063ca669fa790602401600060405180830381600087803b1580156111fe57600080fd5b505af1158015611212573d6000803e3d6000fd5b5050604051638916046760e01b8152737109709ecfa91a80626ff3989d68f67f5b1dd12d92506389160467915061124d908490600401612427565b6000604051808303816000875af115801561126c573d6000803e3d6000fd5b505050506040513d6000823e601f3d908101601f191682016040526112949190810190612489565b505050505050505050505050919050565b600080610665838261230f565b600080546112bf906121f5565b80601f01602080910402602001604051908101604052809291908181526020018280546112eb906121f5565b80156113385780601f1061130d57610100808354040283529160200191611338565b820191906000526020600020905b81548152906001019060200180831161131b57829003601f168201915b505050505081565b60006001610665838261230f565b60408051808201909152601081527f303132333435363738396162636465660000000000000000000000000000000060208201528151606091906000906113969060026126cd565b6113a19060026123e5565b67ffffffffffffffff8111156113b9576113b9611f47565b6040519080825280601f01601f1916602001820160405280156113e3576020820181803683370190505b509050600360fc1b816000815181106113fe576113fe6123f8565b60200101906001600160f81b031916908160001a905350600f60fb1b8160018151811061142d5761142d6123f8565b60200101906001600160f81b031916908160001a90535060005b845181101561156c57826004868381518110611465576114656123f8565b016020015182516001600160f81b031990911690911c60f81c90811061148d5761148d6123f8565b01602001516001600160f81b031916826114a88360026126cd565b6114b39060026123e5565b815181106114c3576114c36123f8565b60200101906001600160f81b031916908160001a905350828582815181106114ed576114ed6123f8565b602091010151815160f89190911c600f1690811061150d5761150d6123f8565b01602001516001600160f81b031916826115288360026126cd565b6115339060036123e5565b81518110611543576115436123f8565b60200101906001600160f81b031916908160001a905350806115648161240e565b915050611447565b509392505050565b600180546112bf906121f5565b600480546112bf906121f5565b6000600560405180604001604052808581526020016115cd856040516020016115b991815260200190565b60405160208183030381529060405261134e565b905281546001810183556000928352602090922081519192600202019081906115f6908261230f565b506020820151600182019061160b908261230f565b5050503090505b92915050565b6000600560405180604001604052808581526020016115cd856040516020016115b9919060609190911b6bffffffffffffffffffffffff1916815260140190565b6040805180820190915282815260208101829052600580546001810182556000918252825191929160029091027f036b6384b5eca791c62761152d0c79bb0604c104a5fb6f4eb0703f3154bb3db0019081906115f6908261230f565b604080516001808252818301909252600091816020015b60608152602001906001900390816116cc5790505090506040518060600160405280602a8152602001612859602a91398160008151811061170f5761170f6123f8565b6020908102919091010152604051638916046760e01b8152600090737109709ecfa91a80626ff3989d68f67f5b1dd12d90638916046790611754908590600401612427565b6000604051808303816000875af1158015611773573d6000803e3d6000fd5b505050506040513d6000823e601f3d908101601f1916820160405261179b9190810190612489565b90506000816000815181106117b2576117b26123f8565b01602001516001600160f81b0319169050600160f81b8114806118685760405162461bcd60e51b815260206004820152604b60248201527f496e76616c69642068756666632062696e6172792e2052756e20606375726c2060448201527f2d4c206765742e687566662e7368207c20626173686020616e6420606875666660648201527f75706020746f206669782e000000000000000000000000000000000000000000608482015260a4015b60405180910390fd5b50505050565b60008061187a83610620565b600354909150600090600160a01b900460ff161561191057604080517fafc980400000000000000000000000000000000000000000000000000000000081529051737109709ecfa91a80626ff3989d68f67f5b1dd12d9163afc9804091600480830192600092919082900301818387803b1580156118f757600080fd5b505af115801561190b573d6000803e3d6000fd5b505050505b60025482516020840182f09150506001600160a01b03811661199a5760405162461bcd60e51b815260206004820152602660248201527f487566664465706c6f79657220636f756c64206e6f74206465706c6f7920636f60448201527f6e74726163740000000000000000000000000000000000000000000000000000606482015260840161185f565b9392505050565b6060600060046040516020016119b791906126e4565b6040516020818303038152906040526119cf906124f7565b905080611a0f57505060408051808201909152600881527f7368616e67686169000000000000000000000000000000000000000000000000602082015290565b60048054611a1c906121f5565b80601f0160208091040260200160405190810160405280929190818152602001828054611a48906121f5565b8015611a955780601f10611a6a57610100808354040283529160200191611a95565b820191906000526020600020905b815481529060010190602001808311611a7857829003601f168201915b505050505091505090565b6000808260000151611ac48560000151866020015186600001518760200151611c69565b611ace91906123e5565b90505b83516020850151611ae291906123e5565b8111611b3a5781611af28161240e565b9250508260000151611b29856020015183611b0d9190612561565b8651611b199190612561565b8386600001518760200151611c69565b611b3391906123e5565b9050611ad1565b5092915050565b6040805180820190915260008082526020820152611b3a838383611d8b565b60606000826000015167ffffffffffffffff811115611b8157611b81611f47565b6040519080825280601f01601f191660200182016040528015611bab576020820181803683370190505b5090506000602082019050611b3a8185602001518660000151611e36565b60608060005b6020811015611b3a5781601a858360208110611bed57611bed6123f8565b611bf99291901a6126f0565b611c04906061612720565b604051602001611c27919060f89190911b6001600160f81b031916815260010190565b60408051601f1981840301815290829052611c459291602001612739565b60405160208183030381529060405291508080611c619061240e565b915050611bcf565b60008381868511611d745760208511611d235760008515611cb5576001611c91876020612561565b611c9c9060086126cd565b611ca790600261284c565b611cb19190612561565b1990505b84518116600087611cc68b8b6123e5565b611cd09190612561565b855190915083165b828114611d1557818610611cfd57611cf08b8b6123e5565b9650505050505050611d83565b85611d078161240e565b965050838651169050611cd8565b859650505050505050611d83565b508383206000905b611d358689612561565b8211611d7257858320808203611d515783945050505050611d83565b611d5c6001856123e5565b9350508180611d6a9061240e565b925050611d2b565b505b611d7e87876123e5565b925050505b949350505050565b60408051808201909152600080825260208201526000611dbd8560000151866020015186600001518760200151611c69565b602080870180519186019190915251909150611dd99082612561565b835284516020860151611dec91906123e5565b8103611dfb5760008552611e2d565b83518351611e0991906123e5565b85518690611e18908390612561565b9052508351611e2790826123e5565b60208601525b50909392505050565b60208110611e6e5781518352611e4d6020846123e5565b9250611e5a6020836123e5565b9150611e67602082612561565b9050611e36565b6000198115611e9d576001611e84836020612561565b611e909061010061284c565b611e9a9190612561565b90505b9151835183169219169190911790915250565b600060208284031215611ec257600080fd5b5035919050565b60005b83811015611ee4578181015183820152602001611ecc565b50506000910152565b60008151808452611f05816020860160208601611ec9565b601f01601f19169290920160200192915050565b604081526000611f2c6040830185611eed565b8281036020840152611f3e8185611eed565b95945050505050565b634e487b7160e01b600052604160045260246000fd5b604051601f8201601f1916810167ffffffffffffffff81118282101715611f8657611f86611f47565b604052919050565b600067ffffffffffffffff821115611fa857611fa8611f47565b50601f01601f191660200190565b6000611fc9611fc484611f8e565b611f5d565b9050828152838383011115611fdd57600080fd5b828260208301376000602084830101529392505050565b600082601f83011261200557600080fd5b61199a83833560208501611fb6565b60006020828403121561202657600080fd5b813567ffffffffffffffff81111561203d57600080fd5b611d8384828501611ff4565b60208152600061199a6020830184611eed565b60006020828403121561206e57600080fd5b813567ffffffffffffffff81111561208557600080fd5b8201601f8101841361209657600080fd5b611d8384823560208401611fb6565b600080604083850312156120b857600080fd5b823567ffffffffffffffff8111156120cf57600080fd5b6120db85828601611ff4565b95602094909401359450505050565b80356001600160a01b038116811461210157600080fd5b919050565b6000806040838503121561211957600080fd5b823567ffffffffffffffff81111561213057600080fd5b61213c85828601611ff4565b92505061214b602084016120ea565b90509250929050565b6000806040838503121561216757600080fd5b823567ffffffffffffffff8082111561217f57600080fd5b61218b86838701611ff4565b935060208501359150808211156121a157600080fd5b506121ae85828601611ff4565b9150509250929050565b6000602082840312156121ca57600080fd5b61199a826120ea565b6000602082840312156121e557600080fd5b8135801515811461199a57600080fd5b600181811c9082168061220957607f821691505b60208210810361222957634e487b7160e01b600052602260045260246000fd5b50919050565b6000815461223c816121f5565b60018281168015612254576001811461226957612298565b60ff1984168752821515830287019450612298565b8560005260208060002060005b8581101561228f5781548a820152908401908201612276565b50505082870194505b5050505092915050565b600083516122b4818460208801611ec9565b611f3e8184018561222f565b601f82111561230a57600081815260208120601f850160051c810160208610156122e75750805b601f850160051c820191505b81811015612306578281556001016122f3565b5050505b505050565b815167ffffffffffffffff81111561232957612329611f47565b61233d8161233784546121f5565b846122c0565b602080601f831160018114612372576000841561235a5750858301515b600019600386901b1c1916600185901b178555612306565b600085815260208120601f198616915b828110156123a157888601518255948401946001909101908401612382565b50858210156123bf5787850151600019600388901b60f8161c191681555b5050505050600190811b01905550565b634e487b7160e01b600052601160045260246000fd5b80820180821115611612576116126123cf565b634e487b7160e01b600052603260045260246000fd5b600060018201612420576124206123cf565b5060010190565b6000602080830181845280855180835260408601915060408160051b870101925083870160005b8281101561247c57603f1988860301845261246a858351611eed565b9450928501929085019060010161244e565b5092979650505050505050565b60006020828403121561249b57600080fd5b815167ffffffffffffffff8111156124b257600080fd5b8201601f810184136124c357600080fd5b80516124d1611fc482611f8e565b8181528560208385010111156124e657600080fd5b611f3e826020830160208601611ec9565b805160208083015191908110156122295760001960209190910360031b1b16919050565b675f5f54454d505f5f60c01b81526000835161253e816008850160208801611ec9565b835190830190612555816008840160208801611ec9565b01600801949350505050565b81810381811115611612576116126123cf565b60008351612586818460208801611ec9565b602f60f81b90830190815283516125a4816001840160208801611ec9565b01600101949350505050565b600084516125c2818460208901611ec9565b602f60f81b908301908152675f5f54454d505f5f60c01b600182015284516125f1816009840160208901611ec9565b8451910190612607816009840160208801611ec9565b0160090195945050505050565b7f7372632f0000000000000000000000000000000000000000000000000000000081526000825161264c816004850160208701611ec9565b7f2e687566660000000000000000000000000000000000000000000000000000006004939091019283015250600901919050565b600061268c828461222f565b600560f91b81526001019392505050565b600083516126af818460208801611ec9565b603d60f81b90830190815283516125a4816001840160208801611ec9565b8082028115828204841417611612576116126123cf565b600061199a828461222f565b600060ff83168061271157634e487b7160e01b600052601260045260246000fd5b8060ff84160691505092915050565b60ff8181168382160190811115611612576116126123cf565b6000835161274b818460208801611ec9565b83519083019061275f818360208801611ec9565b01949350505050565b600181815b808511156127a3578160001904821115612789576127896123cf565b8085161561279657918102915b93841c939080029061276d565b509250929050565b6000826127ba57506001611612565b816127c757506000611612565b81600181146127dd57600281146127e757612803565b6001915050611612565b60ff8411156127f8576127f86123cf565b50506001821b611612565b5060208310610133831016604e8410600b8410161715612826575081810a611612565b6128308383612768565b8060001904821115612844576128446123cf565b029392505050565b600061199a83836127ab56fe2e2f6c69622f666f756e6472792d687566662f736372697074732f62696e6172795f636865636b2e73682e2f6c69622f666f756e6472792d687566662f736372697074732f66696c655f7772697465722e73682e2f6c69622f666f756e6472792d687566662f736372697074732f726561645f616e645f617070656e642e73682e2f6c69622f666f756e6472792d687566662f736372697074732f72616e645f62797465732e7368a164736f6c6343000815000aa164736f6c6343000815000a",
    "linkReferences": {}
  },
  "methodIdentifiers": {
    "config()": "79502c55",
    "config_with_create_2(uint256)": "01f9ad9c",
    "get_config_with_create_2(uint256)": "25d1b803"
  },
  "id": 16
}