{
  "abi": [
    {
      "inputs": [
        {
          "internalType": "address",
          "name": "_seed",
          "type": "address"
        }
      ],
      "name": "generate",
      "outputs": [
        {
          "internalType": "uint256",
          "name": "",
          "type": "uint256"
        }
      ],
      "stateMutability": "pure",
      "type": "function"
    },
    {
      "inputs": [
        {
          "internalType": "address",
          "name": "_seed",
          "type": "address"
        }
      ],
      "name": "getSolution",
      "outputs": [
        {
          "internalType": "uint256",
          "name": "",
          "type": "uint256"
        }
      ],
      "stateMutability": "pure",
      "type": "function"
    },
    {
      "inputs": [],
      "name": "name",
      "outputs": [
        {
          "internalType": "string",
          "name": "",
          "type": "string"
        }
      ],
      "stateMutability": "pure",
      "type": "function"
    },
    {
      "inputs": [
        {
          "internalType": "uint256",
          "name": "_start",
          "type": "uint256"
        },
        {
          "internalType": "uint256",
          "name": "_solution",
          "type": "uint256"
        }
      ],
      "name": "verify",
      "outputs": [
        {
          "internalType": "bool",
          "name": "",
          "type": "bool"
        }
      ],
      "stateMutability": "pure",
      "type": "function"
    }
  ],
  "bytecode": {
    "object": "0x608060405234801561001057600080fd5b506101aa806100206000396000f3fe608060405234801561001057600080fd5b506004361061004c5760003560e01c806306fdde03146100515780632fa61cd81461009957806341161b10146100ce578063de4611e714610099575b600080fd5b604080518082018252600a81527f4d6f636b50757a7a6c65000000000000000000000000000000000000000000006020820152905161009091906100f0565b60405180910390f35b6100c06100a736600461013e565b73ffffffffffffffffffffffffffffffffffffffff1690565b604051908152602001610090565b6100e06100dc36600461017b565b1490565b6040519015158152602001610090565b600060208083528351808285015260005b8181101561011d57858101830151858201604001528201610101565b506000604082860101526040601f19601f8301168501019250505092915050565b60006020828403121561015057600080fd5b813573ffffffffffffffffffffffffffffffffffffffff8116811461017457600080fd5b9392505050565b6000806040838503121561018e57600080fd5b5050803592602090910135915056fea164736f6c6343000815000a",
    "linkReferences": {}
  },
  "methodIdentifiers": {
    "generate(address)": "2fa61cd8",
    "getSolution(address)": "de4611e7",
    "name()": "06fdde03",
    "verify(uint256,uint256)": "41161b10"
  },
  "id": 83
}