{
  "abi": [
    {
      "inputs": [
        {
          "internalType": "address",
          "name": "_who",
          "type": "address"
        }
      ],
      "name": "generate",
      "outputs": [
        {
          "internalType": "uint256",
          "name": "",
          "type": "uint256"
        }
      ],
      "stateMutability": "pure",
      "type": "function"
    },
    {
      "inputs": [],
      "name": "name",
      "outputs": [
        {
          "internalType": "string",
          "name": "",
          "type": "string"
        }
      ],
      "stateMutability": "pure",
      "type": "function"
    },
    {
      "inputs": [
        {
          "internalType": "address",
          "name": "",
          "type": "address"
        }
      ],
      "name": "solved",
      "outputs": [
        {
          "internalType": "uint256",
          "name": "",
          "type": "uint256"
        }
      ],
      "stateMutability": "view",
      "type": "function"
    },
    {
      "inputs": [
        {
          "internalType": "uint256",
          "name": "_start",
          "type": "uint256"
        },
        {
          "internalType": "uint256",
          "name": "_solution",
          "type": "uint256"
        }
      ],
      "name": "verify",
      "outputs": [
        {
          "internalType": "bool",
          "name": "",
          "type": "bool"
        }
      ],
      "stateMutability": "view",
      "type": "function"
    },
    {
      "inputs": [
        {
          "components": [
            {
              "components": [
                {
                  "internalType": "uint256",
                  "name": "X",
                  "type": "uint256"
                },
                {
                  "internalType": "uint256",
                  "name": "Y",
                  "type": "uint256"
                }
              ],
              "internalType": "struct Pairing.G1Point",
              "name": "a",
              "type": "tuple"
            },
            {
              "components": [
                {
                  "internalType": "uint256[2]",
                  "name": "X",
                  "type": "uint256[2]"
                },
                {
                  "internalType": "uint256[2]",
                  "name": "Y",
                  "type": "uint256[2]"
                }
              ],
              "internalType": "struct Pairing.G2Point",
              "name": "b",
              "type": "tuple"
            },
            {
              "components": [
                {
                  "internalType": "uint256",
                  "name": "X",
                  "type": "uint256"
                },
                {
                  "internalType": "uint256",
                  "name": "Y",
                  "type": "uint256"
                }
              ],
              "internalType": "struct Pairing.G1Point",
              "name": "c",
              "type": "tuple"
            }
          ],
          "internalType": "struct Verifier.Proof",
          "name": "_proof",
          "type": "tuple"
        }
      ],
      "name": "verifyProof",
      "outputs": [
        {
          "internalType": "bool",
          "name": "",
          "type": "bool"
        }
      ],
      "stateMutability": "nonpayable",
      "type": "function"
    }
  ],
  "bytecode": {
    "object": "0x608060405234801561001057600080fd5b50611283806100206000396000f3fe608060405234801561001057600080fd5b50600436106100675760003560e01c806341161b101161005057806341161b10146100d55780635e36bdc6146100f85780639eefefef1461011857600080fd5b806306fdde031461006c5780632fa61cd8146100b4575b600080fd5b604080518082018252600c81527f426162792069742773206d650000000000000000000000000000000000000000602082015290516100ab9190610fc3565b60405180910390f35b6100c76100c2366004611011565b61012b565b6040519081526020016100ab565b6100e86100e336600461104e565b6101b0565b60405190151581526020016100ab565b6100c7610106366004611011565b60006020819052908152604090205481565b6100e861012636600461112f565b6101df565b600060038260405160200161019091906040808252600e908201527f426162792069742773206d652c20000000000000000000000000000000000000606082015273ffffffffffffffffffffffffffffffffffffffff91909116602082015260800190565b60408051601f198184030181529190528051602090910120901c92915050565b73ffffffffffffffffffffffffffffffffffffffff811660009081526020819052604090205482145b92915050565b6000806101eb3361012b565b9050600061026f60405180608001604052807f0999e47227c47e8829b0d14b251feed7582d0f5357b304b06d4014ae6ab39f1e81526020017f0aabb7211172d31463c1127d4ba6942cb791c56d8234b5a0abfd1e81afd0d67781526020018481526020013373ffffffffffffffffffffffffffffffffffffffff168152508561029b565b1590508015610291575033600090815260208190526040902055506001919050565b5060009392505050565b60007f30644e72e131a029b85045b68181585d2833e84879b9709143e1f593f0000001816102c7610417565b6080810151519091506102dc600460016111e8565b146102e657600080fd5b604080518082019091526000808252602082018190525b600481101561038e5783878260048110610319576103196111fb565b60200201511061032857600080fd5b61037a82610375856080015184600161034191906111e8565b81518110610351576103516111fb565b60200260200101518a856004811061036b5761036b6111fb565b6020020151610916565b610974565b91508061038681611211565b9150506102fd565b506103b78183608001516000815181106103aa576103aa6111fb565b6020026020010151610974565b90506103fb856000015186602001516103cf846109ca565b85604001516103e18a604001516109ca565b606088015188516103f1906109ca565b8960200151610a69565b61040b57600193505050506101d9565b50600095945050505050565b61041f610ed5565b6040805180820182527f0284c469d8eaf677e29635e18886312bd0c6ba2a632674a2703a8d9a5d5a48db81527f19b4d4d74797c3307e59c683ccad9119397c90f76ad28c043ec9671a95502e766020808301919091529083528151608080820184527f0319296206e25c6e7ea35492e825fcdbea39b0980b72f18b3f7385d6d46352b08285019081527f10bc74487c379aad3a10da56c479ae5db4e4b3faeb354f4aa57ed4524a3e4527606080850191909152908352845180860186527f2971943778693059384530140201f76e29adf7a4222921b744f09045f2011e1d81527f21099f091b01503caab27b87ee9769840d27963846e35613d26190bc5c4d0cef818601528385015285840192909252835180820185527f2cd9c9e8f055f3663213f71c1c3f99c6b363b35f50e0fe2e8405d029deb1e2958186019081527f0fdcd887987c8e156d574ee4e97cf66bf36e7a8539b8c4bd578ff7bced1a601c828501528152845180860186527f2d96d4c9dcf6ff4da92c433beb2749c86fff05bfd2d83c3da9a7d531903ec94281527f13fb1bdc1b558571d6ba4944428eeb52aa0d69378072aa64cf543d4189b8af78818601528185015285850152835190810184527f122757890c3f43309334e26258842bb8e8ab0450d387ddf7bc20fc5e01619d928185019081527e593e12fef04367a7d771cc137c7a3f0f245584f4a40e44c6281ca51e610027828401528152835180850185527f11b21f2409f28092f35b9cd195ee93ee5d0e11aca3e1a432c007243e186dec7c81527f1bcf98b5bbd114064cf46447c90092bbf9384056f13c9487d8021f73d92ac4528185015281840152908401528151600580825260c08201909352919082015b604080518082019091526000808252602082015281526020019060019003908161069957505060808201908152604080518082019091527f2fc73b5bbb85acbd703828a3df8ee04ef648832b3bbf2c9fd5bb51d4ab0ef98481527f197f3e6cf0bde2d74a7c29bbabe7ea80928b45b23478309ea671a2b973a7edf260208201529051805160009061072c5761072c6111fb565b602002602001018190525060405180604001604052807f1b723ed82a7478e39551e2ab9346eda38a1c000cdd5f8ade3ccf6685f9d37b1e81526020017f26ad983f9927d8414cddfe79a4eda6717a8e82a0e85450e7ca745cd15af62c7781525081608001516001815181106107a3576107a36111fb565b602002602001018190525060405180604001604052807f262988545555095a281b0c6ac183626fd44094e1cc230aa38a705030d69124f381526020017f1f248dcfb5baf7962c1c481b9d52110825710ace9b94ef387f78651cb9d3335b815250816080015160028151811061081a5761081a6111fb565b602002602001018190525060405180604001604052807f2b17ccfb2bf38f9ed35f4cb962b705028429e1e66679bff2d13a0f31049a2b3a81526020017f1abe95f952ab1cd0a71f61d4304c8e85a777cf5afcb1936b9113a6c8acf22c688152508160800151600381518110610891576108916111fb565b602002602001018190525060405180604001604052807f2d476a4fc5d6e7900b821ac91bc179164787f4c1532bd3b91facf951788f40af81526020017f2a45d903c16fe8f0d0a14b36ae3ff7252075a266a0c749d3215352f175c1c8f18152508160800151600481518110610908576109086111fb565b602002602001018190525090565b6040805180820190915260008082526020820152610932610f26565b835181526020808501519082015260408101839052600060608360808460076107d05a03fa9050808061096157fe5b508061096c57600080fd5b505092915050565b6040805180820190915260008082526020820152610990610f44565b8351815260208085015181830152835160408301528301516060808301919091526000908360c08460066107d05a03fa9050808061096157fe5b604080518082019091526000808252602082015281517f30644e72e131a029b85045b68181585d97816a916871ca8d3c208c16d87cfd4790158015610a1157506020830151155b15610a315750506040805180820190915260008082526020820152919050565b604051806040016040528084600001518152602001828560200151610a56919061122a565b610a60908461124c565b90529392505050565b60408051600480825260a08201909252600091829190816020015b6040805180820190915260008082526020820152815260200190600190039081610a8457505060408051600480825260a0820190925291925060009190602082015b610ace610f62565b815260200190600190039081610ac65790505090508a82600081518110610af757610af76111fb565b60200260200101819052508882600181518110610b1657610b166111fb565b60200260200101819052508682600281518110610b3557610b356111fb565b60200260200101819052508482600381518110610b5457610b546111fb565b60200260200101819052508981600081518110610b7357610b736111fb565b60200260200101819052508781600181518110610b9257610b926111fb565b60200260200101819052508581600281518110610bb157610bb16111fb565b60200260200101819052508381600381518110610bd057610bd06111fb565b6020026020010181905250610be58282610bf4565b9b9a5050505050505050505050565b60008151835114610c0457600080fd5b82516000610c1382600661125f565b905060008167ffffffffffffffff811115610c3057610c30611070565b604051908082528060200260200182016040528015610c59578160200160208202803683370190505b50905060005b83811015610e9457868181518110610c7957610c796111fb565b60200260200101516000015182826006610c93919061125f565b610c9e9060006111e8565b81518110610cae57610cae6111fb565b602002602001018181525050868181518110610ccc57610ccc6111fb565b60200260200101516020015182826006610ce6919061125f565b610cf19060016111e8565b81518110610d0157610d016111fb565b602002602001018181525050858181518110610d1f57610d1f6111fb565b60209081029190910181015151015182610d3a83600661125f565b610d459060026111e8565b81518110610d5557610d556111fb565b602002602001018181525050858181518110610d7357610d736111fb565b6020908102919091010151515182610d8c83600661125f565b610d979060036111e8565b81518110610da757610da76111fb565b602002602001018181525050858181518110610dc557610dc56111fb565b602002602001015160200151600160028110610de357610de36111fb565b602002015182610df483600661125f565b610dff9060046111e8565b81518110610e0f57610e0f6111fb565b602002602001018181525050858181518110610e2d57610e2d6111fb565b602002602001015160200151600060028110610e4b57610e4b6111fb565b602002015182610e5c83600661125f565b610e679060056111e8565b81518110610e7757610e776111fb565b602090810291909101015280610e8c81611211565b915050610c5f565b50610e9d610f87565b6000602082602086026020860160086107d05a03fa90508080610ebc57fe5b5080610ec757600080fd5b505115159695505050505050565b6040805160e08101909152600060a0820181815260c0830191909152815260208101610eff610f62565b8152602001610f0c610f62565b8152602001610f19610f62565b8152602001606081525090565b60405180606001604052806003906020820280368337509192915050565b60405180608001604052806004906020820280368337509192915050565b6040518060400160405280610f75610fa5565b8152602001610f82610fa5565b905290565b60405180602001604052806001906020820280368337509192915050565b60405180604001604052806002906020820280368337509192915050565b600060208083528351808285015260005b81811015610ff057858101830151858201604001528201610fd4565b506000604082860101526040601f19601f8301168501019250505092915050565b60006020828403121561102357600080fd5b813573ffffffffffffffffffffffffffffffffffffffff8116811461104757600080fd5b9392505050565b6000806040838503121561106157600080fd5b50508035926020909101359150565b634e487b7160e01b600052604160045260246000fd5b6040805190810167ffffffffffffffff811182821017156110a9576110a9611070565b60405290565b6000604082840312156110c157600080fd5b6110c9611086565b9050813581526020820135602082015292915050565b600082601f8301126110f057600080fd5b6110f8611086565b80604084018581111561110a57600080fd5b845b8181101561112457803584526020938401930161110c565b509095945050505050565b600081830361010081121561114357600080fd5b6040516060810181811067ffffffffffffffff8211171561116657611166611070565b60405261117385856110af565b81526080603f198301121561118757600080fd5b61118f611086565b915061119e85604086016110df565b82526111ad85608086016110df565b60208301528160208201526111c58560c086016110af565b6040820152949350505050565b634e487b7160e01b600052601160045260246000fd5b808201808211156101d9576101d96111d2565b634e487b7160e01b600052603260045260246000fd5b600060018201611223576112236111d2565b5060010190565b60008261124757634e487b7160e01b600052601260045260246000fd5b500690565b818103818111156101d9576101d96111d2565b80820281158282048414176101d9576101d96111d256fea164736f6c6343000815000a",
    "linkReferences": {}
  },
  "methodIdentifiers": {
    "generate(address)": "2fa61cd8",
    "name()": "06fdde03",
    "solved(address)": "5e36bdc6",
    "verify(uint256,uint256)": "41161b10",
    "verifyProof(((uint256,uint256),(uint256[2],uint256[2]),(uint256,uint256)))": "9eefefef"
  },
  "id": 77
}