{
  "abi": [
    {
      "inputs": [
        {
          "internalType": "address",
          "name": "_seed",
          "type": "address"
        }
      ],
      "name": "generate",
      "outputs": [
        {
          "internalType": "uint256",
          "name": "",
          "type": "uint256"
        }
      ],
      "stateMutability": "nonpayable",
      "type": "function"
    },
    {
      "inputs": [],
      "name": "name",
      "outputs": [
        {
          "internalType": "string",
          "name": "",
          "type": "string"
        }
      ],
      "stateMutability": "pure",
      "type": "function"
    },
    {
      "inputs": [
        {
          "internalType": "address",
          "name": "origin",
          "type": "address"
        },
        {
          "internalType": "address",
          "name": "caller",
          "type": "address"
        },
        {
          "internalType": "address",
          "name": "execution_address",
          "type": "address"
        },
        {
          "internalType": "bytes",
          "name": "calld",
          "type": "bytes"
        },
        {
          "internalType": "bytes",
          "name": "executionCode",
          "type": "bytes"
        }
      ],
      "name": "run",
      "outputs": [
        {
          "internalType": "bool",
          "name": "",
          "type": "bool"
        },
        {
          "internalType": "bytes",
          "name": "",
          "type": "bytes"
        }
      ],
      "stateMutability": "nonpayable",
      "type": "function"
    },
    {
      "inputs": [
        {
          "internalType": "uint256",
          "name": "_start",
          "type": "uint256"
        },
        {
          "internalType": "uint256",
          "name": "_solution",
          "type": "uint256"
        }
      ],
      "name": "verify",
      "outputs": [
        {
          "internalType": "bool",
          "name": "",
          "type": "bool"
        }
      ],
      "stateMutability": "nonpayable",
      "type": "function"
    }
  ],
  "bytecode": {
    "object": "0x608060405234801561001057600080fd5b5061214f806100206000396000f3fe608060405234801561001057600080fd5b506004361061004c5760003560e01c806306fdde03146100515780632fa61cd81461009957806341161b10146100f5578063af323e0c14610118575b600080fd5b604080518082018252600b81527f4d696e69204d7574616e74000000000000000000000000000000000000000000602082015290516100909190611d85565b60405180910390f35b6100e76100a7366004611db4565b6040516bffffffffffffffffffffffff19606083901b16602082015260009060340160408051601f19818403018152919052805160209091012092915050565b604051908152602001610090565b610108610103366004611dcf565b610139565b6040519015158152602001610090565b61012b610126366004611e3a565b610499565b604051610090929190611edc565b6000806040518060600160405280600060ff168152602001600060ff1681526020018460405160200161016e91815260200190565b60408051808303601f1901815291815291528051602081018790529192503291339130916000910160405160208183030381529060405290505b845160ff1660000361036157846020015160ff166000036101d1573293503392503091506101e7565b846020015160ff166001036101e7573393503092505b6040808601519051632bcc8f8360e21b81526000918291309163af323e0c9161021b918a918a918a918a9190600401611ef7565b6000604051808303816000875af115801561023a573d6000803e3d6000fd5b505050506040513d6000823e601f3d908101601f191682016040526102629190810190611f5f565b91509150816102a85760405162461bcd60e51b815260206004820152600d60248201526c14d8dc9a5c1d0819985a5b1959609a1b60448201526064015b60405180910390fd5b60028151116102f95760405162461bcd60e51b815260206004820152601160248201527f4261642072657475726e206c656e677468000000000000000000000000000000604482015260640161029f565b8060008151811061030c5761030c612027565b016020015160f81c875280518190600190811061032b5761032b612027565b0160209081015160f81c90880152805161035490829060029061034f908290612053565b6105bb565b6040880152506101a89050565b6040808601519051632bcc8f8360e21b81526000918291309163af323e0c91610395918a918a918a918a9190600401611ef7565b6000604051808303816000875af11580156103b4573d6000803e3d6000fd5b505050506040513d6000823e601f3d908101601f191682016040526103dc9190810190611f5f565b915091508161041d5760405162461bcd60e51b815260206004820152600d60248201526c14d8dc9a5c1d0819985a5b1959609a1b604482015260640161029f565b6000818060200190518101906104339190612066565b90508a81146104865760405162461bcd60e51b815260040161029f9060208082526004908201527f4661696c00000000000000000000000000000000000000000000000000000000604082015260600190565b6001985050505050505050505b92915050565b600060606000804891504690506000604051806101a001604052808d6001600160a01b031681526020018c6001600160a01b031681526020018b6001600160a01b0316815260200160008152602001416001600160a01b0316815260200142815260200143815260200145815260200144815260200183815260200184815260200161052560016106e3565b81526020018a8a8080601f0160208091040260200160405190810160405280939291908181526020018383808284376000920191909152505050915250604080516020601f8a0181900481028201810190925288815291925082916105a7918a908a908190840183828082843760009201919091525085939250506107709050565b955095505050505097509795505050505050565b6060816105c981601f61207f565b10156106175760405162461bcd60e51b815260206004820152600e60248201527f736c6963655f6f766572666c6f77000000000000000000000000000000000000604482015260640161029f565b610621828461207f565b845110156106715760405162461bcd60e51b815260206004820152601160248201527f736c6963655f6f75744f66426f756e6473000000000000000000000000000000604482015260640161029f565b60608215801561069057604051915060008252602082016040526106da565b6040519150601f8416801560200281840101858101878315602002848b0101015b818310156106c95780518352602092830192016106b1565b5050858452601f01601f1916604052505b50949350505050565b6000806107108361ffff166000604051905060208260020102810160405281816020015260008152919050565b905060005b8361ffff1681101561076957600076400000000000000000000000000000000000000000000090506107568382815160020160200282015280516001019052565b508061076181612092565b915050610715565b5092915050565b6000606061078484846020600a602061078f565b909590945092505050565b60006060600061079d610ab8565b90508760006107c8886000604051905060208260020102810160405281816020015260008152919050565b905060006107d588610e2c565b905060006107f4886040805160209290920280830190915260551b1790565b60408051602080820190925260008082528e5160019b5091995092935091908d01905b82811015610aa6578181015160f81c60008190036108355750610aa6565b605a811161099e576056811015801561084f575060588111155b1561094957806056036108b757505084516001810160200286015160001990910186528181015160f81c605b81146108b2576040518060400160405280600c81526020016b0696e76616c6964206a756d760a41b815250995060009a5050610aa6565b610a95565b80605703610936578651602060018201810289015160001983018a52908202890151600119909201895290801561092f578193508385015160f81c925082605b1461092f576040518060400160405280600c81526020016b0696e76616c6964206a756d760a41b8152509b5060009c50505050610aa6565b5050610a95565b61094287836000610e3f565b9650610a95565b8060380361095d5761094287856000610e3f565b80603903610970576108b2878685610ee6565b61098f8588888b6109876109848f88610f3a565b90565b63ffffffff16565b9a509198509096509450610a95565b607f81116109bc576109b287848385610f89565b9097509150610a95565b608f81116109e55760006109d1608083612053565b90506109dd8882610fdc565b975050610a95565b609f8111610a1b5760006109fa608f83612053565b885160010160209081028a0180519183028103805190915252905050610a95565b8060f303610a3557610a2d8786611003565b995050610aa6565b8060fd03610a5357610a478786611003565b995060009a5050610aa6565b6040518060400160405280600a81526020017f696e76616c6964206f7000000000000000000000000000000000000000000000815250995060009a5050610aa6565b50610a9f81612092565b9050610817565b50505050505050509550959350505050565b60408051610100810190915260066020820181905281526000610adf816050611048611057565b9050610aef81605161108c611057565b9050610aff8160526110b0611057565b9050610b0f81605361119b611057565b90506000610b21816001611282611057565b9050610b318160026112a8611057565b9050610b418160036112ce611057565b9050610b518160046112f5611057565b9050610b6181600561131c611057565b9050610b71816006611385611057565b9050610b818160076113ac611057565b9050610b918160086113ee611057565b9050610ba1816009611425611057565b9050610bb181600a61145c611057565b9050610bc181600b611483611057565b6040840181905290506000610bda8160106114e2611057565b9050610bea816011611509611057565b9050610bfa816012611530611057565b9050610c0a816013611582611057565b9050610c1a8160146115d4611057565b9050610c2a8160156115fa611057565b9050610c3a816016611610611057565b9050610c4a816017611636611057565b9050610c5a81601861165c611057565b9050610c6a816019611682611057565b9050610c7a81601a611698611057565b9050610c8a81601b6116bf611057565b9050610c9a81601c6116e6611057565b9050610caa81601d61170d611057565b6060850181905290506000610cc381602061175c611057565b6080860181905290506000610cdc8160306117bb611057565b9050610cec8160316117e5611057565b9050610cfc816032611844611057565b9050610d0c816033611855611057565b9050610d1c816034611869611057565b9050610d2c81603561187d611057565b9050610d3c816036611961611057565b9050610d4c816037611989611057565b60a0870181905290506000610d658160416119fb611057565b9050610d75816042611a0f611057565b9050610d85816043611a23611057565b9050610d95816044611a37611057565b9050610da5816045611a4c611057565b9050610db5816046611a60611057565b9050610dc5816047611a75611057565b9050610dd5816048611ac1611057565b60c088018190529050610dec866054611ad6611057565b9550610dfc866055611b07611057565b9550610e0c866059611b4c611057565b9550610e1c86605a611b6a611057565b60e0880152509495945050505050565b600080610e38836106e3565b9392505050565b600080849050845185602001805160405181841460018114610e715788602086600201028b0152846001018a52610ed8565b6020830280850180841460018114610ebd578498508860200196508289848f60045afa508b838a0152858b60010101955085875288516001018952856020028701602001604052610ed4565b8560010187528b855284602001604052876001018d525b5050505b509398975050505050505050565b8251602060018201810285015160001983018087528284028701516001198501885292028601516002199093018652916a1fffffffffffffffffffff8186821685018187860160045afa5050505050505050565b600080610f486010846120c1565b90506000610f576010856120d5565b90506000610f6b8684600201602002015190565b905060f0610f7a8360106120e9565b9190911b901c95945050505050565b60008083605f03610fa957610f9f866000611b7d565b9150829050610fd3565b5060018285010151605e19848401810191908501600802610100031c610fcf8782611b7d565b9250505b94509492505050565b8151602082810260019092010283010351600090610ffb848284610e3f565b949350505050565b81516020600182010283018051601f199091015160011990920184526060916110396a1fffffffffffffffffffff85168361207f565b601f1901908152949350505050565b82516000190183529193909190565b6000806110656010856120d5565b90506110728160106120e9565b61107d9060f0612053565b83901b85179150509392505050565b8251600101602002830180516a1fffffffffffffffffffff86160190529193909190565b6000806000806000889050886a1fffffffffffffffffffff168960561b60ab1c81018951602081600101028b0180518401935060208103519050600282038c528284116001811461110357818552611188565b836040511460018114611157578e6a1fffffffffffffffffffff16935083850380604051828760045afa50508286526040519350859450838503848160aa1b8260551b171797505060208501604052611186565b6a1fffffffffffffffffffff8f169350859450838503848160aa1b8260551b1717975050828652602085016040525b505b509a9c999a509798975050505050505050565b6000806000806000889050886a1fffffffffffffffffffff168960561b60ab1c81018951602081600101028b0180518401935060208103519050600282038c52828411600181146111ee57818553611188565b836040511460018114611242578e6a1fffffffffffffffffffff16935083850380604051828760045afa50508286536040519350859450838503848160aa1b8260551b171797505060208501604052611186565b6a1fffffffffffffffffffff8f169350859450838503848160aa1b8260551b17179750508286535050505060200160405250969895965093949350505050565b8251602060018201028401601f1981018051915190910190526000190183529193909190565b8251602060018201028401601f1981018051915190910290526000190183529193909190565b8251602060018201028401601f198101805191519190910390526000190183529193909190565b8251602060018201028401601f198101805191519190910490526000190183529193909190565b60008060008060008061134a8980516001810160200282018051601f19909101516001199092019092529091565b9092509050818161137461135e8284612100565b8c90815160020160200282015280516001019052565b50989a979850959695505050505050565b8251602060018201028401601f198101805191519190910690526000190183529193909190565b6000806000806000806113da8980516001810160200282018051601f19909101516001199092019092529091565b9092509050818161137461135e828461212e565b6000806000808651602081600101028801602081036040820380518251845108905250506001190187525094969394509192915050565b6000806000808651602081600101028801602081036040820380518251845109905250506001190187525094969394509192915050565b8251602060018201028401601f198101805191519190910a90526000190183529193909190565b6000806000806000806114b18980516001810160200282018051601f19909101516001199092019092529091565b909250905080820b6114d28a82815160020160200282015280516001019052565b5097999697509495945050505050565b8251602060018201028401601f198101805191519190911090526000190183529193909190565b8251602060018201028401601f198101805191519190911190526000190183529193909190565b60008060008060008061155e8980516001810160200282018051601f19909101516001199092019092529091565b90925090508181808212806111888d82815160020160200282015280516001019052565b6000806000806000806115b08980516001810160200282018051601f19909101516001199092019092529091565b90925090508181808213806111888d82815160020160200282015280516001019052565b8251602060018201028401601f1981018051915190911490526000190183529193909190565b8251600101602002830180511590529193909190565b8251602060018201028401601f1981018051915190911690526000190183529193909190565b8251602060018201028401601f1981018051915190911790526000190183529193909190565b8251602060018201028401601f1981018051915190911890526000190183529193909190565b8251600101602002830180511990529193909190565b8251602060018201028401601f198101805191519190911a90526000190183529193909190565b8251602060018201028401601f198101805191519190911b90526000190183529193909190565b8251602060018201028401601f198101805191519190911c90526000190183529193909190565b60008060008060008061173b8980516001810160200282018051601f19909101516001199092019092529091565b9092509050806114d28a82851d815160020160200282015280516001019052565b60008060008060008061178a8980516001810160200282018051601f19909101516001199092019092529091565b6a1fffffffffffffffffffff8c16820181902091935091506114d28a82815160020160200282015280516001019052565b6000806000806117d86117cf866040015190565b88906000610e3f565b9895965093949350505050565b60008060008060006118098880516001810160200282015160001990910190915290565b9050600061181987610160015190565b905060006118278284611b8b565b91506114d290508a82815160020160200282015280516001019052565b6000806000806117d86117cf865190565b6000806000806117d86117cf866020015190565b6000806000806117d86117cf866060015190565b6000806000806000806118a28980516001810160200282015160001990910190915290565b9050611936604051806101a0016040528060006001600160a01b0316815260200160006001600160a01b0316815260200160006001600160a01b031681526020016000815260200160006001600160a01b0316815260200160008152602001600081526020016000815260200160008152602001600081526020016000815260200160008019168152602001606081525090565b5061018087015181810160200151925087906113748b85815160020160200282015280516001019052565b61018081015160009081908190819061197b888284610e3f565b999697509495945050505050565b60008060008060008060006119bf8a80516001810160200282018051601f19820151603f19909201516002199093019093529192565b92509250925060006a1fffffffffffffffffffff905061018089018285838f16018486840160045afa509a9c999a509798975050505050505050565b6000806000806117d86117cf866080015190565b6000806000806117d86117cf8660a0015190565b6000806000806117d86117cf8660c0015190565b6000806000806117d86117cf86610100015190565b6000806000806117d86117cf8660e0015190565b6000806000806117d86117cf86610120015190565b6000806000806000611a8986610160015190565b90506000611aa2611a9b886040015190565b8390611b8b565b9150611ab2905089826000610e3f565b9a979850959695505050505050565b6000806000806117d86117cf86610140015190565b60008080808581611af98980516001810160200282015160001990910190915290565b905060006118278383611b8b565b60008080808581611b2a8980516001810160200282015160001990910190915290565b8951602060018201028b01516000199091018b529091506114d2838383611c0f565b600080600080600061197b611b618a60aa1c90565b89906000610e3f565b6000806000806117d85a88906000610e3f565b6000610e3883836000610e3f565b6000806000611b9985611cd7565b611ba390856120d5565b90506000611bb78683600201602002015190565b905069ffffffffffffffffffff606082901c1660018115611c04575b8015611c04578151878103611bee5760208301519550600196505b5085611c04575060b082901c0151801515611bd3565b505050509250929050565b6000611c1a84611cd7565b611c2490846120d5565b90506000611c388583600201602002015190565b905069ffffffffffffffffffff606082901c1660018115611c92575b8015611c925760008251878103611c7057866020850152600191505b508015611c81575050505050505050565b505060b082901c0151801515611c54565b604080516060810182528781526020810187905260009181019190915280611ccc86611cbe8784611ce4565b6002919091016020028b0152565b505050505050505050565b6000610493826020015190565b6000808360501b60b01c1160018114611d09578260101b8360601b8517179150610769565b828460b01c8560a01b60b01c01528260101b6bffffffffffffffffffffffff1985161791505092915050565b60005b83811015611d50578181015183820152602001611d38565b50506000910152565b60008151808452611d71816020860160208601611d35565b601f01601f19169290920160200192915050565b602081526000610e386020830184611d59565b80356001600160a01b0381168114611daf57600080fd5b919050565b600060208284031215611dc657600080fd5b610e3882611d98565b60008060408385031215611de257600080fd5b50508035926020909101359150565b60008083601f840112611e0357600080fd5b50813567ffffffffffffffff811115611e1b57600080fd5b602083019150836020828501011115611e3357600080fd5b9250929050565b600080600080600080600060a0888a031215611e5557600080fd5b611e5e88611d98565b9650611e6c60208901611d98565b9550611e7a60408901611d98565b9450606088013567ffffffffffffffff80821115611e9757600080fd5b611ea38b838c01611df1565b909650945060808a0135915080821115611ebc57600080fd5b50611ec98a828b01611df1565b989b979a50959850939692959293505050565b8215158152604060208201526000610ffb6040830184611d59565b60006001600160a01b038088168352808716602084015280861660408401525060a06060830152611f2b60a0830185611d59565b8281036080840152611f3d8185611d59565b98975050505050505050565b634e487b7160e01b600052604160045260246000fd5b60008060408385031215611f7257600080fd5b82518015158114611f8257600080fd5b602084015190925067ffffffffffffffff80821115611fa057600080fd5b818501915085601f830112611fb457600080fd5b815181811115611fc657611fc6611f49565b604051601f8201601f19908116603f01168101908382118183101715611fee57611fee611f49565b8160405282815288602084870101111561200757600080fd5b612018836020830160208801611d35565b80955050505050509250929050565b634e487b7160e01b600052603260045260246000fd5b634e487b7160e01b600052601160045260246000fd5b818103818111156104935761049361203d565b60006020828403121561207857600080fd5b5051919050565b808201808211156104935761049361203d565b6000600182016120a4576120a461203d565b5060010190565b634e487b7160e01b600052601260045260246000fd5b6000826120d0576120d06120ab565b500490565b6000826120e4576120e46120ab565b500690565b80820281158282048414176104935761049361203d565b60008261210f5761210f6120ab565b600160ff1b8214600019841416156121295761212961203d565b500590565b60008261213d5761213d6120ab565b50079056fea164736f6c6343000815000a",
    "linkReferences": {}
  },
  "methodIdentifiers": {
    "generate(address)": "2fa61cd8",
    "name()": "06fdde03",
    "run(address,address,address,bytes,bytes)": "af323e0c",
    "verify(uint256,uint256)": "41161b10"
  },
  "id": 74
}