{
  "abi": [
    {
      "inputs": [
        {
          "internalType": "address",
          "name": "_seed",
          "type": "address"
        }
      ],
      "name": "generate",
      "outputs": [
        {
          "internalType": "uint256",
          "name": "",
          "type": "uint256"
        }
      ],
      "stateMutability": "view",
      "type": "function"
    },
    {
      "inputs": [],
      "name": "name",
      "outputs": [
        {
          "internalType": "string",
          "name": "",
          "type": "string"
        }
      ],
      "stateMutability": "view",
      "type": "function"
    },
    {
      "inputs": [
        {
          "internalType": "uint256",
          "name": "_start",
          "type": "uint256"
        },
        {
          "internalType": "uint256",
          "name": "_solution",
          "type": "uint256"
        }
      ],
      "name": "verify",
      "outputs": [
        {
          "internalType": "bool",
          "name": "",
          "type": "bool"
        }
      ],
      "stateMutability": "view",
      "type": "function"
    }
  ],
  "bytecode": {
    "object": "0x608060405234801561001057600080fd5b5061024d806100206000396000f3fe608060405234801561001057600080fd5b50600436106100415760003560e01c806306fdde03146100465780632fa61cd81461009857806341161b10146100b9575b600080fd5b6100826040518060400160405280601581526020017f556e6365727461696e7479205072696e6369706c65000000000000000000000081525081565b60405161008f9190610193565b60405180910390f35b6100ab6100a63660046101e1565b6100dc565b60405190815260200161008f565b6100cc6100c736600461021e565b610107565b604051901515815260200161008f565b60006101116101008373ffffffffffffffffffffffffffffffffffffffff1661015f565b1792915050565b6000806000805b63ffffffff86161561015357506001820191600402600f811b6101308661015f565b16915060005b82821c81101561014857600101610136565b50818603955061010e565b50600195945050505050565b6000815a60408051602081019390935282015260600160408051601f19818403018152919052805160209091012092915050565b600060208083528351808285015260005b818110156101c0578581018301518582016040015282016101a4565b506000604082860101526040601f19601f8301168501019250505092915050565b6000602082840312156101f357600080fd5b813573ffffffffffffffffffffffffffffffffffffffff8116811461021757600080fd5b9392505050565b6000806040838503121561023157600080fd5b5050803592602090910135915056fea164736f6c6343000815000a",
    "linkReferences": {}
  },
  "methodIdentifiers": {
    "generate(address)": "2fa61cd8",
    "name()": "06fdde03",
    "verify(uint256,uint256)": "41161b10"
  },
  "id": 73
}