{
  "abi": [
    {
      "inputs": [],
      "stateMutability": "nonpayable",
      "type": "constructor"
    },
    {
      "anonymous": false,
      "inputs": [
        {
          "indexed": true,
          "internalType": "address",
          "name": "wallet",
          "type": "address"
        },
        {
          "indexed": false,
          "internalType": "uint256",
          "name": "tokenId1",
          "type": "uint256"
        },
        {
          "indexed": false,
          "internalType": "uint256",
          "name": "tokenId2",
          "type": "uint256"
        }
      ],
      "name": "OwnsBoth",
      "type": "event"
    },
    {
      "inputs": [
        {
          "internalType": "uint256",
          "name": "_incrementBy",
          "type": "uint256"
        }
      ],
      "name": "_incrementNFTPrice",
      "outputs": [
        {
          "internalType": "uint256",
          "name": "oldPrice",
          "type": "uint256"
        }
      ],
      "stateMutability": "nonpayable",
      "type": "function"
    },
    {
      "inputs": [
        {
          "internalType": "address",
          "name": "_seed",
          "type": "address"
        }
      ],
      "name": "generate",
      "outputs": [
        {
          "internalType": "uint256",
          "name": "start",
          "type": "uint256"
        }
      ],
      "stateMutability": "pure",
      "type": "function"
    },
    {
      "inputs": [
        {
          "internalType": "address",
          "name": "_nftOutlet",
          "type": "address"
        },
        {
          "internalType": "uint256",
          "name": "_startingNftPrice",
          "type": "uint256"
        }
      ],
      "name": "initialize",
      "outputs": [],
      "stateMutability": "nonpayable",
      "type": "function"
    },
    {
      "inputs": [],
      "name": "name",
      "outputs": [
        {
          "internalType": "string",
          "name": "",
          "type": "string"
        }
      ],
      "stateMutability": "pure",
      "type": "function"
    },
    {
      "inputs": [],
      "name": "nftOutlet",
      "outputs": [
        {
          "internalType": "contract NFTOutlet",
          "name": "",
          "type": "address"
        }
      ],
      "stateMutability": "view",
      "type": "function"
    },
    {
      "inputs": [],
      "name": "nftPrice",
      "outputs": [
        {
          "internalType": "uint256",
          "name": "",
          "type": "uint256"
        }
      ],
      "stateMutability": "view",
      "type": "function"
    },
    {
      "inputs": [],
      "name": "owner",
      "outputs": [
        {
          "internalType": "address",
          "name": "",
          "type": "address"
        }
      ],
      "stateMutability": "view",
      "type": "function"
    },
    {
      "inputs": [
        {
          "internalType": "uint256",
          "name": "_start",
          "type": "uint256"
        },
        {
          "internalType": "uint256",
          "name": "_solution",
          "type": "uint256"
        }
      ],
      "name": "verify",
      "outputs": [
        {
          "internalType": "bool",
          "name": "",
          "type": "bool"
        }
      ],
      "stateMutability": "nonpayable",
      "type": "function"
    }
  ],
  "bytecode": {
    "object": "0x608060405234801561001057600080fd5b50600080546001600160a01b03191632179055611a56806100326000396000f3fe608060405234801561001057600080fd5b50600436106100885760003560e01c806341161b101161005b57806341161b1014610142578063690aae96146101655780638da5cb5b14610190578063cd6dc687146101a357600080fd5b806306fdde031461008d5780630d39fc81146100d55780632fa61cd8146100ec57806333e62bec1461012f575b600080fd5b604080518082018252600e81527f42696c6c79207468652042756c6c000000000000000000000000000000000000602082015290516100cc919061181b565b60405180910390f35b6100de60025481565b6040519081526020016100cc565b6100de6100fa366004611866565b604080516001600160a01b03831660208201526000910160408051601f19818403018152919052805160209091012092915050565b6100de61013d36600461188a565b6101b8565b6101556101503660046118a3565b61022c565b60405190151581526020016100cc565b600154610178906001600160a01b031681565b6040516001600160a01b0390911681526020016100cc565b600054610178906001600160a01b031681565b6101b66101b13660046118c5565b611737565b005b6000678ac7230489e8000082106102165760405162461bcd60e51b815260206004820152601960248201527f6c657473206b6565702074686973206166666f726461626c650000000000000060448201526064015b60405180910390fd5b5060025461022482826118f1565b600255919050565b600081600354600003610c9357600381905560015460408051633b2ee94d60e01b81529051608087901c926fffffffffffffffffffffffffffffffff88169287926000926001600160a01b031691633b2ee94d9160048083019260209291908290030181865afa1580156102a4573d6000803e3d6000fd5b505050506040513d601f19601f820116820180604052508101906102c89190611912565b905060008060009054906101000a90046001600160a01b0316600160009054906101000a90046001600160a01b0316600254600354856001600160a01b03166318160ddd6040518163ffffffff1660e01b8152600401602060405180830381865afa15801561033b573d6000803e3d6000fd5b505050506040513d601f19601f8201168201806040525081019061035f919061192f565b604080516001600160a01b03968716602082015295909416938501939093526060840191909152608083015260a082015260c00160408051601f1981840301815282825280516020918201206004845260248401835290830180516001600160e01b031663a04e646b60e01b17905290519092506000916001600160a01b038616916103eb9190611948565b600060405180830381855af49150503d8060008114610426576040519150601f19603f3d011682016040523d82523d6000602084013e61042b565b606091505b5091505060008060009054906101000a90046001600160a01b0316600160009054906101000a90046001600160a01b0316600254600354876001600160a01b03166318160ddd6040518163ffffffff1660e01b8152600401602060405180830381865afa1580156104a0573d6000803e3d6000fd5b505050506040513d601f19601f820116820180604052508101906104c4919061192f565b604080516001600160a01b03968716602082015295909416938501939093526060840191909152608083015260a082015260c0016040516020818303038152906040528051906020012090508083146105495760405162461bcd60e51b815260206004820152600760248201526662616420626f7960c81b604482015260640161020d565b60008280602001905181019061055f919061197a565b600154815160208301206040516309225e3160e31b815260048101919091529192506001600160a01b031690634912f18890602401602060405180830381865afa1580156105b1573d6000803e3d6000fd5b505050506040513d601f19601f820116820180604052508101906105d59190611a27565b156106225760405162461bcd60e51b815260206004820152601060248201527f6e6f2072657573696e6720666c61677300000000000000000000000000000000604482015260640161020d565b60015481516020830120604051625afe3560e21b81526001600160a01b039092169163016bf8d49161065a9160040190815260200190565b600060405180830381600087803b15801561067457600080fd5b505af1158015610688573d6000803e3d6000fd5b505050506000600160009054906101000a90046001600160a01b03166001600160a01b0316633013ce296040518163ffffffff1660e01b8152600401602060405180830381865afa1580156106e1573d6000803e3d6000fd5b505050506040513d601f19601f820116820180604052508101906107059190611912565b6040516370a0823160e01b81526001600160a01b03898116600483015291909116906370a0823190602401602060405180830381865afa15801561074d573d6000803e3d6000fd5b505050506040513d601f19601f82011682018060405250810190610771919061192f565b60015490915060009081906001600160a01b031689610797670de0b6b3a76400006101b8565b6040516001600160a01b039092166024830152604482015260640160408051601f198184030181529181526020820180516001600160e01b0316636203b43b60e11b179052516107e79190611948565b6000604051808303816000865af19150503d8060008114610824576040519150601f19603f3d011682016040523d82523d6000602084013e610829565b606091505b509150915061083882826117ce565b156108855760405162461bcd60e51b815260206004820152601560248201527f7472616e73666572206d75737420737563636565640000000000000000000000604482015260640161020d565b600160009054906101000a90046001600160a01b03166001600160a01b0316633013ce296040518163ffffffff1660e01b8152600401602060405180830381865afa1580156108d8573d6000803e3d6000fd5b505050506040513d601f19601f820116820180604052508101906108fc9190611912565b6040516370a0823160e01b81526001600160a01b038b8116600483015291909116906370a0823190602401602060405180830381865afa158015610944573d6000803e3d6000fd5b505050506040513d601f19601f82011682018060405250810190610968919061192f565b83146109a65760405162461bcd60e51b815260206004820152600d60248201526c736e65616b7920736e65616b7960981b604482015260640161020d565b6001546040516001600160a01b038b81166024830152604482018e9052600092839291169060640160408051601f198184030181529181526020820180516001600160e01b03166340c10f1960e01b17905251610a039190611948565b6000604051808303816000865af19150503d8060008114610a40576040519150601f19603f3d011682016040523d82523d6000602084013e610a45565b606091505b5091509150610a5482826117ce565b15610aa15760405162461bcd60e51b815260206004820152601160248201527f6d696e74206d7573742073756363656564000000000000000000000000000000604482015260640161020d565b6040516331a9108f60e11b8152600481018e90526001600160a01b03808d1691908c1690636352211e90602401602060405180830381865afa158015610aeb573d6000803e3d6000fd5b505050506040513d601f19601f82011682018060405250810190610b0f9190611912565b6001600160a01b031614610b655760405162461bcd60e51b815260206004820152601360248201527f6d757374206f776e20746f6b656e206964203100000000000000000000000000604482015260640161020d565b6040516331a9108f60e11b8152600481018d90526001600160a01b03808d1691908c1690636352211e90602401602060405180830381865afa158015610baf573d6000803e3d6000fd5b505050506040513d601f19601f82011682018060405250810190610bd39190611912565b6001600160a01b031614610c295760405162461bcd60e51b815260206004820152601360248201527f6d757374206f776e20746f6b656e206964203200000000000000000000000000604482015260640161020d565b604080518e8152602081018e90526001600160a01b038d16917fc3f9c02d5dc0918f822bfa59af4f73cdf740dd84e9a4e7349371f3cebdc714b9910160405180910390a28f868051906020012060001c149e50505050505050505050505050506000600355611730565b8060035414610ce45760405162461bcd60e51b815260206004820152601060248201527f6d6178206f6e6520736f6c7574696f6e00000000000000000000000000000000604482015260640161020d565b60015460408051633b2ee94d60e01b81529051608087901c926fffffffffffffffffffffffffffffffff88169287926000926001600160a01b031691633b2ee94d9160048083019260209291908290030181865afa158015610d4a573d6000803e3d6000fd5b505050506040513d601f19601f82011682018060405250810190610d6e9190611912565b905060008060009054906101000a90046001600160a01b0316600160009054906101000a90046001600160a01b0316600254600354856001600160a01b03166318160ddd6040518163ffffffff1660e01b8152600401602060405180830381865afa158015610de1573d6000803e3d6000fd5b505050506040513d601f19601f82011682018060405250810190610e05919061192f565b604080516001600160a01b03968716602082015295909416938501939093526060840191909152608083015260a082015260c00160408051601f1981840301815282825280516020918201206004845260248401835290830180516001600160e01b031663a04e646b60e01b17905290519092506000916001600160a01b03861691610e919190611948565b600060405180830381855af49150503d8060008114610ecc576040519150601f19603f3d011682016040523d82523d6000602084013e610ed1565b606091505b5091505060008060009054906101000a90046001600160a01b0316600160009054906101000a90046001600160a01b0316600254600354876001600160a01b03166318160ddd6040518163ffffffff1660e01b8152600401602060405180830381865afa158015610f46573d6000803e3d6000fd5b505050506040513d601f19601f82011682018060405250810190610f6a919061192f565b604080516001600160a01b03968716602082015295909416938501939093526060840191909152608083015260a082015260c001604051602081830303815290604052805190602001209050808314610fef5760405162461bcd60e51b815260206004820152600760248201526662616420626f7960c81b604482015260640161020d565b600082806020019051810190611005919061197a565b600154815160208301206040516309225e3160e31b815260048101919091529192506001600160a01b031690634912f18890602401602060405180830381865afa158015611057573d6000803e3d6000fd5b505050506040513d601f19601f8201168201806040525081019061107b9190611a27565b156110c85760405162461bcd60e51b815260206004820152601060248201527f6e6f2072657573696e6720666c61677300000000000000000000000000000000604482015260640161020d565b60015481516020830120604051625afe3560e21b81526001600160a01b039092169163016bf8d4916111009160040190815260200190565b600060405180830381600087803b15801561111a57600080fd5b505af115801561112e573d6000803e3d6000fd5b505050506000600160009054906101000a90046001600160a01b03166001600160a01b0316633013ce296040518163ffffffff1660e01b8152600401602060405180830381865afa158015611187573d6000803e3d6000fd5b505050506040513d601f19601f820116820180604052508101906111ab9190611912565b6040516370a0823160e01b81526001600160a01b03898116600483015291909116906370a0823190602401602060405180830381865afa1580156111f3573d6000803e3d6000fd5b505050506040513d601f19601f82011682018060405250810190611217919061192f565b60015490915060009081906001600160a01b03168961123d670de0b6b3a76400006101b8565b6040516001600160a01b039092166024830152604482015260640160408051601f198184030181529181526020820180516001600160e01b0316636203b43b60e11b1790525161128d9190611948565b6000604051808303816000865af19150503d80600081146112ca576040519150601f19603f3d011682016040523d82523d6000602084013e6112cf565b606091505b50915091506112de82826117ce565b1561132b5760405162461bcd60e51b815260206004820152601560248201527f7472616e73666572206d75737420737563636565640000000000000000000000604482015260640161020d565b600160009054906101000a90046001600160a01b03166001600160a01b0316633013ce296040518163ffffffff1660e01b8152600401602060405180830381865afa15801561137e573d6000803e3d6000fd5b505050506040513d601f19601f820116820180604052508101906113a29190611912565b6040516370a0823160e01b81526001600160a01b038b8116600483015291909116906370a0823190602401602060405180830381865afa1580156113ea573d6000803e3d6000fd5b505050506040513d601f19601f8201168201806040525081019061140e919061192f565b831461144c5760405162461bcd60e51b815260206004820152600d60248201526c736e65616b7920736e65616b7960981b604482015260640161020d565b6001546040516001600160a01b038b81166024830152604482018e9052600092839291169060640160408051601f198184030181529181526020820180516001600160e01b03166340c10f1960e01b179052516114a99190611948565b6000604051808303816000865af19150503d80600081146114e6576040519150601f19603f3d011682016040523d82523d6000602084013e6114eb565b606091505b50915091506114fa82826117ce565b156115475760405162461bcd60e51b815260206004820152601160248201527f6d696e74206d7573742073756363656564000000000000000000000000000000604482015260640161020d565b6040516331a9108f60e11b8152600481018e90526001600160a01b03808d1691908c1690636352211e90602401602060405180830381865afa158015611591573d6000803e3d6000fd5b505050506040513d601f19601f820116820180604052508101906115b59190611912565b6001600160a01b03161461160b5760405162461bcd60e51b815260206004820152601360248201527f6d757374206f776e20746f6b656e206964203100000000000000000000000000604482015260640161020d565b6040516331a9108f60e11b8152600481018d90526001600160a01b03808d1691908c1690636352211e90602401602060405180830381865afa158015611655573d6000803e3d6000fd5b505050506040513d601f19601f820116820180604052508101906116799190611912565b6001600160a01b0316146116cf5760405162461bcd60e51b815260206004820152601360248201527f6d757374206f776e20746f6b656e206964203200000000000000000000000000604482015260640161020d565b604080518e8152602081018e90526001600160a01b038d16917fc3f9c02d5dc0918f822bfa59af4f73cdf740dd84e9a4e7349371f3cebdc714b9910160405180910390a28f868051906020012060001c149e50505050505050505050505050505b5092915050565b6001546001600160a01b0316156117905760405162461bcd60e51b815260206004820152601360248201527f616c726561647920696e697469616c697a656400000000000000000000000000604482015260640161020d565b600180547fffffffffffffffffffffffff0000000000000000000000000000000000000000166001600160a01b039390931692909217909155600255565b60008280156117ee5750818060200190518101906117ec9190611a27565b155b90505b92915050565b60005b838110156118125781810151838201526020016117fa565b50506000910152565b602081526000825180602084015261183a8160408501602087016117f7565b601f01601f19169190910160400192915050565b6001600160a01b038116811461186357600080fd5b50565b60006020828403121561187857600080fd5b81356118838161184e565b9392505050565b60006020828403121561189c57600080fd5b5035919050565b600080604083850312156118b657600080fd5b50508035926020909101359150565b600080604083850312156118d857600080fd5b82356118e38161184e565b946020939093013593505050565b808201808211156117f157634e487b7160e01b600052601160045260246000fd5b60006020828403121561192457600080fd5b81516118838161184e565b60006020828403121561194157600080fd5b5051919050565b6000825161195a8184602087016117f7565b9190910192915050565b634e487b7160e01b600052604160045260246000fd5b60006020828403121561198c57600080fd5b815167ffffffffffffffff808211156119a457600080fd5b818401915084601f8301126119b857600080fd5b8151818111156119ca576119ca611964565b604051601f8201601f19908116603f011681019083821181831017156119f2576119f2611964565b81604052828152876020848701011115611a0b57600080fd5b611a1c8360208301602088016117f7565b979650505050505050565b600060208284031215611a3957600080fd5b8151801515811461188357600080fdfea164736f6c6343000815000a",
    "linkReferences": {}
  },
  "methodIdentifiers": {
    "_incrementNFTPrice(uint256)": "33e62bec",
    "generate(address)": "2fa61cd8",
    "initialize(address,uint256)": "cd6dc687",
    "name()": "06fdde03",
    "nftOutlet()": "690aae96",
    "nftPrice()": "0d39fc81",
    "owner()": "8da5cb5b",
    "verify(uint256,uint256)": "41161b10"
  },
  "id": 80
}