{
  "abi": [
    {
      "inputs": [
        {
          "internalType": "address",
          "name": "_puzzle",
          "type": "address"
        },
        {
          "internalType": "address[]",
          "name": "_paymentTokens",
          "type": "address[]"
        },
        {
          "internalType": "address[]",
          "name": "_nfts",
          "type": "address[]"
        }
      ],
      "stateMutability": "nonpayable",
      "type": "constructor"
    },
    {
      "inputs": [
        {
          "internalType": "address",
          "name": "_newStablecoin",
          "type": "address"
        }
      ],
      "name": "changePaymentToken",
      "outputs": [],
      "stateMutability": "nonpayable",
      "type": "function"
    },
    {
      "inputs": [
        {
          "internalType": "bytes32",
          "name": "",
          "type": "bytes32"
        }
      ],
      "name": "magicFlagsUsed",
      "outputs": [
        {
          "internalType": "bool",
          "name": "",
          "type": "bool"
        }
      ],
      "stateMutability": "view",
      "type": "function"
    },
    {
      "inputs": [
        {
          "internalType": "address",
          "name": "_to",
          "type": "address"
        },
        {
          "internalType": "uint256",
          "name": "_tokenId",
          "type": "uint256"
        }
      ],
      "name": "mint",
      "outputs": [
        {
          "internalType": "bool",
          "name": "",
          "type": "bool"
        }
      ],
      "stateMutability": "nonpayable",
      "type": "function"
    },
    {
      "inputs": [
        {
          "internalType": "address",
          "name": "",
          "type": "address"
        }
      ],
      "name": "mintsClaimed",
      "outputs": [
        {
          "internalType": "bool",
          "name": "",
          "type": "bool"
        }
      ],
      "stateMutability": "view",
      "type": "function"
    },
    {
      "inputs": [],
      "name": "nftDealOfTheDay",
      "outputs": [
        {
          "internalType": "contract IERC721",
          "name": "",
          "type": "address"
        }
      ],
      "stateMutability": "view",
      "type": "function"
    },
    {
      "inputs": [
        {
          "internalType": "address",
          "name": "_from",
          "type": "address"
        },
        {
          "internalType": "uint256",
          "name": "_amount",
          "type": "uint256"
        }
      ],
      "name": "pay",
      "outputs": [
        {
          "internalType": "bool",
          "name": "",
          "type": "bool"
        }
      ],
      "stateMutability": "nonpayable",
      "type": "function"
    },
    {
      "inputs": [],
      "name": "paymentToken",
      "outputs": [
        {
          "internalType": "contract ERC20",
          "name": "",
          "type": "address"
        }
      ],
      "stateMutability": "view",
      "type": "function"
    },
    {
      "inputs": [
        {
          "internalType": "address",
          "name": "_token",
          "type": "address"
        }
      ],
      "name": "rescueERC20",
      "outputs": [],
      "stateMutability": "nonpayable",
      "type": "function"
    },
    {
      "inputs": [
        {
          "internalType": "bytes32",
          "name": "_magicFlag",
          "type": "bytes32"
        }
      ],
      "name": "setMagicFlagUsed",
      "outputs": [],
      "stateMutability": "nonpayable",
      "type": "function"
    },
    {
      "inputs": [
        {
          "internalType": "address",
          "name": "",
          "type": "address"
        }
      ],
      "name": "validAssets",
      "outputs": [
        {
          "internalType": "bool",
          "name": "",
          "type": "bool"
        }
      ],
      "stateMutability": "view",
      "type": "function"
    }
  ],
  "bytecode": {
    "object": "0x60a06040523480156200001157600080fd5b5060405162000d3a38038062000d3a833981016040819052620000349162000291565b6001600160a01b038316608052815182906000906200005757620000576200030e565b60200260200101516000806101000a8154816001600160a01b0302191690836001600160a01b03160217905550806000815181106200009a576200009a6200030e565b6020026020010151600160006101000a8154816001600160a01b0302191690836001600160a01b0316021790555060005b82518110156200013757600160036000858481518110620000f057620000f06200030e565b6020908102919091018101516001600160a01b03168252810191909152604001600020805460ff1916911515919091179055806200012e8162000324565b915050620000cb565b5060005b8151811015620001a7576001600360008484815181106200016057620001606200030e565b6020908102919091018101516001600160a01b03168252810191909152604001600020805460ff1916911515919091179055806200019e8162000324565b9150506200013b565b505050506200034c565b80516001600160a01b0381168114620001c957600080fd5b919050565b634e487b7160e01b600052604160045260246000fd5b600082601f830112620001f657600080fd5b815160206001600160401b0380831115620002155762000215620001ce565b8260051b604051601f19603f830116810181811084821117156200023d576200023d620001ce565b6040529384528581018301938381019250878511156200025c57600080fd5b83870191505b8482101562000286576200027682620001b1565b8352918301919083019062000262565b979650505050505050565b600080600060608486031215620002a757600080fd5b620002b284620001b1565b60208501519093506001600160401b0380821115620002d057600080fd5b620002de87838801620001e4565b93506040860151915080821115620002f557600080fd5b506200030486828701620001e4565b9150509250925092565b634e487b7160e01b600052603260045260246000fd5b6000600182016200034557634e487b7160e01b600052601160045260246000fd5b5060010190565b6080516109bd6200037d600039600081816101eb01528181610273015281816103eb015261057a01526109bd6000f3fe608060405234801561001057600080fd5b50600436106100be5760003560e01c80634912f188116100765780639eddf7dc1161005b5780639eddf7dc14610197578063c4076876146101ba578063ccec3716146101cd57600080fd5b80634912f188146101515780635c9477fe1461017457600080fd5b80633b2ee94d116100a75780633b2ee94d1461010857806340c10f191461011b5780634558d7171461013e57600080fd5b8063016bf8d4146100c35780633013ce29146100d8575b600080fd5b6100d66100d13660046108d7565b6101e0565b005b6000546100eb906001600160a01b031681565b6040516001600160a01b0390911681526020015b60405180910390f35b6001546100eb906001600160a01b031681565b61012e610129366004610908565b610266565b60405190151581526020016100ff565b6100d661014c366004610934565b6103e9565b61012e61015f3660046108d7565b60056020526000908152604090205460ff1681565b61012e610182366004610934565b60036020526000908152604090205460ff1681565b61012e6101a5366004610934565b60046020526000908152604090205460ff1681565b61012e6101c8366004610908565b61056d565b6100d66101db366004610934565b6107bc565b336001600160a01b037f0000000000000000000000000000000000000000000000000000000000000000161461024b5760405162461bcd60e51b815260206004820152600b60248201526a6f6e6c792070757a7a6c6560a81b60448201526064015b60405180910390fd5b6000908152600560205260409020805460ff19166001179055565b6000336001600160a01b037f000000000000000000000000000000000000000000000000000000000000000016146102ce5760405162461bcd60e51b815260206004820152600b60248201526a6f6e6c792070757a7a6c6560a81b6044820152606401610242565b6001600160a01b03831660009081526004602052604090205460ff16156103375760405162461bcd60e51b815260206004820152600f60248201527f616c726561647920636c61696d656400000000000000000000000000000000006044820152606401610242565b6001546040517fa14481940000000000000000000000000000000000000000000000000000000081526001600160a01b038581166004830152602482018590529091169063a144819490604401600060405180830381600087803b15801561039e57600080fd5b505af19250505080156103af575060015b6103bb575060006103e3565b506001600160a01b0382166000908152600460205260409020805460ff191660019081179091555b92915050565b7f00000000000000000000000000000000000000000000000000000000000000006001600160a01b0316638da5cb5b6040518163ffffffff1660e01b8152600401602060405180830381865afa158015610447573d6000803e3d6000fd5b505050506040513d601f19601f8201168201806040525081019061046b9190610958565b6001600160a01b0316336001600160a01b0316146104cb5760405162461bcd60e51b815260206004820152601160248201527f6f6e6c792070757a7a6c65206f776e65720000000000000000000000000000006044820152606401610242565b6001600160a01b03811660009081526003602052604090205460ff166105335760405162461bcd60e51b815260206004820152601060248201527f6e6f20736e65616b7920617373657473000000000000000000000000000000006044820152606401610242565b600080547fffffffffffffffffffffffff0000000000000000000000000000000000000000166001600160a01b0392909216919091179055565b6000336001600160a01b037f000000000000000000000000000000000000000000000000000000000000000016146105d55760405162461bcd60e51b815260206004820152600b60248201526a6f6e6c792070757a7a6c6560a81b6044820152606401610242565b6001600160a01b03831661062b5760405162461bcd60e51b815260206004820152600f60248201527f6e6f207a65726f206164647265737300000000000000000000000000000000006044820152606401610242565b6000546040517f23b872dd0000000000000000000000000000000000000000000000000000000081526001600160a01b03858116600483015230602483015260448201859052909116906323b872dd906064016020604051808303816000875af19250505080156106b9575060408051601f3d908101601f191682019092526106b691810190610975565b60015b61071f5763ffffffff8263ffffffff1611156107175760405162461bcd60e51b815260206004820152600e60248201527f696e76616c696420616d6f756e740000000000000000000000000000000000006044820152606401610242565b5060006103e3565b604080516020810185905201604051602081830303815290604052805190602001207f420badbabe420badbabe420badbabe420badbabe420badbabe420badbabe696960001b036107b25760405162461bcd60e51b815260206004820152600c60248201527f746f6f20696d6d617475726500000000000000000000000000000000000000006044820152606401610242565b60019150506103e3565b6002546040517f70a082310000000000000000000000000000000000000000000000000000000081523060048201526001600160a01b038381169263a9059cbb9291169083906370a0823190602401602060405180830381865afa158015610828573d6000803e3d6000fd5b505050506040513d601f19601f8201168201806040525081019061084c9190610997565b6040517fffffffff0000000000000000000000000000000000000000000000000000000060e085901b1681526001600160a01b03909216600483015260248201526044016020604051808303816000875af11580156108af573d6000803e3d6000fd5b505050506040513d601f19601f820116820180604052508101906108d39190610975565b5050565b6000602082840312156108e957600080fd5b5035919050565b6001600160a01b038116811461090557600080fd5b50565b6000806040838503121561091b57600080fd5b8235610926816108f0565b946020939093013593505050565b60006020828403121561094657600080fd5b8135610951816108f0565b9392505050565b60006020828403121561096a57600080fd5b8151610951816108f0565b60006020828403121561098757600080fd5b8151801515811461095157600080fd5b6000602082840312156109a957600080fd5b505191905056fea164736f6c6343000815000a",
    "linkReferences": {}
  },
  "methodIdentifiers": {
    "changePaymentToken(address)": "4558d717",
    "magicFlagsUsed(bytes32)": "4912f188",
    "mint(address,uint256)": "40c10f19",
    "mintsClaimed(address)": "9eddf7dc",
    "nftDealOfTheDay()": "3b2ee94d",
    "pay(address,uint256)": "c4076876",
    "paymentToken()": "3013ce29",
    "rescueERC20(address)": "ccec3716",
    "setMagicFlagUsed(bytes32)": "016bf8d4",
    "validAssets(address)": "5c9477fe"
  },
  "id": 80
}