{
  "abi": [
    {
      "inputs": [
        {
          "internalType": "address",
          "name": "_seed",
          "type": "address"
        }
      ],
      "name": "generate",
      "outputs": [
        {
          "internalType": "uint256",
          "name": "",
          "type": "uint256"
        }
      ],
      "stateMutability": "view",
      "type": "function"
    },
    {
      "inputs": [],
      "name": "name",
      "outputs": [
        {
          "internalType": "string",
          "name": "",
          "type": "string"
        }
      ],
      "stateMutability": "pure",
      "type": "function"
    },
    {
      "inputs": [
        {
          "internalType": "uint256",
          "name": "_start",
          "type": "uint256"
        },
        {
          "internalType": "uint256",
          "name": "_solution",
          "type": "uint256"
        }
      ],
      "name": "verify",
      "outputs": [
        {
          "internalType": "bool",
          "name": "",
          "type": "bool"
        }
      ],
      "stateMutability": "nonpayable",
      "type": "function"
    }
  ],
  "bytecode": {
    "object": "0x608060405234801561001057600080fd5b506104c8806100206000396000f3fe608060405234801561001057600080fd5b50600436106100415760003560e01c806306fdde03146100465780632fa61cd81461008e57806341161b10146100ea575b600080fd5b604080518082018252600781527f54696e79536967000000000000000000000000000000000000000000000000006020820152905161008591906102f3565b60405180910390f35b6100dc61009c36600461030d565b6040516bffffffffffffffffffffffff19606083901b16602082015260009060340160408051601f19818403018152919052805160209091012092915050565b604051908152602001610085565b6100fd6100f8366004610343565b61010d565b6040519015158152602001610085565b6000808260405160200161012391815260200190565b60405160208183030381529060405260405161013e906102a0565b61014891906102f3565b604051809103906000f080158015610164573d6000803e3d6000fd5b50905060008173ffffffffffffffffffffffffffffffffffffffff16604051600060405180830381855afa9150503d80600081146101be576040519150601f19603f3d011682016040523d82523d6000602084013e6101c3565b606091505b509150506000806000838060200190518101906101e09190610365565b919450925090507701000000000000000000000000000000000000000000000081108015610294575060408051600081526020810180835285905260ff8416918101919091526060810182905260808101899052737e5f4552091a69125d5dfcb7b8c2659029395bdf9060019060a0016020604051602081039080840390855afa158015610272573d6000803e3d6000fd5b5050506020604051035173ffffffffffffffffffffffffffffffffffffffff16145b98975050505050505050565b610117806103a583390190565b6000815180845260005b818110156102d3576020818501810151868301820152016102b7565b506000602082860101526020601f19601f83011685010191505092915050565b60208152600061030660208301846102ad565b9392505050565b60006020828403121561031f57600080fd5b813573ffffffffffffffffffffffffffffffffffffffff8116811461030657600080fd5b6000806040838503121561035657600080fd5b50508035926020909101359150565b60008060006060848603121561037a57600080fd5b83519250602084015160ff8116811461039257600080fd5b8092505060408401519050925092509256fe608060405234801561001057600080fd5b5060405161011738038061011783398101604081905261002f9161004d565b805160208201f35b634e487b7160e01b600052604160045260246000fd5b6000602080838503121561006057600080fd5b82516001600160401b038082111561007757600080fd5b818501915085601f83011261008b57600080fd5b81518181111561009d5761009d610037565b604051601f8201601f19908116603f011681019083821181831017156100c5576100c5610037565b8160405282815288868487010111156100dd57600080fd5b600093505b828410156100ff57848401860151818501870152928501926100e2565b60008684830101528096505050505050509291505056fea164736f6c6343000815000a",
    "linkReferences": {}
  },
  "methodIdentifiers": {
    "generate(address)": "2fa61cd8",
    "name()": "06fdde03",
    "verify(uint256,uint256)": "41161b10"
  },
  "id": 71
}